{
  "contractName": "CoinPledge",
  "abi": [
    {
      "constant": false,
      "inputs": [
        {
          "name": "token",
          "type": "address"
        }
      ],
      "name": "reclaimToken",
      "outputs": [],
      "payable": false,
      "stateMutability": "nonpayable",
      "type": "function"
    },
    {
      "constant": true,
      "inputs": [
        {
          "name": "",
          "type": "address"
        }
      ],
      "name": "bonusFund",
      "outputs": [
        {
          "name": "",
          "type": "uint256"
        }
      ],
      "payable": false,
      "stateMutability": "view",
      "type": "function"
    },
    {
      "constant": false,
      "inputs": [],
      "name": "withdrawPayments",
      "outputs": [],
      "payable": false,
      "stateMutability": "nonpayable",
      "type": "function"
    },
    {
      "constant": false,
      "inputs": [],
      "name": "renounceOwnership",
      "outputs": [],
      "payable": false,
      "stateMutability": "nonpayable",
      "type": "function"
    },
    {
      "constant": true,
      "inputs": [
        {
          "name": "",
          "type": "address"
        }
      ],
      "name": "userToChallengeCount",
      "outputs": [
        {
          "name": "",
          "type": "uint256"
        }
      ],
      "payable": false,
      "stateMutability": "view",
      "type": "function"
    },
    {
      "constant": true,
      "inputs": [],
      "name": "owner",
      "outputs": [
        {
          "name": "",
          "type": "address"
        }
      ],
      "payable": false,
      "stateMutability": "view",
      "type": "function"
    },
    {
      "constant": true,
      "inputs": [
        {
          "name": "",
          "type": "uint256"
        }
      ],
      "name": "challenges",
      "outputs": [
        {
          "name": "user",
          "type": "address"
        },
        {
          "name": "name",
          "type": "string"
        },
        {
          "name": "value",
          "type": "uint256"
        },
        {
          "name": "mentor",
          "type": "address"
        },
        {
          "name": "startDate",
          "type": "uint256"
        },
        {
          "name": "time",
          "type": "uint256"
        },
        {
          "name": "successed",
          "type": "bool"
        },
        {
          "name": "resolved",
          "type": "bool"
        }
      ],
      "payable": false,
      "stateMutability": "view",
      "type": "function"
    },
    {
      "constant": true,
      "inputs": [
        {
          "name": "",
          "type": "address"
        }
      ],
      "name": "mentorToChallengeCount",
      "outputs": [
        {
          "name": "",
          "type": "uint256"
        }
      ],
      "payable": false,
      "stateMutability": "view",
      "type": "function"
    },
    {
      "constant": true,
      "inputs": [
        {
          "name": "",
          "type": "uint256"
        }
      ],
      "name": "challengeToUser",
      "outputs": [
        {
          "name": "",
          "type": "address"
        }
      ],
      "payable": false,
      "stateMutability": "view",
      "type": "function"
    },
    {
      "constant": true,
      "inputs": [
        {
          "name": "",
          "type": "uint256"
        }
      ],
      "name": "allUsers",
      "outputs": [
        {
          "name": "",
          "type": "address"
        }
      ],
      "payable": false,
      "stateMutability": "view",
      "type": "function"
    },
    {
      "constant": true,
      "inputs": [
        {
          "name": "",
          "type": "address"
        }
      ],
      "name": "users",
      "outputs": [
        {
          "name": "addr",
          "type": "address"
        },
        {
          "name": "name",
          "type": "string"
        }
      ],
      "payable": false,
      "stateMutability": "view",
      "type": "function"
    },
    {
      "constant": true,
      "inputs": [
        {
          "name": "",
          "type": "uint256"
        }
      ],
      "name": "challengeToMentor",
      "outputs": [
        {
          "name": "",
          "type": "address"
        }
      ],
      "payable": false,
      "stateMutability": "view",
      "type": "function"
    },
    {
      "constant": true,
      "inputs": [
        {
          "name": "_dest",
          "type": "address"
        }
      ],
      "name": "payments",
      "outputs": [
        {
          "name": "",
          "type": "uint256"
        }
      ],
      "payable": false,
      "stateMutability": "view",
      "type": "function"
    },
    {
      "constant": false,
      "inputs": [
        {
          "name": "_newOwner",
          "type": "address"
        }
      ],
      "name": "transferOwnership",
      "outputs": [],
      "payable": false,
      "stateMutability": "nonpayable",
      "type": "function"
    },
    {
      "anonymous": false,
      "inputs": [
        {
          "indexed": true,
          "name": "challengeId",
          "type": "uint256"
        },
        {
          "indexed": true,
          "name": "user",
          "type": "address"
        },
        {
          "indexed": false,
          "name": "name",
          "type": "string"
        },
        {
          "indexed": false,
          "name": "value",
          "type": "uint256"
        },
        {
          "indexed": true,
          "name": "mentor",
          "type": "address"
        },
        {
          "indexed": false,
          "name": "startDate",
          "type": "uint256"
        },
        {
          "indexed": false,
          "name": "time",
          "type": "uint256"
        }
      ],
      "name": "NewChallenge",
      "type": "event"
    },
    {
      "anonymous": false,
      "inputs": [
        {
          "indexed": true,
          "name": "challengeId",
          "type": "uint256"
        },
        {
          "indexed": true,
          "name": "user",
          "type": "address"
        },
        {
          "indexed": true,
          "name": "mentor",
          "type": "address"
        },
        {
          "indexed": false,
          "name": "decision",
          "type": "bool"
        }
      ],
      "name": "ChallengeResolved",
      "type": "event"
    },
    {
      "anonymous": false,
      "inputs": [
        {
          "indexed": true,
          "name": "user",
          "type": "address"
        },
        {
          "indexed": false,
          "name": "value",
          "type": "uint256"
        }
      ],
      "name": "BonusFundChanged",
      "type": "event"
    },
    {
      "anonymous": false,
      "inputs": [
        {
          "indexed": true,
          "name": "addr",
          "type": "address"
        },
        {
          "indexed": true,
          "name": "name",
          "type": "string"
        }
      ],
      "name": "NewUsername",
      "type": "event"
    },
    {
      "anonymous": false,
      "inputs": [
        {
          "indexed": true,
          "name": "previousOwner",
          "type": "address"
        }
      ],
      "name": "OwnershipRenounced",
      "type": "event"
    },
    {
      "anonymous": false,
      "inputs": [
        {
          "indexed": true,
          "name": "previousOwner",
          "type": "address"
        },
        {
          "indexed": true,
          "name": "newOwner",
          "type": "address"
        }
      ],
      "name": "OwnershipTransferred",
      "type": "event"
    },
    {
      "constant": true,
      "inputs": [
        {
          "name": "user",
          "type": "address"
        }
      ],
      "name": "getBonusFund",
      "outputs": [
        {
          "name": "",
          "type": "uint256"
        }
      ],
      "payable": false,
      "stateMutability": "view",
      "type": "function"
    },
    {
      "constant": true,
      "inputs": [],
      "name": "getUsersCount",
      "outputs": [
        {
          "name": "",
          "type": "uint256"
        }
      ],
      "payable": false,
      "stateMutability": "view",
      "type": "function"
    },
    {
      "constant": true,
      "inputs": [
        {
          "name": "user",
          "type": "address"
        }
      ],
      "name": "getChallengesForUser",
      "outputs": [
        {
          "name": "",
          "type": "uint256[]"
        }
      ],
      "payable": false,
      "stateMutability": "view",
      "type": "function"
    },
    {
      "constant": true,
      "inputs": [
        {
          "name": "mentor",
          "type": "address"
        }
      ],
      "name": "getChallengesForMentor",
      "outputs": [
        {
          "name": "",
          "type": "uint256[]"
        }
      ],
      "payable": false,
      "stateMutability": "view",
      "type": "function"
    },
    {
      "constant": false,
      "inputs": [
        {
          "name": "name",
          "type": "string"
        }
      ],
      "name": "setUsername",
      "outputs": [],
      "payable": false,
      "stateMutability": "nonpayable",
      "type": "function"
    },
    {
      "constant": false,
      "inputs": [
        {
          "name": "name",
          "type": "string"
        },
        {
          "name": "mentor",
          "type": "address"
        },
        {
          "name": "time",
          "type": "uint256"
        }
      ],
      "name": "createChallenge",
      "outputs": [
        {
          "name": "retId",
          "type": "uint256"
        }
      ],
      "payable": true,
      "stateMutability": "payable",
      "type": "function"
    },
    {
      "constant": false,
      "inputs": [
        {
          "name": "challengeId",
          "type": "uint256"
        },
        {
          "name": "decision",
          "type": "bool"
        }
      ],
      "name": "resolveChallenge",
      "outputs": [],
      "payable": false,
      "stateMutability": "nonpayable",
      "type": "function"
    }
  ],
  "bytecode": "0x6080604052336000806101000a81548173ffffffffffffffffffffffffffffffffffffffff021916908373ffffffffffffffffffffffffffffffffffffffff1602179055506200004e620000b2565b604051809103906000f0801580156200006b573d6000803e3d6000fd5b50600160006101000a81548173ffffffffffffffffffffffffffffffffffffffff021916908373ffffffffffffffffffffffffffffffffffffffff160217905550620000c3565b6040516108518062002c2d83390190565b612b5a80620000d36000396000f30060806040526004361061011d576000357c0100000000000000000000000000000000000000000000000000000000900463ffffffff16806317ffc320146101225780631906a3d61461016557806329fc550f146101bc5780633a1659821461025457806341c9028c146102c05780634af79ba2146103175780636103d70b146103af578063715018a6146103c657806386ddf4dd146103dd5780638da5cb5b146104345780638f1d37761461048b5780639077c676146105c257806394a754e0146106195780639c1bea8c14610652578063a2bdedf4146106bf578063a4a1e2631461072c578063a87430ba14610757578063acc6060614610846578063e2982c21146108b3578063ed59313a1461090a578063f2fde38b14610945575b600080fd5b34801561012e57600080fd5b50610163600480360381019080803573ffffffffffffffffffffffffffffffffffffffff169060200190929190505050610988565b005b34801561017157600080fd5b506101a6600480360381019080803573ffffffffffffffffffffffffffffffffffffffff169060200190929190505050610b0d565b6040518082815260200191505060405180910390f35b3480156101c857600080fd5b506101fd600480360381019080803573ffffffffffffffffffffffffffffffffffffffff169060200190929190505050610b56565b6040518080602001828103825283818151815260200191508051906020019060200280838360005b83811015610240578082015181840152602081019050610225565b505050509050019250505060405180910390f35b6102aa600480360381019080803590602001908201803590602001919091929391929390803573ffffffffffffffffffffffffffffffffffffffff16906020019092919080359060200190929190505050610d3f565b6040518082815260200191505060405180910390f35b3480156102cc57600080fd5b50610301600480360381019080803573ffffffffffffffffffffffffffffffffffffffff1690602001909291905050506112b6565b6040518082815260200191505060405180910390f35b34801561032357600080fd5b50610358600480360381019080803573ffffffffffffffffffffffffffffffffffffffff1690602001909291905050506112ce565b6040518080602001828103825283818151815260200191508051906020019060200280838360005b8381101561039b578082015181840152602081019050610380565b505050509050019250505060405180910390f35b3480156103bb57600080fd5b506103c46114b7565b005b3480156103d257600080fd5b506103db611594565b005b3480156103e957600080fd5b5061041e600480360381019080803573ffffffffffffffffffffffffffffffffffffffff169060200190929190505050611696565b6040518082815260200191505060405180910390f35b34801561044057600080fd5b506104496116ae565b604051808273ffffffffffffffffffffffffffffffffffffffff1673ffffffffffffffffffffffffffffffffffffffff16815260200191505060405180910390f35b34801561049757600080fd5b506104b6600480360381019080803590602001909291905050506116d3565b604051808973ffffffffffffffffffffffffffffffffffffffff1673ffffffffffffffffffffffffffffffffffffffff168152602001806020018881526020018773ffffffffffffffffffffffffffffffffffffffff1673ffffffffffffffffffffffffffffffffffffffff1681526020018681526020018581526020018415151515815260200183151515158152602001828103825289818151815260200191508051906020019080838360005b83811015610580578082015181840152602081019050610565565b50505050905090810190601f1680156105ad5780820380516001836020036101000a031916815260200191505b50995050505050505050505060405180910390f35b3480156105ce57600080fd5b50610603600480360381019080803573ffffffffffffffffffffffffffffffffffffffff16906020019092919050505061181c565b6040518082815260200191505060405180910390f35b34801561062557600080fd5b5061065060048036038101908080359060200190929190803515159060200190929190505050611834565b005b34801561065e57600080fd5b5061067d60048036038101908080359060200190929190505050611fe3565b604051808273ffffffffffffffffffffffffffffffffffffffff1673ffffffffffffffffffffffffffffffffffffffff16815260200191505060405180910390f35b3480156106cb57600080fd5b506106ea60048036038101908080359060200190929190505050612016565b604051808273ffffffffffffffffffffffffffffffffffffffff1673ffffffffffffffffffffffffffffffffffffffff16815260200191505060405180910390f35b34801561073857600080fd5b50610741612054565b6040518082815260200191505060405180910390f35b34801561076357600080fd5b50610798600480360381019080803573ffffffffffffffffffffffffffffffffffffffff169060200190929190505050612061565b604051808373ffffffffffffffffffffffffffffffffffffffff1673ffffffffffffffffffffffffffffffffffffffff16815260200180602001828103825283818151815260200191508051906020019080838360005b8381101561080a5780820151818401526020810190506107ef565b50505050905090810190601f1680156108375780820380516001836020036101000a031916815260200191505b50935050505060405180910390f35b34801561085257600080fd5b506108716004803603810190808035906020019092919050505061213d565b604051808273ffffffffffffffffffffffffffffffffffffffff1673ffffffffffffffffffffffffffffffffffffffff16815260200191505060405180910390f35b3480156108bf57600080fd5b506108f4600480360381019080803573ffffffffffffffffffffffffffffffffffffffff169060200190929190505050612170565b6040518082815260200191505060405180910390f35b34801561091657600080fd5b50610943600480360381019080803590602001908201803590602001919091929391929390505050612271565b005b34801561095157600080fd5b50610986600480360381019080803573ffffffffffffffffffffffffffffffffffffffff1690602001909291905050506127d3565b005b60008060009054906101000a900473ffffffffffffffffffffffffffffffffffffffff1673ffffffffffffffffffffffffffffffffffffffff163373ffffffffffffffffffffffffffffffffffffffff161415156109e557600080fd5b8173ffffffffffffffffffffffffffffffffffffffff166370a08231306040518263ffffffff167c0100000000000000000000000000000000000000000000000000000000028152600401808273ffffffffffffffffffffffffffffffffffffffff1673ffffffffffffffffffffffffffffffffffffffff168152602001915050602060405180830381600087803b158015610a8057600080fd5b505af1158015610a94573d6000803e3d6000fd5b505050506040513d6020811015610aaa57600080fd5b81019080805190602001909291905050509050610b096000809054906101000a900473ffffffffffffffffffffffffffffffffffffffff16828473ffffffffffffffffffffffffffffffffffffffff1661283a9092919063ffffffff16565b5050565b6000600a60008373ffffffffffffffffffffffffffffffffffffffff1673ffffffffffffffffffffffffffffffffffffffff168152602001908152602001600020549050919050565b6060806000806000600460008773ffffffffffffffffffffffffffffffffffffffff1673ffffffffffffffffffffffffffffffffffffffff16815260200190815260200160002054111515610c13576040517f08c379a00000000000000000000000000000000000000000000000000000000081526004018080602001828103825260138152602001807f486173207a65726f206368616c6c656e6765730000000000000000000000000081525060200191505060405180910390fd5b600460008673ffffffffffffffffffffffffffffffffffffffff1673ffffffffffffffffffffffffffffffffffffffff16815260200190815260200160002054604051908082528060200260200182016040528015610c815781602001602082028038833980820191505090505b50925060009150600090505b600280549050811015610d34578473ffffffffffffffffffffffffffffffffffffffff166003600083815260200190815260200160002060009054906101000a900473ffffffffffffffffffffffffffffffffffffffff1673ffffffffffffffffffffffffffffffffffffffff161415610d2757808383815181101515610d1057fe5b906020019060200201818152505081806001019250505b8080600101915050610c8d565b829350505050919050565b6000806000662386f26fc100003410151515610de9576040517f08c379a00000000000000000000000000000000000000000000000000000000081526004018080602001828103825260218152602001807f48617320746f207374616b65206d6f7265207468616e20302e3031206574686581526020017f720000000000000000000000000000000000000000000000000000000000000081525060400191505060405180910390fd5b60008573ffffffffffffffffffffffffffffffffffffffff1614151515610e78576040517f08c379a00000000000000000000000000000000000000000000000000000000081526004018080602001828103825260128152602001807f48617320746f2062652061206d656e746f72000000000000000000000000000081525060200191505060405180910390fd5b600084111515610ef0576040517f08c379a00000000000000000000000000000000000000000000000000000000081526004018080602001828103825260208152602001807f54696d652068617320746f2062652067726561746572207468616e207a65726f81525060200191505060405180910390fd5b42915060016002610100604051908101604052803373ffffffffffffffffffffffffffffffffffffffff1681526020018a8a8080601f01602080910402602001604051908101604052809392919081815260200183838082843782019150505050505081526020013481526020018873ffffffffffffffffffffffffffffffffffffffff168152602001858152602001878152602001600015158152602001600015158152509080600181540180825580915050906001820390600052602060002090600702016000909192909190915060008201518160000160006101000a81548173ffffffffffffffffffffffffffffffffffffffff021916908373ffffffffffffffffffffffffffffffffffffffff1602179055506020820151816001019080519060200190611024929190612a89565b506040820151816002015560608201518160030160006101000a81548173ffffffffffffffffffffffffffffffffffffffff021916908373ffffffffffffffffffffffffffffffffffffffff1602179055506080820151816004015560a0820151816005015560c08201518160060160006101000a81548160ff02191690831515021790555060e08201518160060160016101000a81548160ff0219169083151502179055505050039050336003600083815260200190815260200160002060006101000a81548173ffffffffffffffffffffffffffffffffffffffff021916908373ffffffffffffffffffffffffffffffffffffffff160217905550600460003373ffffffffffffffffffffffffffffffffffffffff1673ffffffffffffffffffffffffffffffffffffffff16815260200190815260200160002060008154809291906001019190505550846005600083815260200190815260200160002060006101000a81548173ffffffffffffffffffffffffffffffffffffffff021916908373ffffffffffffffffffffffffffffffffffffffff160217905550600660008673ffffffffffffffffffffffffffffffffffffffff1673ffffffffffffffffffffffffffffffffffffffff168152602001908152602001600020600081548092919060010191905055508473ffffffffffffffffffffffffffffffffffffffff163373ffffffffffffffffffffffffffffffffffffffff16827f6addd12ef367db762e49b848def7ac42cd6db3bb17e4c40e4f6fa3c653d71e888a8a34888b604051808060200185815260200184815260200183815260200182810382528787828181526020019250808284378201915050965050505050505060405180910390a48092505050949350505050565b600a6020528060005260406000206000915090505481565b6060806000806000600660008773ffffffffffffffffffffffffffffffffffffffff1673ffffffffffffffffffffffffffffffffffffffff1681526020019081526020016000205411151561138b576040517f08c379a00000000000000000000000000000000000000000000000000000000081526004018080602001828103825260138152602001807f486173207a65726f206368616c6c656e6765730000000000000000000000000081525060200191505060405180910390fd5b600660008673ffffffffffffffffffffffffffffffffffffffff1673ffffffffffffffffffffffffffffffffffffffff168152602001908152602001600020546040519080825280602002602001820160405280156113f95781602001602082028038833980820191505090505b50925060009150600090505b6002805490508110156114ac578473ffffffffffffffffffffffffffffffffffffffff166005600083815260200190815260200160002060009054906101000a900473ffffffffffffffffffffffffffffffffffffffff1673ffffffffffffffffffffffffffffffffffffffff16141561149f5780838381518110151561148857fe5b906020019060200201818152505081806001019250505b8080600101915050611405565b829350505050919050565b6000339050600160009054906101000a900473ffffffffffffffffffffffffffffffffffffffff1673ffffffffffffffffffffffffffffffffffffffff166351cff8d9826040518263ffffffff167c0100000000000000000000000000000000000000000000000000000000028152600401808273ffffffffffffffffffffffffffffffffffffffff1673ffffffffffffffffffffffffffffffffffffffff168152602001915050600060405180830381600087803b15801561157957600080fd5b505af115801561158d573d6000803e3d6000fd5b5050505050565b6000809054906101000a900473ffffffffffffffffffffffffffffffffffffffff1673ffffffffffffffffffffffffffffffffffffffff163373ffffffffffffffffffffffffffffffffffffffff161415156115ef57600080fd5b6000809054906101000a900473ffffffffffffffffffffffffffffffffffffffff1673ffffffffffffffffffffffffffffffffffffffff167ff8df31144d9c2f0f6b59d69b8b98abd5459d07f2742c4df920b25aae33c6482060405160405180910390a260008060006101000a81548173ffffffffffffffffffffffffffffffffffffffff021916908373ffffffffffffffffffffffffffffffffffffffff160217905550565b60046020528060005260406000206000915090505481565b6000809054906101000a900473ffffffffffffffffffffffffffffffffffffffff1681565b6002818154811015156116e257fe5b90600052602060002090600702016000915090508060000160009054906101000a900473ffffffffffffffffffffffffffffffffffffffff1690806001018054600181600116156101000203166002900480601f0160208091040260200160405190810160405280929190818152602001828054600181600116156101000203166002900480156117b45780601f10611789576101008083540402835291602001916117b4565b820191906000526020600020905b81548152906001019060200180831161179757829003601f168201915b5050505050908060020154908060030160009054906101000a900473ffffffffffffffffffffffffffffffffffffffff16908060040154908060050154908060060160009054906101000a900460ff16908060060160019054906101000a900460ff16905088565b60066020528060005260406000206000915090505481565b600080600080600080600080600060028b81548110151561185157fe5b90600052602060002090600702019850600360008c815260200190815260200160002060009054906101000a900473ffffffffffffffffffffffffffffffffffffffff169750600560008c815260200190815260200160002060009054906101000a900473ffffffffffffffffffffffffffffffffffffffff169650600015158960060160019054906101000a900460ff16151514151561195a576040517f08c379a000000000000000000000000000000000000000000000000000000000815260040180806020018281038252601b8152602001807f4368616c6c656e676520616c7265616479207265736f6c7665642e000000000081525060200191505060405180910390fd5b62093a8089600501548a600401540101421015611a63573373ffffffffffffffffffffffffffffffffffffffff168960030160009054906101000a900473ffffffffffffffffffffffffffffffffffffffff1673ffffffffffffffffffffffffffffffffffffffff16141515611a5e576040517f08c379a000000000000000000000000000000000000000000000000000000000815260040180806020018281038252602a8152602001807f596f7520617265206e6f7420746865206d656e746f7220666f7220746869732081526020017f6368616c6c656e67652e0000000000000000000000000000000000000000000081525060400191505060405180910390fd5b611bab565b3373ffffffffffffffffffffffffffffffffffffffff168960000160009054906101000a900473ffffffffffffffffffffffffffffffffffffffff1673ffffffffffffffffffffffffffffffffffffffff161480611b1057503373ffffffffffffffffffffffffffffffffffffffff168960030160009054906101000a900473ffffffffffffffffffffffffffffffffffffffff1673ffffffffffffffffffffffffffffffffffffffff16145b1515611baa576040517f08c379a00000000000000000000000000000000000000000000000000000000081526004018080602001828103825260328152602001807f596f7520617265206e6f74207468652075736572206f72206d656e746f72206681526020017f6f722074686973206368616c6c656e67652e000000000000000000000000000081525060400191505060405180910390fd5b5b898960060160006101000a81548160ff02191690831515021790555060018960060160016101000a81548160ff021916908315150217905550611c0f6001611c0160648c6002015461292890919063ffffffff16565b61293e90919063ffffffff16565b95506000809054906101000a900473ffffffffffffffffffffffffffffffffffffffff1673ffffffffffffffffffffffffffffffffffffffff166108fc879081150290604051600060405180830381858888f19350505050158015611c78573d6000803e3d6000fd5b50611ca46004611c9660648c6002015461292890919063ffffffff16565b61293e90919063ffffffff16565b94508673ffffffffffffffffffffffffffffffffffffffff166108fc869081150290604051600060405180830381858888f19350505050158015611cec573d6000803e3d6000fd5b50611d1685611d08888c6002015461297690919063ffffffff16565b61297690919063ffffffff16565b93508915611ecd57839250600a60008973ffffffffffffffffffffffffffffffffffffffff1673ffffffffffffffffffffffffffffffffffffffff1681526020019081526020016000205491506000821115611ec857611dd26032611dc46064600a60008d73ffffffffffffffffffffffffffffffffffffffff1673ffffffffffffffffffffffffffffffffffffffff1681526020019081526020016000205461292890919063ffffffff16565b61293e90919063ffffffff16565b905066038d7ea4c6800082111515611de8578190505b80600a60008a73ffffffffffffffffffffffffffffffffffffffff1673ffffffffffffffffffffffffffffffffffffffff168152602001908152602001600020600082825403925050819055508773ffffffffffffffffffffffffffffffffffffffff167f0bfe400dd6d1d0d9446725bc045151fad50d6e8c93d65a20134b05ce6081f43e600a60008b73ffffffffffffffffffffffffffffffffffffffff1673ffffffffffffffffffffffffffffffffffffffff168152602001908152602001600020546040518082815260200191505060405180910390a280830192505b611f1b565b83600a60008a73ffffffffffffffffffffffffffffffffffffffff1673ffffffffffffffffffffffffffffffffffffffff168152602001908152602001600020600082825401925050819055505b6000831115611f6c578773ffffffffffffffffffffffffffffffffffffffff166108fc849081150290604051600060405180830381858888f19350505050158015611f6a573d6000803e3d6000fd5b505b8673ffffffffffffffffffffffffffffffffffffffff168873ffffffffffffffffffffffffffffffffffffffff168c7f7594a05a49b456a2fb34d3357cbaf2070ff1c0568ae96c6d9720e166d705fecb8d604051808215151515815260200191505060405180910390a45050505050505050505050565b60036020528060005260406000206000915054906101000a900473ffffffffffffffffffffffffffffffffffffffff1681565b60088181548110151561202557fe5b906000526020600020016000915054906101000a900473ffffffffffffffffffffffffffffffffffffffff1681565b6000600880549050905090565b60076020528060005260406000206000915090508060000160009054906101000a900473ffffffffffffffffffffffffffffffffffffffff1690806001018054600181600116156101000203166002900480601f0160208091040260200160405190810160405280929190818152602001828054600181600116156101000203166002900480156121335780601f1061210857610100808354040283529160200191612133565b820191906000526020600020905b81548152906001019060200180831161211657829003601f168201915b5050505050905082565b60056020528060005260406000206000915054906101000a900473ffffffffffffffffffffffffffffffffffffffff1681565b6000600160009054906101000a900473ffffffffffffffffffffffffffffffffffffffff1673ffffffffffffffffffffffffffffffffffffffff1663e3a9db1a836040518263ffffffff167c0100000000000000000000000000000000000000000000000000000000028152600401808273ffffffffffffffffffffffffffffffffffffffff1673ffffffffffffffffffffffffffffffffffffffff168152602001915050602060405180830381600087803b15801561222f57600080fd5b505af1158015612243573d6000803e3d6000fd5b505050506040513d602081101561225957600080fd5b81019080805190602001909291905050509050919050565b600282829050111515612312576040517f08c379a00000000000000000000000000000000000000000000000000000000081526004018080602001828103825260228152602001807f50726f766964652061206e616d65206c6f6e676572207468616e20322063686181526020017f727300000000000000000000000000000000000000000000000000000000000081525060400191505060405180910390fd5b6020828290501015156123b3576040517f08c379a00000000000000000000000000000000000000000000000000000000081526004018080602001828103825260248152602001807f50726f766964652061206e616d652073686f72746572207468616e203332206381526020017f686172730000000000000000000000000000000000000000000000000000000081525060400191505060405180910390fd5b600073ffffffffffffffffffffffffffffffffffffffff16600760003373ffffffffffffffffffffffffffffffffffffffff1673ffffffffffffffffffffffffffffffffffffffff16815260200190815260200160002060000160009054906101000a900473ffffffffffffffffffffffffffffffffffffffff1673ffffffffffffffffffffffffffffffffffffffff161415156124b9576040517f08c379a00000000000000000000000000000000000000000000000000000000081526004018080602001828103825260178152602001807f596f7520616c726561647920686176652061206e616d6500000000000000000081525060200191505060405180910390fd5b600073ffffffffffffffffffffffffffffffffffffffff166009838360405180838380828437820191505092505050908152602001604051809103902060009054906101000a900473ffffffffffffffffffffffffffffffffffffffff1673ffffffffffffffffffffffffffffffffffffffff161415156125a2576040517f08c379a00000000000000000000000000000000000000000000000000000000081526004018080602001828103825260128152602001807f4e616d6520616c72656164792074616b656e000000000000000000000000000081525060200191505060405180910390fd5b60408051908101604052803373ffffffffffffffffffffffffffffffffffffffff16815260200183838080601f016020809104026020016040519081016040528093929190818152602001838380828437820191505050505050815250600760003373ffffffffffffffffffffffffffffffffffffffff1673ffffffffffffffffffffffffffffffffffffffff16815260200190815260200160002060008201518160000160006101000a81548173ffffffffffffffffffffffffffffffffffffffff021916908373ffffffffffffffffffffffffffffffffffffffff16021790555060208201518160010190805190602001906126a1929190612a89565b50905050336009838360405180838380828437820191505092505050908152602001604051809103902060006101000a81548173ffffffffffffffffffffffffffffffffffffffff021916908373ffffffffffffffffffffffffffffffffffffffff16021790555060083390806001815401808255809150509060018203906000526020600020016000909192909190916101000a81548173ffffffffffffffffffffffffffffffffffffffff021916908373ffffffffffffffffffffffffffffffffffffffff1602179055505081816040518083838082843782019150509250505060405180910390203373ffffffffffffffffffffffffffffffffffffffff167f1baf823fe862656b4bf0b5b9ce919ed86d595c8429b1153e99a9f52d7386062e60405160405180910390a35050565b6000809054906101000a900473ffffffffffffffffffffffffffffffffffffffff1673ffffffffffffffffffffffffffffffffffffffff163373ffffffffffffffffffffffffffffffffffffffff1614151561282e57600080fd5b6128378161298f565b50565b8273ffffffffffffffffffffffffffffffffffffffff1663a9059cbb83836040518363ffffffff167c0100000000000000000000000000000000000000000000000000000000028152600401808373ffffffffffffffffffffffffffffffffffffffff1673ffffffffffffffffffffffffffffffffffffffff16815260200182815260200192505050602060405180830381600087803b1580156128dd57600080fd5b505af11580156128f1573d6000803e3d6000fd5b505050506040513d602081101561290757600080fd5b8101908080519060200190929190505050151561292357600080fd5b505050565b6000818381151561293557fe5b04905092915050565b6000808314156129515760009050612970565b818302905081838281151561296257fe5b0414151561296c57fe5b8090505b92915050565b600082821115151561298457fe5b818303905092915050565b600073ffffffffffffffffffffffffffffffffffffffff168173ffffffffffffffffffffffffffffffffffffffff16141515156129cb57600080fd5b8073ffffffffffffffffffffffffffffffffffffffff166000809054906101000a900473ffffffffffffffffffffffffffffffffffffffff1673ffffffffffffffffffffffffffffffffffffffff167f8be0079c531659141344cd1fd0a4f28419497f9722a3daafe3b4186f6b6457e060405160405180910390a3806000806101000a81548173ffffffffffffffffffffffffffffffffffffffff021916908373ffffffffffffffffffffffffffffffffffffffff16021790555050565b828054600181600116156101000203166002900490600052602060002090601f016020900481019282601f10612aca57805160ff1916838001178555612af8565b82800160010185558215612af8579182015b82811115612af7578251825591602001919060010190612adc565b5b509050612b059190612b09565b5090565b612b2b91905b80821115612b27576000816000905550600101612b0f565b5090565b905600a165627a7a723058203b59b2ca61eb1a8c7f5c7b1fe62ed4abbd7802dfc5f2a28075d35c6a0c23d31700296080604052336000806101000a81548173ffffffffffffffffffffffffffffffffffffffff021916908373ffffffffffffffffffffffffffffffffffffffff1602179055506107fe806100536000396000f300608060405260043610610078576000357c0100000000000000000000000000000000000000000000000000000000900463ffffffff16806351cff8d91461007d578063715018a6146100c05780638da5cb5b146100d7578063e3a9db1a1461012e578063f2fde38b14610185578063f340fa01146101c8575b600080fd5b34801561008957600080fd5b506100be600480360381019080803573ffffffffffffffffffffffffffffffffffffffff1690602001909291905050506101fe565b005b3480156100cc57600080fd5b506100d561039e565b005b3480156100e357600080fd5b506100ec6104a0565b604051808273ffffffffffffffffffffffffffffffffffffffff1673ffffffffffffffffffffffffffffffffffffffff16815260200191505060405180910390f35b34801561013a57600080fd5b5061016f600480360381019080803573ffffffffffffffffffffffffffffffffffffffff1690602001909291905050506104c5565b6040518082815260200191505060405180910390f35b34801561019157600080fd5b506101c6600480360381019080803573ffffffffffffffffffffffffffffffffffffffff16906020019092919050505061050e565b005b6101fc600480360381019080803573ffffffffffffffffffffffffffffffffffffffff169060200190929190505050610575565b005b60008060009054906101000a900473ffffffffffffffffffffffffffffffffffffffff1673ffffffffffffffffffffffffffffffffffffffff163373ffffffffffffffffffffffffffffffffffffffff1614151561025b57600080fd5b600160008373ffffffffffffffffffffffffffffffffffffffff1673ffffffffffffffffffffffffffffffffffffffff168152602001908152602001600020549050803073ffffffffffffffffffffffffffffffffffffffff1631101515156102c057fe5b6000600160008473ffffffffffffffffffffffffffffffffffffffff1673ffffffffffffffffffffffffffffffffffffffff168152602001908152602001600020819055508173ffffffffffffffffffffffffffffffffffffffff166108fc829081150290604051600060405180830381858888f1935050505015801561034b573d6000803e3d6000fd5b508173ffffffffffffffffffffffffffffffffffffffff167f7084f5476618d8e60b11ef0d7d3f06914655adb8793e28ff7f018d4c76d505d5826040518082815260200191505060405180910390a25050565b6000809054906101000a900473ffffffffffffffffffffffffffffffffffffffff1673ffffffffffffffffffffffffffffffffffffffff163373ffffffffffffffffffffffffffffffffffffffff161415156103f957600080fd5b6000809054906101000a900473ffffffffffffffffffffffffffffffffffffffff1673ffffffffffffffffffffffffffffffffffffffff167ff8df31144d9c2f0f6b59d69b8b98abd5459d07f2742c4df920b25aae33c6482060405160405180910390a260008060006101000a81548173ffffffffffffffffffffffffffffffffffffffff021916908373ffffffffffffffffffffffffffffffffffffffff160217905550565b6000809054906101000a900473ffffffffffffffffffffffffffffffffffffffff1681565b6000600160008373ffffffffffffffffffffffffffffffffffffffff1673ffffffffffffffffffffffffffffffffffffffff168152602001908152602001600020549050919050565b6000809054906101000a900473ffffffffffffffffffffffffffffffffffffffff1673ffffffffffffffffffffffffffffffffffffffff163373ffffffffffffffffffffffffffffffffffffffff1614151561056957600080fd5b610572816106bc565b50565b60008060009054906101000a900473ffffffffffffffffffffffffffffffffffffffff1673ffffffffffffffffffffffffffffffffffffffff163373ffffffffffffffffffffffffffffffffffffffff161415156105d257600080fd5b34905061062781600160008573ffffffffffffffffffffffffffffffffffffffff1673ffffffffffffffffffffffffffffffffffffffff168152602001908152602001600020546107b690919063ffffffff16565b600160008473ffffffffffffffffffffffffffffffffffffffff1673ffffffffffffffffffffffffffffffffffffffff168152602001908152602001600020819055508173ffffffffffffffffffffffffffffffffffffffff167f2da466a7b24304f47e87fa2e1e5a81b9831ce54fec19055ce277ca2f39ba42c4826040518082815260200191505060405180910390a25050565b600073ffffffffffffffffffffffffffffffffffffffff168173ffffffffffffffffffffffffffffffffffffffff16141515156106f857600080fd5b8073ffffffffffffffffffffffffffffffffffffffff166000809054906101000a900473ffffffffffffffffffffffffffffffffffffffff1673ffffffffffffffffffffffffffffffffffffffff167f8be0079c531659141344cd1fd0a4f28419497f9722a3daafe3b4186f6b6457e060405160405180910390a3806000806101000a81548173ffffffffffffffffffffffffffffffffffffffff021916908373ffffffffffffffffffffffffffffffffffffffff16021790555050565b600081830190508281101515156107c957fe5b809050929150505600a165627a7a723058208a99ed6403a6f0d3d3c993e80e3902332535cfdbef58d01a85e177fa308464750029",
  "source": "/// @title CoinPledge\n/// @author Igor Yalovoy\n/// @notice Reach your goals and have fun with friends\n/// @dev All function calls are currently implement without side effects\n/// @web: ylv.io\n/// @email: to@ylv.io\n/// @gitHub: https://github.com/ylv-io/coinpledge/tree/master\n/// @twitter: https://twitter.com/ylv_io\n\n// Proofs:\n// Public commitment as a motivator for weight loss (https://onlinelibrary.wiley.com/doi/pdf/10.1002/mar.20316)\n\n\npragma solidity ^0.4.17;\n\nimport \"openzeppelin-solidity/contracts/math/SafeMath.sol\";\nimport \"openzeppelin-solidity/contracts/ownership/Ownable.sol\";\nimport \"openzeppelin-solidity/contracts/payment/PullPayment.sol\";\nimport \"openzeppelin-solidity/contracts/ownership/CanReclaimToken.sol\";\n\ncontract CoinPledge is Ownable, CanReclaimToken, PullPayment {\n\n  using SafeMath for uint256;\n\n  uint constant daysToResolve = 7 days;\n  uint constant bonusPercentage = 50;\n  uint constant feePercentage = 1;\n  uint constant mentorPercentage = 4;\n  uint constant minBonus = 1 finney;\n\n  struct Challenge {\n    address user;\n    string name;\n    uint value;\n    address mentor;\n    uint startDate;\n    uint time;\n\n    bool successed;\n    bool resolved;\n  }\n\n  struct User {\n    address addr;\n    string name;\n  }\n\n  // Events\n  event NewChallenge(uint indexed challengeId, address indexed user, string name, uint value, address indexed mentor, uint startDate, uint time);\n  event ChallengeResolved(uint indexed challengeId, address indexed user, address indexed mentor, bool decision);\n  event BonusFundChanged(address indexed user, uint value);\n  event NewUsername(address indexed addr, string indexed name);\n\n  /// @notice All Challenges\n  Challenge[] public challenges;\n\n  mapping(uint => address) public challengeToUser;\n  mapping(address => uint) public userToChallengeCount;\n\n  mapping(uint => address) public challengeToMentor;\n  mapping(address => uint) public mentorToChallengeCount;\n\n  /// @notice All Users\n  mapping(address => User) public users;\n  address[] public allUsers;\n  mapping(string => address) private usernameToAddress;\n  \n  /// @notice User's bonuses\n  mapping(address => uint) public bonusFund;\n\n  /// @notice Get Bonus Fund For User\n  function getBonusFund(address user)\n  external\n  view\n  returns(uint) {\n    return bonusFund[user];\n  }\n\n\n  /// @notice Get Users Lenght\n  function getUsersCount()\n  external\n  view\n  returns(uint) {\n    return allUsers.length;\n  }\n\n\n  /// @notice Get Challenges For User\n  function getChallengesForUser(address user)\n  external\n  view\n  returns(uint[]) {\n    require(userToChallengeCount[user] > 0, \"Has zero challenges\");\n\n    uint[] memory result = new uint[](userToChallengeCount[user]);\n    uint counter = 0;\n    for (uint i = 0; i < challenges.length; i++) {\n      if (challengeToUser[i] == user)\n      {\n        result[counter] = i;\n        counter++;\n      }\n    }\n    return result;\n  }\n\n  /// @notice Get Challenges For Mentor\n  function getChallengesForMentor(address mentor)\n  external\n  view\n  returns(uint[]) {\n    require(mentorToChallengeCount[mentor] > 0, \"Has zero challenges\");\n\n    uint[] memory result = new uint[](mentorToChallengeCount[mentor]);\n    uint counter = 0;\n    for (uint i = 0; i < challenges.length; i++) {\n      if (challengeToMentor[i] == mentor)\n      {\n        result[counter] = i;\n        counter++;\n      }\n    }\n    return result;\n  }\n\n  /// @notice Set Username\n\n  function setUsername(string name)\n  external {\n    require(bytes(name).length > 2, \"Provide a name longer than 2 chars\");\n    require(bytes(name).length < 32, \"Provide a name shorter than 32 chars\");\n    require(users[msg.sender].addr == address(0x0), \"You already have a name\");\n    require(usernameToAddress[name] == address(0x0), \"Name already taken\");\n\n    users[msg.sender] = User(msg.sender, name);\n    usernameToAddress[name] = msg.sender;\n    allUsers.push(msg.sender);\n\n    emit NewUsername(msg.sender, name);\n  }\n\n  /// @notice Creates Challenge\n  function createChallenge(string name, address mentor, uint time)\n  external\n  payable\n  returns (uint retId) {\n    require(msg.value >= 0.01 ether, \"Has to stake more than 0.01 ether\");\n    require(mentor != 0x0, \"Has to be a mentor\");\n    require(time > 0, \"Time has to be greater than zero\");\n\n    uint startDate = block.timestamp;\n    uint id = challenges.push(Challenge(msg.sender, name, msg.value, mentor, startDate, time, false, false)) - 1;\n\n    challengeToUser[id] = msg.sender;\n    userToChallengeCount[msg.sender]++;\n\n    challengeToMentor[id] = mentor;\n    mentorToChallengeCount[mentor]++;\n\n    emit NewChallenge(id, msg.sender, name, msg.value, mentor, startDate, time);\n\n    return id;\n  }\n\n  /// @notice Resolves Challenge\n  function resolveChallenge(uint challengeId, bool decision)\n  external {\n    Challenge storage challenge = challenges[challengeId];\n    address user = challengeToUser[challengeId];\n    address mentor = challengeToMentor[challengeId];\n\n    require(challenge.resolved == false, \"Challenge already resolved.\");\n\n    // if more time passed than endDate + daysToResolve, then user can resolve himself\n    if(block.timestamp < (challenge.startDate + challenge.time + daysToResolve))\n      require(challenge.mentor == msg.sender, \"You are not the mentor for this challenge.\");\n    else require((challenge.user == msg.sender) || (challenge.mentor == msg.sender), \"You are not the user or mentor for this challenge.\");\n\n    // write decision\n    challenge.successed = decision;\n    challenge.resolved = true;\n\n    // pay service fee\n    uint serviceFee = challenge.value.div(100).mul(feePercentage);\n    owner.transfer(serviceFee);\n\n    // pay mentor fee\n    uint mentorFee = challenge.value.div(100).mul(mentorPercentage);\n    mentor.transfer(mentorFee);\n\n    uint remainingValue = challenge.value.sub(serviceFee).sub(mentorFee);\n\n    uint valueToPay;\n\n    if(decision) {\n      // value to pay back to user\n      valueToPay = remainingValue;\n      // credit bouns if any\n      uint currentBonus = bonusFund[user];\n      if(currentBonus > 0)\n      {\n        uint bonusValue = bonusFund[user].div(100).mul(bonusPercentage);\n        if(currentBonus <= minBonus)\n          bonusValue = currentBonus;\n        bonusFund[user] -= bonusValue;\n        emit BonusFundChanged(user, bonusFund[user]);\n\n        valueToPay += bonusValue;\n      }\n    }\n    else \n        // if failed to achieve goal, put money to bonus fund\n        bonusFund[user] += remainingValue;\n\n    // pay back to the challenger\n    if(valueToPay > 0)\n        user.transfer(valueToPay);\n\n    emit ChallengeResolved(challengeId, user, mentor, decision);\n  }\n\n}",
  "sourcePath": "/Users/iYalovoy/Dropbox (Personal)/Development/coinpledge/contracts/CoinPledge.sol",
  "compiler": {
    "name": "solc",
    "version": "0.4.24+commit.e67f0147.Emscripten.clang"
  },
  "schemaVersion": "2.0.1",
  "updatedAt": "2018-10-24T18:59:37.142Z"
}