{
  "contractName": "CoinPledge",
  "abi": [
    {
      "constant": false,
      "inputs": [
        {
          "name": "token",
          "type": "address"
        }
      ],
      "name": "reclaimToken",
      "outputs": [],
      "payable": false,
      "stateMutability": "nonpayable",
      "type": "function"
    },
    {
      "constant": true,
      "inputs": [
        {
          "name": "",
          "type": "address"
        }
      ],
      "name": "bonusFund",
      "outputs": [
        {
          "name": "",
          "type": "uint256"
        }
      ],
      "payable": false,
      "stateMutability": "view",
      "type": "function"
    },
    {
      "constant": false,
      "inputs": [],
      "name": "withdrawPayments",
      "outputs": [],
      "payable": false,
      "stateMutability": "nonpayable",
      "type": "function"
    },
    {
      "constant": false,
      "inputs": [],
      "name": "renounceOwnership",
      "outputs": [],
      "payable": false,
      "stateMutability": "nonpayable",
      "type": "function"
    },
    {
      "constant": true,
      "inputs": [
        {
          "name": "",
          "type": "address"
        }
      ],
      "name": "userToChallengeCount",
      "outputs": [
        {
          "name": "",
          "type": "uint256"
        }
      ],
      "payable": false,
      "stateMutability": "view",
      "type": "function"
    },
    {
      "constant": true,
      "inputs": [],
      "name": "owner",
      "outputs": [
        {
          "name": "",
          "type": "address"
        }
      ],
      "payable": false,
      "stateMutability": "view",
      "type": "function"
    },
    {
      "constant": true,
      "inputs": [
        {
          "name": "",
          "type": "uint256"
        }
      ],
      "name": "challenges",
      "outputs": [
        {
          "name": "user",
          "type": "address"
        },
        {
          "name": "name",
          "type": "string"
        },
        {
          "name": "value",
          "type": "uint256"
        },
        {
          "name": "mentor",
          "type": "address"
        },
        {
          "name": "startDate",
          "type": "uint256"
        },
        {
          "name": "time",
          "type": "uint256"
        },
        {
          "name": "successed",
          "type": "bool"
        },
        {
          "name": "resolved",
          "type": "bool"
        }
      ],
      "payable": false,
      "stateMutability": "view",
      "type": "function"
    },
    {
      "constant": true,
      "inputs": [
        {
          "name": "",
          "type": "address"
        }
      ],
      "name": "mentorToChallengeCount",
      "outputs": [
        {
          "name": "",
          "type": "uint256"
        }
      ],
      "payable": false,
      "stateMutability": "view",
      "type": "function"
    },
    {
      "constant": true,
      "inputs": [
        {
          "name": "",
          "type": "uint256"
        }
      ],
      "name": "challengeToUser",
      "outputs": [
        {
          "name": "",
          "type": "address"
        }
      ],
      "payable": false,
      "stateMutability": "view",
      "type": "function"
    },
    {
      "constant": true,
      "inputs": [
        {
          "name": "",
          "type": "uint256"
        }
      ],
      "name": "challengeToMentor",
      "outputs": [
        {
          "name": "",
          "type": "address"
        }
      ],
      "payable": false,
      "stateMutability": "view",
      "type": "function"
    },
    {
      "constant": true,
      "inputs": [
        {
          "name": "_dest",
          "type": "address"
        }
      ],
      "name": "payments",
      "outputs": [
        {
          "name": "",
          "type": "uint256"
        }
      ],
      "payable": false,
      "stateMutability": "view",
      "type": "function"
    },
    {
      "constant": false,
      "inputs": [
        {
          "name": "_newOwner",
          "type": "address"
        }
      ],
      "name": "transferOwnership",
      "outputs": [],
      "payable": false,
      "stateMutability": "nonpayable",
      "type": "function"
    },
    {
      "anonymous": false,
      "inputs": [
        {
          "indexed": true,
          "name": "challengeId",
          "type": "uint256"
        },
        {
          "indexed": true,
          "name": "user",
          "type": "address"
        },
        {
          "indexed": false,
          "name": "name",
          "type": "string"
        },
        {
          "indexed": false,
          "name": "value",
          "type": "uint256"
        },
        {
          "indexed": true,
          "name": "mentor",
          "type": "address"
        },
        {
          "indexed": false,
          "name": "startDate",
          "type": "uint256"
        },
        {
          "indexed": false,
          "name": "time",
          "type": "uint256"
        }
      ],
      "name": "NewChallenge",
      "type": "event"
    },
    {
      "anonymous": false,
      "inputs": [
        {
          "indexed": true,
          "name": "challengeId",
          "type": "uint256"
        },
        {
          "indexed": true,
          "name": "user",
          "type": "address"
        },
        {
          "indexed": true,
          "name": "mentor",
          "type": "address"
        },
        {
          "indexed": false,
          "name": "decision",
          "type": "bool"
        }
      ],
      "name": "ChallengeResolved",
      "type": "event"
    },
    {
      "anonymous": false,
      "inputs": [
        {
          "indexed": true,
          "name": "user",
          "type": "address"
        },
        {
          "indexed": false,
          "name": "value",
          "type": "uint256"
        }
      ],
      "name": "BonusFundChanged",
      "type": "event"
    },
    {
      "anonymous": false,
      "inputs": [
        {
          "indexed": true,
          "name": "previousOwner",
          "type": "address"
        }
      ],
      "name": "OwnershipRenounced",
      "type": "event"
    },
    {
      "anonymous": false,
      "inputs": [
        {
          "indexed": true,
          "name": "previousOwner",
          "type": "address"
        },
        {
          "indexed": true,
          "name": "newOwner",
          "type": "address"
        }
      ],
      "name": "OwnershipTransferred",
      "type": "event"
    },
    {
      "constant": true,
      "inputs": [
        {
          "name": "user",
          "type": "address"
        }
      ],
      "name": "getBonusFund",
      "outputs": [
        {
          "name": "",
          "type": "uint256"
        }
      ],
      "payable": false,
      "stateMutability": "view",
      "type": "function"
    },
    {
      "constant": true,
      "inputs": [
        {
          "name": "user",
          "type": "address"
        }
      ],
      "name": "getChallengesForUser",
      "outputs": [
        {
          "name": "",
          "type": "uint256[]"
        }
      ],
      "payable": false,
      "stateMutability": "view",
      "type": "function"
    },
    {
      "constant": true,
      "inputs": [
        {
          "name": "mentor",
          "type": "address"
        }
      ],
      "name": "getChallengesForMentor",
      "outputs": [
        {
          "name": "",
          "type": "uint256[]"
        }
      ],
      "payable": false,
      "stateMutability": "view",
      "type": "function"
    },
    {
      "constant": false,
      "inputs": [
        {
          "name": "name",
          "type": "string"
        },
        {
          "name": "mentor",
          "type": "address"
        },
        {
          "name": "time",
          "type": "uint256"
        }
      ],
      "name": "createChallenge",
      "outputs": [
        {
          "name": "retId",
          "type": "uint256"
        }
      ],
      "payable": true,
      "stateMutability": "payable",
      "type": "function"
    },
    {
      "constant": false,
      "inputs": [
        {
          "name": "challengeId",
          "type": "uint256"
        },
        {
          "name": "decision",
          "type": "bool"
        }
      ],
      "name": "resolveChallenge",
      "outputs": [],
      "payable": false,
      "stateMutability": "nonpayable",
      "type": "function"
    }
  ],
  "bytecode": "0x6080604052336000806101000a81548173ffffffffffffffffffffffffffffffffffffffff021916908373ffffffffffffffffffffffffffffffffffffffff16021790555061004c6100ae565b604051809103906000f080158015610068573d6000803e3d6000fd5b50600160006101000a81548173ffffffffffffffffffffffffffffffffffffffff021916908373ffffffffffffffffffffffffffffffffffffffff1602179055506100be565b6040516108518061235683390190565b612289806100cd6000396000f3006080604052600436106100f1576000357c0100000000000000000000000000000000000000000000000000000000900463ffffffff16806317ffc320146100f65780631906a3d61461013957806329fc550f146101905780633a1659821461022857806341c9028c146102945780634af79ba2146102eb5780636103d70b14610383578063715018a61461039a57806386ddf4dd146103b15780638da5cb5b146104085780638f1d37761461045f5780639077c6761461059657806394a754e0146105ed5780639c1bea8c14610626578063acc6060614610693578063e2982c2114610700578063f2fde38b14610757575b600080fd5b34801561010257600080fd5b50610137600480360381019080803573ffffffffffffffffffffffffffffffffffffffff16906020019092919050505061079a565b005b34801561014557600080fd5b5061017a600480360381019080803573ffffffffffffffffffffffffffffffffffffffff16906020019092919050505061091f565b6040518082815260200191505060405180910390f35b34801561019c57600080fd5b506101d1600480360381019080803573ffffffffffffffffffffffffffffffffffffffff169060200190929190505050610968565b6040518080602001828103825283818151815260200191508051906020019060200280838360005b838110156102145780820151818401526020810190506101f9565b505050509050019250505060405180910390f35b61027e600480360381019080803590602001908201803590602001919091929391929390803573ffffffffffffffffffffffffffffffffffffffff16906020019092919080359060200190929190505050610b51565b6040518082815260200191505060405180910390f35b3480156102a057600080fd5b506102d5600480360381019080803573ffffffffffffffffffffffffffffffffffffffff1690602001909291905050506110c8565b6040518082815260200191505060405180910390f35b3480156102f757600080fd5b5061032c600480360381019080803573ffffffffffffffffffffffffffffffffffffffff1690602001909291905050506110e0565b6040518080602001828103825283818151815260200191508051906020019060200280838360005b8381101561036f578082015181840152602081019050610354565b505050509050019250505060405180910390f35b34801561038f57600080fd5b506103986112c9565b005b3480156103a657600080fd5b506103af6113a6565b005b3480156103bd57600080fd5b506103f2600480360381019080803573ffffffffffffffffffffffffffffffffffffffff1690602001909291905050506114a8565b6040518082815260200191505060405180910390f35b34801561041457600080fd5b5061041d6114c0565b604051808273ffffffffffffffffffffffffffffffffffffffff1673ffffffffffffffffffffffffffffffffffffffff16815260200191505060405180910390f35b34801561046b57600080fd5b5061048a600480360381019080803590602001909291905050506114e5565b604051808973ffffffffffffffffffffffffffffffffffffffff1673ffffffffffffffffffffffffffffffffffffffff168152602001806020018881526020018773ffffffffffffffffffffffffffffffffffffffff1673ffffffffffffffffffffffffffffffffffffffff1681526020018681526020018581526020018415151515815260200183151515158152602001828103825289818151815260200191508051906020019080838360005b83811015610554578082015181840152602081019050610539565b50505050905090810190601f1680156105815780820380516001836020036101000a031916815260200191505b50995050505050505050505060405180910390f35b3480156105a257600080fd5b506105d7600480360381019080803573ffffffffffffffffffffffffffffffffffffffff16906020019092919050505061162e565b6040518082815260200191505060405180910390f35b3480156105f957600080fd5b5061062460048036038101908080359060200190929190803515159060200190929190505050611646565b005b34801561063257600080fd5b5061065160048036038101908080359060200190929190505050611d9b565b604051808273ffffffffffffffffffffffffffffffffffffffff1673ffffffffffffffffffffffffffffffffffffffff16815260200191505060405180910390f35b34801561069f57600080fd5b506106be60048036038101908080359060200190929190505050611dce565b604051808273ffffffffffffffffffffffffffffffffffffffff1673ffffffffffffffffffffffffffffffffffffffff16815260200191505060405180910390f35b34801561070c57600080fd5b50610741600480360381019080803573ffffffffffffffffffffffffffffffffffffffff169060200190929190505050611e01565b6040518082815260200191505060405180910390f35b34801561076357600080fd5b50610798600480360381019080803573ffffffffffffffffffffffffffffffffffffffff169060200190929190505050611f02565b005b60008060009054906101000a900473ffffffffffffffffffffffffffffffffffffffff1673ffffffffffffffffffffffffffffffffffffffff163373ffffffffffffffffffffffffffffffffffffffff161415156107f757600080fd5b8173ffffffffffffffffffffffffffffffffffffffff166370a08231306040518263ffffffff167c0100000000000000000000000000000000000000000000000000000000028152600401808273ffffffffffffffffffffffffffffffffffffffff1673ffffffffffffffffffffffffffffffffffffffff168152602001915050602060405180830381600087803b15801561089257600080fd5b505af11580156108a6573d6000803e3d6000fd5b505050506040513d60208110156108bc57600080fd5b8101908080519060200190929190505050905061091b6000809054906101000a900473ffffffffffffffffffffffffffffffffffffffff16828473ffffffffffffffffffffffffffffffffffffffff16611f699092919063ffffffff16565b5050565b6000600760008373ffffffffffffffffffffffffffffffffffffffff1673ffffffffffffffffffffffffffffffffffffffff168152602001908152602001600020549050919050565b6060806000806000600460008773ffffffffffffffffffffffffffffffffffffffff1673ffffffffffffffffffffffffffffffffffffffff16815260200190815260200160002054111515610a25576040517f08c379a00000000000000000000000000000000000000000000000000000000081526004018080602001828103825260138152602001807f486173207a65726f206368616c6c656e6765730000000000000000000000000081525060200191505060405180910390fd5b600460008673ffffffffffffffffffffffffffffffffffffffff1673ffffffffffffffffffffffffffffffffffffffff16815260200190815260200160002054604051908082528060200260200182016040528015610a935781602001602082028038833980820191505090505b50925060009150600090505b600280549050811015610b46578473ffffffffffffffffffffffffffffffffffffffff166003600083815260200190815260200160002060009054906101000a900473ffffffffffffffffffffffffffffffffffffffff1673ffffffffffffffffffffffffffffffffffffffff161415610b3957808383815181101515610b2257fe5b906020019060200201818152505081806001019250505b8080600101915050610a9f565b829350505050919050565b6000806000662386f26fc100003410151515610bfb576040517f08c379a00000000000000000000000000000000000000000000000000000000081526004018080602001828103825260218152602001807f48617320746f207374616b65206d6f7265207468616e20302e3031206574686581526020017f720000000000000000000000000000000000000000000000000000000000000081525060400191505060405180910390fd5b60008573ffffffffffffffffffffffffffffffffffffffff1614151515610c8a576040517f08c379a00000000000000000000000000000000000000000000000000000000081526004018080602001828103825260128152602001807f48617320746f2062652061206d656e746f72000000000000000000000000000081525060200191505060405180910390fd5b600084111515610d02576040517f08c379a00000000000000000000000000000000000000000000000000000000081526004018080602001828103825260208152602001807f54696d652068617320746f2062652067726561746572207468616e207a65726f81525060200191505060405180910390fd5b42915060016002610100604051908101604052803373ffffffffffffffffffffffffffffffffffffffff1681526020018a8a8080601f01602080910402602001604051908101604052809392919081815260200183838082843782019150505050505081526020013481526020018873ffffffffffffffffffffffffffffffffffffffff168152602001858152602001878152602001600015158152602001600015158152509080600181540180825580915050906001820390600052602060002090600702016000909192909190915060008201518160000160006101000a81548173ffffffffffffffffffffffffffffffffffffffff021916908373ffffffffffffffffffffffffffffffffffffffff1602179055506020820151816001019080519060200190610e369291906121b8565b506040820151816002015560608201518160030160006101000a81548173ffffffffffffffffffffffffffffffffffffffff021916908373ffffffffffffffffffffffffffffffffffffffff1602179055506080820151816004015560a0820151816005015560c08201518160060160006101000a81548160ff02191690831515021790555060e08201518160060160016101000a81548160ff0219169083151502179055505050039050336003600083815260200190815260200160002060006101000a81548173ffffffffffffffffffffffffffffffffffffffff021916908373ffffffffffffffffffffffffffffffffffffffff160217905550600460003373ffffffffffffffffffffffffffffffffffffffff1673ffffffffffffffffffffffffffffffffffffffff16815260200190815260200160002060008154809291906001019190505550846005600083815260200190815260200160002060006101000a81548173ffffffffffffffffffffffffffffffffffffffff021916908373ffffffffffffffffffffffffffffffffffffffff160217905550600660008673ffffffffffffffffffffffffffffffffffffffff1673ffffffffffffffffffffffffffffffffffffffff168152602001908152602001600020600081548092919060010191905055508473ffffffffffffffffffffffffffffffffffffffff163373ffffffffffffffffffffffffffffffffffffffff16827f6addd12ef367db762e49b848def7ac42cd6db3bb17e4c40e4f6fa3c653d71e888a8a34888b604051808060200185815260200184815260200183815260200182810382528787828181526020019250808284378201915050965050505050505060405180910390a48092505050949350505050565b60076020528060005260406000206000915090505481565b6060806000806000600660008773ffffffffffffffffffffffffffffffffffffffff1673ffffffffffffffffffffffffffffffffffffffff1681526020019081526020016000205411151561119d576040517f08c379a000000000000000000000000000000000000000000000000000000000815260040180806020018281038252600e8152602001807f486173207a65726f20636173657300000000000000000000000000000000000081525060200191505060405180910390fd5b600660008673ffffffffffffffffffffffffffffffffffffffff1673ffffffffffffffffffffffffffffffffffffffff1681526020019081526020016000205460405190808252806020026020018201604052801561120b5781602001602082028038833980820191505090505b50925060009150600090505b6002805490508110156112be578473ffffffffffffffffffffffffffffffffffffffff166005600083815260200190815260200160002060009054906101000a900473ffffffffffffffffffffffffffffffffffffffff1673ffffffffffffffffffffffffffffffffffffffff1614156112b15780838381518110151561129a57fe5b906020019060200201818152505081806001019250505b8080600101915050611217565b829350505050919050565b6000339050600160009054906101000a900473ffffffffffffffffffffffffffffffffffffffff1673ffffffffffffffffffffffffffffffffffffffff166351cff8d9826040518263ffffffff167c0100000000000000000000000000000000000000000000000000000000028152600401808273ffffffffffffffffffffffffffffffffffffffff1673ffffffffffffffffffffffffffffffffffffffff168152602001915050600060405180830381600087803b15801561138b57600080fd5b505af115801561139f573d6000803e3d6000fd5b5050505050565b6000809054906101000a900473ffffffffffffffffffffffffffffffffffffffff1673ffffffffffffffffffffffffffffffffffffffff163373ffffffffffffffffffffffffffffffffffffffff1614151561140157600080fd5b6000809054906101000a900473ffffffffffffffffffffffffffffffffffffffff1673ffffffffffffffffffffffffffffffffffffffff167ff8df31144d9c2f0f6b59d69b8b98abd5459d07f2742c4df920b25aae33c6482060405160405180910390a260008060006101000a81548173ffffffffffffffffffffffffffffffffffffffff021916908373ffffffffffffffffffffffffffffffffffffffff160217905550565b60046020528060005260406000206000915090505481565b6000809054906101000a900473ffffffffffffffffffffffffffffffffffffffff1681565b6002818154811015156114f457fe5b90600052602060002090600702016000915090508060000160009054906101000a900473ffffffffffffffffffffffffffffffffffffffff1690806001018054600181600116156101000203166002900480601f0160208091040260200160405190810160405280929190818152602001828054600181600116156101000203166002900480156115c65780601f1061159b576101008083540402835291602001916115c6565b820191906000526020600020905b8154815290600101906020018083116115a957829003601f168201915b5050505050908060020154908060030160009054906101000a900473ffffffffffffffffffffffffffffffffffffffff16908060040154908060050154908060060160009054906101000a900460ff16908060060160019054906101000a900460ff16905088565b60066020528060005260406000206000915090505481565b600080600080600080600080600060028b81548110151561166357fe5b90600052602060002090600702019850600360008c815260200190815260200160002060009054906101000a900473ffffffffffffffffffffffffffffffffffffffff169750600560008c815260200190815260200160002060009054906101000a900473ffffffffffffffffffffffffffffffffffffffff169650600015158960060160019054906101000a900460ff16151514151561176c576040517f08c379a000000000000000000000000000000000000000000000000000000000815260040180806020018281038252601b8152602001807f4368616c6c656e676520616c7265616479207265736f6c7665642e000000000081525060200191505060405180910390fd5b62093a8089600501548a600401540101421015611875573373ffffffffffffffffffffffffffffffffffffffff168960030160009054906101000a900473ffffffffffffffffffffffffffffffffffffffff1673ffffffffffffffffffffffffffffffffffffffff16141515611870576040517f08c379a000000000000000000000000000000000000000000000000000000000815260040180806020018281038252602a8152602001807f596f7520617265206e6f7420746865206d656e746f7220666f7220746869732081526020017f6368616c6c656e67652e0000000000000000000000000000000000000000000081525060400191505060405180910390fd5b611963565b3373ffffffffffffffffffffffffffffffffffffffff168960000160009054906101000a900473ffffffffffffffffffffffffffffffffffffffff1673ffffffffffffffffffffffffffffffffffffffff16141515611962576040517f08c379a00000000000000000000000000000000000000000000000000000000081526004018080602001828103825260288152602001807f596f7520617265206e6f7420746865207573657220666f72207468697320636881526020017f616c6c656e67652e00000000000000000000000000000000000000000000000081525060400191505060405180910390fd5b5b898960060160006101000a81548160ff02191690831515021790555060018960060160016101000a81548160ff0219169083151502179055506119c760016119b960648c6002015461205790919063ffffffff16565b61206d90919063ffffffff16565b95506000809054906101000a900473ffffffffffffffffffffffffffffffffffffffff1673ffffffffffffffffffffffffffffffffffffffff166108fc879081150290604051600060405180830381858888f19350505050158015611a30573d6000803e3d6000fd5b50611a5c6004611a4e60648c6002015461205790919063ffffffff16565b61206d90919063ffffffff16565b94508673ffffffffffffffffffffffffffffffffffffffff166108fc869081150290604051600060405180830381858888f19350505050158015611aa4573d6000803e3d6000fd5b50611ace85611ac0888c600201546120a590919063ffffffff16565b6120a590919063ffffffff16565b93508915611c8557839250600760008973ffffffffffffffffffffffffffffffffffffffff1673ffffffffffffffffffffffffffffffffffffffff1681526020019081526020016000205491506000821115611c8057611b8a6032611b7c6064600760008d73ffffffffffffffffffffffffffffffffffffffff1673ffffffffffffffffffffffffffffffffffffffff1681526020019081526020016000205461205790919063ffffffff16565b61206d90919063ffffffff16565b905066038d7ea4c6800082111515611ba0578190505b80600760008a73ffffffffffffffffffffffffffffffffffffffff1673ffffffffffffffffffffffffffffffffffffffff168152602001908152602001600020600082825403925050819055508773ffffffffffffffffffffffffffffffffffffffff167f0bfe400dd6d1d0d9446725bc045151fad50d6e8c93d65a20134b05ce6081f43e600760008b73ffffffffffffffffffffffffffffffffffffffff1673ffffffffffffffffffffffffffffffffffffffff168152602001908152602001600020546040518082815260200191505060405180910390a280830192505b611cd3565b83600760008a73ffffffffffffffffffffffffffffffffffffffff1673ffffffffffffffffffffffffffffffffffffffff168152602001908152602001600020600082825401925050819055505b6000831115611d24578773ffffffffffffffffffffffffffffffffffffffff166108fc849081150290604051600060405180830381858888f19350505050158015611d22573d6000803e3d6000fd5b505b8673ffffffffffffffffffffffffffffffffffffffff168873ffffffffffffffffffffffffffffffffffffffff168c7f7594a05a49b456a2fb34d3357cbaf2070ff1c0568ae96c6d9720e166d705fecb8d604051808215151515815260200191505060405180910390a45050505050505050505050565b60036020528060005260406000206000915054906101000a900473ffffffffffffffffffffffffffffffffffffffff1681565b60056020528060005260406000206000915054906101000a900473ffffffffffffffffffffffffffffffffffffffff1681565b6000600160009054906101000a900473ffffffffffffffffffffffffffffffffffffffff1673ffffffffffffffffffffffffffffffffffffffff1663e3a9db1a836040518263ffffffff167c0100000000000000000000000000000000000000000000000000000000028152600401808273ffffffffffffffffffffffffffffffffffffffff1673ffffffffffffffffffffffffffffffffffffffff168152602001915050602060405180830381600087803b158015611ec057600080fd5b505af1158015611ed4573d6000803e3d6000fd5b505050506040513d6020811015611eea57600080fd5b81019080805190602001909291905050509050919050565b6000809054906101000a900473ffffffffffffffffffffffffffffffffffffffff1673ffffffffffffffffffffffffffffffffffffffff163373ffffffffffffffffffffffffffffffffffffffff16141515611f5d57600080fd5b611f66816120be565b50565b8273ffffffffffffffffffffffffffffffffffffffff1663a9059cbb83836040518363ffffffff167c0100000000000000000000000000000000000000000000000000000000028152600401808373ffffffffffffffffffffffffffffffffffffffff1673ffffffffffffffffffffffffffffffffffffffff16815260200182815260200192505050602060405180830381600087803b15801561200c57600080fd5b505af1158015612020573d6000803e3d6000fd5b505050506040513d602081101561203657600080fd5b8101908080519060200190929190505050151561205257600080fd5b505050565b6000818381151561206457fe5b04905092915050565b600080831415612080576000905061209f565b818302905081838281151561209157fe5b0414151561209b57fe5b8090505b92915050565b60008282111515156120b357fe5b818303905092915050565b600073ffffffffffffffffffffffffffffffffffffffff168173ffffffffffffffffffffffffffffffffffffffff16141515156120fa57600080fd5b8073ffffffffffffffffffffffffffffffffffffffff166000809054906101000a900473ffffffffffffffffffffffffffffffffffffffff1673ffffffffffffffffffffffffffffffffffffffff167f8be0079c531659141344cd1fd0a4f28419497f9722a3daafe3b4186f6b6457e060405160405180910390a3806000806101000a81548173ffffffffffffffffffffffffffffffffffffffff021916908373ffffffffffffffffffffffffffffffffffffffff16021790555050565b828054600181600116156101000203166002900490600052602060002090601f016020900481019282601f106121f957805160ff1916838001178555612227565b82800160010185558215612227579182015b8281111561222657825182559160200191906001019061220b565b5b5090506122349190612238565b5090565b61225a91905b8082111561225657600081600090555060010161223e565b5090565b905600a165627a7a7230582069e6c8c069b519a3dd93cd8335b58bd38d34091f0b6a0fedc83dca73ab6048e300296080604052336000806101000a81548173ffffffffffffffffffffffffffffffffffffffff021916908373ffffffffffffffffffffffffffffffffffffffff1602179055506107fe806100536000396000f300608060405260043610610078576000357c0100000000000000000000000000000000000000000000000000000000900463ffffffff16806351cff8d91461007d578063715018a6146100c05780638da5cb5b146100d7578063e3a9db1a1461012e578063f2fde38b14610185578063f340fa01146101c8575b600080fd5b34801561008957600080fd5b506100be600480360381019080803573ffffffffffffffffffffffffffffffffffffffff1690602001909291905050506101fe565b005b3480156100cc57600080fd5b506100d561039e565b005b3480156100e357600080fd5b506100ec6104a0565b604051808273ffffffffffffffffffffffffffffffffffffffff1673ffffffffffffffffffffffffffffffffffffffff16815260200191505060405180910390f35b34801561013a57600080fd5b5061016f600480360381019080803573ffffffffffffffffffffffffffffffffffffffff1690602001909291905050506104c5565b6040518082815260200191505060405180910390f35b34801561019157600080fd5b506101c6600480360381019080803573ffffffffffffffffffffffffffffffffffffffff16906020019092919050505061050e565b005b6101fc600480360381019080803573ffffffffffffffffffffffffffffffffffffffff169060200190929190505050610575565b005b60008060009054906101000a900473ffffffffffffffffffffffffffffffffffffffff1673ffffffffffffffffffffffffffffffffffffffff163373ffffffffffffffffffffffffffffffffffffffff1614151561025b57600080fd5b600160008373ffffffffffffffffffffffffffffffffffffffff1673ffffffffffffffffffffffffffffffffffffffff168152602001908152602001600020549050803073ffffffffffffffffffffffffffffffffffffffff1631101515156102c057fe5b6000600160008473ffffffffffffffffffffffffffffffffffffffff1673ffffffffffffffffffffffffffffffffffffffff168152602001908152602001600020819055508173ffffffffffffffffffffffffffffffffffffffff166108fc829081150290604051600060405180830381858888f1935050505015801561034b573d6000803e3d6000fd5b508173ffffffffffffffffffffffffffffffffffffffff167f7084f5476618d8e60b11ef0d7d3f06914655adb8793e28ff7f018d4c76d505d5826040518082815260200191505060405180910390a25050565b6000809054906101000a900473ffffffffffffffffffffffffffffffffffffffff1673ffffffffffffffffffffffffffffffffffffffff163373ffffffffffffffffffffffffffffffffffffffff161415156103f957600080fd5b6000809054906101000a900473ffffffffffffffffffffffffffffffffffffffff1673ffffffffffffffffffffffffffffffffffffffff167ff8df31144d9c2f0f6b59d69b8b98abd5459d07f2742c4df920b25aae33c6482060405160405180910390a260008060006101000a81548173ffffffffffffffffffffffffffffffffffffffff021916908373ffffffffffffffffffffffffffffffffffffffff160217905550565b6000809054906101000a900473ffffffffffffffffffffffffffffffffffffffff1681565b6000600160008373ffffffffffffffffffffffffffffffffffffffff1673ffffffffffffffffffffffffffffffffffffffff168152602001908152602001600020549050919050565b6000809054906101000a900473ffffffffffffffffffffffffffffffffffffffff1673ffffffffffffffffffffffffffffffffffffffff163373ffffffffffffffffffffffffffffffffffffffff1614151561056957600080fd5b610572816106bc565b50565b60008060009054906101000a900473ffffffffffffffffffffffffffffffffffffffff1673ffffffffffffffffffffffffffffffffffffffff163373ffffffffffffffffffffffffffffffffffffffff161415156105d257600080fd5b34905061062781600160008573ffffffffffffffffffffffffffffffffffffffff1673ffffffffffffffffffffffffffffffffffffffff168152602001908152602001600020546107b690919063ffffffff16565b600160008473ffffffffffffffffffffffffffffffffffffffff1673ffffffffffffffffffffffffffffffffffffffff168152602001908152602001600020819055508173ffffffffffffffffffffffffffffffffffffffff167f2da466a7b24304f47e87fa2e1e5a81b9831ce54fec19055ce277ca2f39ba42c4826040518082815260200191505060405180910390a25050565b600073ffffffffffffffffffffffffffffffffffffffff168173ffffffffffffffffffffffffffffffffffffffff16141515156106f857600080fd5b8073ffffffffffffffffffffffffffffffffffffffff166000809054906101000a900473ffffffffffffffffffffffffffffffffffffffff1673ffffffffffffffffffffffffffffffffffffffff167f8be0079c531659141344cd1fd0a4f28419497f9722a3daafe3b4186f6b6457e060405160405180910390a3806000806101000a81548173ffffffffffffffffffffffffffffffffffffffff021916908373ffffffffffffffffffffffffffffffffffffffff16021790555050565b600081830190508281101515156107c957fe5b809050929150505600a165627a7a723058208a99ed6403a6f0d3d3c993e80e3902332535cfdbef58d01a85e177fa308464750029",
  "source": "// Author: Igor Yalovoy\n// Web: ylv.io\n// Email: to@ylv.io\n// GitHub: https://github.com/ylv-io/coinpledge/tree/master\n// Twitter: https://twitter.com/ylv_io\n\n// Coin Pledge\n// Reach your goals and have fun with friends. Powered by security of smart contracts.\n\n\n// Proofs:\n// Public commitment as a motivator for weight loss (https://onlinelibrary.wiley.com/doi/pdf/10.1002/mar.20316)\n\n\npragma solidity ^0.4.17;\n\nimport \"openzeppelin-solidity/contracts/math/SafeMath.sol\";\nimport \"openzeppelin-solidity/contracts/ownership/Ownable.sol\";\nimport \"openzeppelin-solidity/contracts/payment/PullPayment.sol\";\nimport \"openzeppelin-solidity/contracts/ownership/CanReclaimToken.sol\";\n\ncontract CoinPledge is Ownable, CanReclaimToken, PullPayment {\n\n  using SafeMath for uint256;\n\n  uint constant daysToResolve = 7 days;\n  uint constant bonusPercentage = 50;\n  uint constant feePercentage = 1;\n  uint constant mentorPercentage = 4;\n  uint constant minBonus = 1 finney;\n\n  struct Challenge {\n    address user;\n    string name;\n    uint value;\n    address mentor;\n    uint startDate;\n    uint time;\n\n    bool successed;\n    bool resolved;\n  }\n\n  event NewChallenge(uint indexed challengeId, address indexed user, string name, uint value, address indexed mentor, uint startDate, uint time);\n  event ChallengeResolved(uint indexed challengeId, address indexed user, address indexed mentor, bool decision);\n  event BonusFundChanged(address indexed user, uint value);\n\n  Challenge[] public challenges;\n\n  mapping(uint => address) public challengeToUser;\n  mapping(address => uint) public userToChallengeCount;\n\n  mapping(uint => address) public challengeToMentor;\n  mapping(address => uint) public mentorToChallengeCount;\n\n  mapping(address => uint) public bonusFund;\n\n  function getBonusFund(address user)\n  external\n  view\n  returns(uint) {\n    return bonusFund[user];\n  }\n\n  function getChallengesForUser(address user) \n  external \n  view \n  returns(uint[]) {\n    require(userToChallengeCount[user] > 0, \"Has zero challenges\");\n\n    uint[] memory result = new uint[](userToChallengeCount[user]);\n    uint counter = 0;\n    for (uint i = 0; i < challenges.length; i++) {\n      if (challengeToUser[i] == user)\n      {\n        result[counter] = i;\n        counter++;\n      }\n    }\n    return result;\n  }\n\n  function getChallengesForMentor(address mentor) \n  external \n  view \n  returns(uint[]) {\n    require(mentorToChallengeCount[mentor] > 0, \"Has zero cases\");\n\n    uint[] memory result = new uint[](mentorToChallengeCount[mentor]);\n    uint counter = 0;\n    for (uint i = 0; i < challenges.length; i++) {\n      if (challengeToMentor[i] == mentor)\n      {\n        result[counter] = i;\n        counter++;\n      }\n    }\n    return result;\n  }\n\n  function createChallenge(string name, address mentor, uint time) \n  external \n  payable \n  returns (uint retId) {\n    require(msg.value >= 0.01 ether, \"Has to stake more than 0.01 ether\");\n    require(mentor != 0x0, \"Has to be a mentor\");\n    require(time > 0, \"Time has to be greater than zero\");\n\n    uint startDate = block.timestamp;\n    uint id = challenges.push(Challenge(msg.sender, name, msg.value, mentor, startDate, time, false, false)) - 1;\n\n    challengeToUser[id] = msg.sender;\n    userToChallengeCount[msg.sender]++;\n\n    challengeToMentor[id] = mentor;\n    mentorToChallengeCount[mentor]++;\n\n    emit NewChallenge(id, msg.sender, name, msg.value, mentor, startDate, time);\n\n    return id;\n  }\n\n  function resolveChallenge(uint challengeId, bool decision)\n  external\n  {\n    Challenge storage challenge = challenges[challengeId];\n    address user = challengeToUser[challengeId];\n    address mentor = challengeToMentor[challengeId];\n\n    require(challenge.resolved == false, \"Challenge already resolved.\");\n\n    // if more time passed than endDate + daysToResolve, then user can resolve himself\n    if(block.timestamp < (challenge.startDate + challenge.time + daysToResolve))\n      require(challenge.mentor == msg.sender, \"You are not the mentor for this challenge.\");\n    else require(challenge.user == msg.sender, \"You are not the user for this challenge.\");\n\n    // write decision\n    challenge.successed = decision;\n    challenge.resolved = true;\n\n    // pay service fee\n    uint serviceFee = challenge.value.div(100).mul(feePercentage);\n    owner.transfer(serviceFee);\n\n    // pay mentor fee\n    uint mentorFee = challenge.value.div(100).mul(mentorPercentage);\n    mentor.transfer(mentorFee);\n\n    uint remainingValue = challenge.value.sub(serviceFee).sub(mentorFee);\n\n    uint valueToPay;\n\n    if(decision) {\n      // value to pay back to user\n      valueToPay = remainingValue;\n      // credit bouns if any\n      uint currentBonus = bonusFund[user];\n      if(currentBonus > 0)\n      {\n        uint bonusValue = bonusFund[user].div(100).mul(bonusPercentage);\n        if(currentBonus <= minBonus)\n          bonusValue = currentBonus;\n        bonusFund[user] -= bonusValue;\n        emit BonusFundChanged(user, bonusFund[user]);\n\n        valueToPay += bonusValue;\n      }\n    }\n    else \n        // if failed to achieve goal, put money to bonus fund\n        bonusFund[user] += remainingValue;\n\n    // pay back to the challenger\n    if(valueToPay > 0)\n        user.transfer(valueToPay);\n\n    emit ChallengeResolved(challengeId, user, mentor, decision);\n  }\n\n}",
  "sourcePath": "/Users/iYalovoy/Dropbox (Personal)/Development/coinpledge/contracts/CoinPledge.sol",
  "compiler": {
    "name": "solc",
    "version": "0.4.24+commit.e67f0147.Emscripten.clang"
  },
  "schemaVersion": "2.0.1",
  "updatedAt": "2018-10-22T07:47:24.256Z"
}