{
  "contractName": "CoinPledge",
  "abi": [
    {
      "constant": true,
      "inputs": [],
      "name": "isGameOver",
      "outputs": [
        {
          "name": "",
          "type": "bool"
        }
      ],
      "payable": false,
      "stateMutability": "view",
      "type": "function"
    },
    {
      "constant": true,
      "inputs": [
        {
          "name": "",
          "type": "address"
        }
      ],
      "name": "bonusFund",
      "outputs": [
        {
          "name": "",
          "type": "uint256"
        }
      ],
      "payable": false,
      "stateMutability": "view",
      "type": "function"
    },
    {
      "constant": false,
      "inputs": [],
      "name": "renounceOwnership",
      "outputs": [],
      "payable": false,
      "stateMutability": "nonpayable",
      "type": "function"
    },
    {
      "constant": true,
      "inputs": [
        {
          "name": "",
          "type": "address"
        }
      ],
      "name": "userToChallengeCount",
      "outputs": [
        {
          "name": "",
          "type": "uint256"
        }
      ],
      "payable": false,
      "stateMutability": "view",
      "type": "function"
    },
    {
      "constant": true,
      "inputs": [],
      "name": "owner",
      "outputs": [
        {
          "name": "",
          "type": "address"
        }
      ],
      "payable": false,
      "stateMutability": "view",
      "type": "function"
    },
    {
      "constant": true,
      "inputs": [
        {
          "name": "",
          "type": "uint256"
        }
      ],
      "name": "challenges",
      "outputs": [
        {
          "name": "user",
          "type": "address"
        },
        {
          "name": "name",
          "type": "string"
        },
        {
          "name": "value",
          "type": "uint256"
        },
        {
          "name": "mentor",
          "type": "address"
        },
        {
          "name": "startDate",
          "type": "uint256"
        },
        {
          "name": "time",
          "type": "uint256"
        },
        {
          "name": "mentorFee",
          "type": "uint256"
        },
        {
          "name": "successed",
          "type": "bool"
        },
        {
          "name": "resolved",
          "type": "bool"
        }
      ],
      "payable": false,
      "stateMutability": "view",
      "type": "function"
    },
    {
      "constant": true,
      "inputs": [],
      "name": "isOwner",
      "outputs": [
        {
          "name": "",
          "type": "bool"
        }
      ],
      "payable": false,
      "stateMutability": "view",
      "type": "function"
    },
    {
      "constant": true,
      "inputs": [
        {
          "name": "",
          "type": "address"
        }
      ],
      "name": "mentorToChallengeCount",
      "outputs": [
        {
          "name": "",
          "type": "uint256"
        }
      ],
      "payable": false,
      "stateMutability": "view",
      "type": "function"
    },
    {
      "constant": true,
      "inputs": [
        {
          "name": "",
          "type": "uint256"
        }
      ],
      "name": "challengeToUser",
      "outputs": [
        {
          "name": "",
          "type": "address"
        }
      ],
      "payable": false,
      "stateMutability": "view",
      "type": "function"
    },
    {
      "constant": true,
      "inputs": [
        {
          "name": "",
          "type": "uint256"
        }
      ],
      "name": "allUsers",
      "outputs": [
        {
          "name": "",
          "type": "address"
        }
      ],
      "payable": false,
      "stateMutability": "view",
      "type": "function"
    },
    {
      "constant": true,
      "inputs": [
        {
          "name": "",
          "type": "address"
        }
      ],
      "name": "users",
      "outputs": [
        {
          "name": "addr",
          "type": "address"
        },
        {
          "name": "name",
          "type": "string"
        }
      ],
      "payable": false,
      "stateMutability": "view",
      "type": "function"
    },
    {
      "constant": true,
      "inputs": [
        {
          "name": "",
          "type": "uint256"
        }
      ],
      "name": "challengeToMentor",
      "outputs": [
        {
          "name": "",
          "type": "address"
        }
      ],
      "payable": false,
      "stateMutability": "view",
      "type": "function"
    },
    {
      "constant": false,
      "inputs": [
        {
          "name": "newOwner",
          "type": "address"
        }
      ],
      "name": "transferOwnership",
      "outputs": [],
      "payable": false,
      "stateMutability": "nonpayable",
      "type": "function"
    },
    {
      "anonymous": false,
      "inputs": [
        {
          "indexed": true,
          "name": "challengeId",
          "type": "uint256"
        },
        {
          "indexed": true,
          "name": "user",
          "type": "address"
        },
        {
          "indexed": false,
          "name": "name",
          "type": "string"
        },
        {
          "indexed": false,
          "name": "value",
          "type": "uint256"
        },
        {
          "indexed": true,
          "name": "mentor",
          "type": "address"
        },
        {
          "indexed": false,
          "name": "startDate",
          "type": "uint256"
        },
        {
          "indexed": false,
          "name": "time",
          "type": "uint256"
        },
        {
          "indexed": false,
          "name": "mentorFee",
          "type": "uint256"
        }
      ],
      "name": "NewChallenge",
      "type": "event"
    },
    {
      "anonymous": false,
      "inputs": [
        {
          "indexed": true,
          "name": "challengeId",
          "type": "uint256"
        },
        {
          "indexed": true,
          "name": "user",
          "type": "address"
        },
        {
          "indexed": true,
          "name": "mentor",
          "type": "address"
        },
        {
          "indexed": false,
          "name": "decision",
          "type": "bool"
        }
      ],
      "name": "ChallengeResolved",
      "type": "event"
    },
    {
      "anonymous": false,
      "inputs": [
        {
          "indexed": true,
          "name": "user",
          "type": "address"
        },
        {
          "indexed": false,
          "name": "value",
          "type": "uint256"
        }
      ],
      "name": "BonusFundChanged",
      "type": "event"
    },
    {
      "anonymous": false,
      "inputs": [
        {
          "indexed": true,
          "name": "addr",
          "type": "address"
        },
        {
          "indexed": false,
          "name": "name",
          "type": "string"
        }
      ],
      "name": "NewUsername",
      "type": "event"
    },
    {
      "anonymous": false,
      "inputs": [
        {
          "indexed": false,
          "name": "name",
          "type": "string"
        },
        {
          "indexed": false,
          "name": "url",
          "type": "string"
        },
        {
          "indexed": false,
          "name": "value",
          "type": "uint256"
        },
        {
          "indexed": false,
          "name": "timestamp",
          "type": "uint256"
        }
      ],
      "name": "Donation",
      "type": "event"
    },
    {
      "anonymous": false,
      "inputs": [
        {
          "indexed": true,
          "name": "previousOwner",
          "type": "address"
        },
        {
          "indexed": true,
          "name": "newOwner",
          "type": "address"
        }
      ],
      "name": "OwnershipTransferred",
      "type": "event"
    },
    {
      "constant": true,
      "inputs": [
        {
          "name": "user",
          "type": "address"
        }
      ],
      "name": "getBonusFund",
      "outputs": [
        {
          "name": "",
          "type": "uint256"
        }
      ],
      "payable": false,
      "stateMutability": "view",
      "type": "function"
    },
    {
      "constant": true,
      "inputs": [],
      "name": "getUsersCount",
      "outputs": [
        {
          "name": "",
          "type": "uint256"
        }
      ],
      "payable": false,
      "stateMutability": "view",
      "type": "function"
    },
    {
      "constant": true,
      "inputs": [
        {
          "name": "user",
          "type": "address"
        }
      ],
      "name": "getChallengesForUser",
      "outputs": [
        {
          "name": "",
          "type": "uint256[]"
        }
      ],
      "payable": false,
      "stateMutability": "view",
      "type": "function"
    },
    {
      "constant": true,
      "inputs": [
        {
          "name": "mentor",
          "type": "address"
        }
      ],
      "name": "getChallengesForMentor",
      "outputs": [
        {
          "name": "",
          "type": "uint256[]"
        }
      ],
      "payable": false,
      "stateMutability": "view",
      "type": "function"
    },
    {
      "constant": false,
      "inputs": [],
      "name": "gameOver",
      "outputs": [],
      "payable": false,
      "stateMutability": "nonpayable",
      "type": "function"
    },
    {
      "constant": false,
      "inputs": [
        {
          "name": "name",
          "type": "string"
        }
      ],
      "name": "setUsername",
      "outputs": [],
      "payable": false,
      "stateMutability": "nonpayable",
      "type": "function"
    },
    {
      "constant": false,
      "inputs": [
        {
          "name": "name",
          "type": "string"
        },
        {
          "name": "mentor",
          "type": "string"
        },
        {
          "name": "time",
          "type": "uint256"
        },
        {
          "name": "mentorFee",
          "type": "uint256"
        }
      ],
      "name": "createChallenge",
      "outputs": [
        {
          "name": "retId",
          "type": "uint256"
        }
      ],
      "payable": true,
      "stateMutability": "payable",
      "type": "function"
    },
    {
      "constant": false,
      "inputs": [
        {
          "name": "challengeId",
          "type": "uint256"
        },
        {
          "name": "decision",
          "type": "bool"
        }
      ],
      "name": "resolveChallenge",
      "outputs": [],
      "payable": false,
      "stateMutability": "nonpayable",
      "type": "function"
    },
    {
      "constant": false,
      "inputs": [],
      "name": "withdraw",
      "outputs": [],
      "payable": false,
      "stateMutability": "nonpayable",
      "type": "function"
    },
    {
      "constant": false,
      "inputs": [
        {
          "name": "name",
          "type": "string"
        },
        {
          "name": "url",
          "type": "string"
        }
      ],
      "name": "donate",
      "outputs": [],
      "payable": true,
      "stateMutability": "payable",
      "type": "function"
    }
  ],
  "bytecode": "0x6080604052336000806101000a81548173ffffffffffffffffffffffffffffffffffffffff021916908373ffffffffffffffffffffffffffffffffffffffff1602179055506000809054906101000a900473ffffffffffffffffffffffffffffffffffffffff1673ffffffffffffffffffffffffffffffffffffffff16600073ffffffffffffffffffffffffffffffffffffffff167f8be0079c531659141344cd1fd0a4f28419497f9722a3daafe3b4186f6b6457e060405160405180910390a361308a806100cf6000396000f300608060405260043610610133576000357c0100000000000000000000000000000000000000000000000000000000900463ffffffff1680630e04a7d8146101385780631653441c146101675780631906a3d6146101ad57806329fc550f146102045780633ccfd60b1461029c57806341c9028c146102b35780634af79ba21461030a578063715018a6146103a257806386ddf4dd146103b95780638da5cb5b146104105780638f1d3776146104675780638f32d59b146105a55780639077c676146105d457806394a754e01461062b5780639c1bea8c14610664578063a2bdedf4146106d1578063a4a1e2631461073e578063a87430ba14610769578063acc6060614610858578063bdb337d1146108c5578063ed59313a146108dc578063f2fde38b14610917578063f352c45c1461095a575b600080fd5b34801561014457600080fd5b5061014d6109c8565b604051808215151515815260200191505060405180910390f35b6101ab6004803603810190808035906020019082018035906020019190919293919293908035906020019082018035906020019190919293919293905050506109db565b005b3480156101b957600080fd5b506101ee600480360381019080803573ffffffffffffffffffffffffffffffffffffffff169060200190929190505050610b37565b6040518082815260200191505060405180910390f35b34801561021057600080fd5b50610245600480360381019080803573ffffffffffffffffffffffffffffffffffffffff169060200190929190505050610b80565b6040518080602001828103825283818151815260200191508051906020019060200280838360005b8381101561028857808201518184015260208101905061026d565b505050509050019250505060405180910390f35b3480156102a857600080fd5b506102b1610d69565b005b3480156102bf57600080fd5b506102f4600480360381019080803573ffffffffffffffffffffffffffffffffffffffff169060200190929190505050610f76565b6040518082815260200191505060405180910390f35b34801561031657600080fd5b5061034b600480360381019080803573ffffffffffffffffffffffffffffffffffffffff169060200190929190505050610f8e565b6040518080602001828103825283818151815260200191508051906020019060200280838360005b8381101561038e578082015181840152602081019050610373565b505050509050019250505060405180910390f35b3480156103ae57600080fd5b506103b7611177565b005b3480156103c557600080fd5b506103fa600480360381019080803573ffffffffffffffffffffffffffffffffffffffff169060200190929190505050611249565b6040518082815260200191505060405180910390f35b34801561041c57600080fd5b50610425611261565b604051808273ffffffffffffffffffffffffffffffffffffffff1673ffffffffffffffffffffffffffffffffffffffff16815260200191505060405180910390f35b34801561047357600080fd5b506104926004803603810190808035906020019092919050505061128a565b604051808a73ffffffffffffffffffffffffffffffffffffffff1673ffffffffffffffffffffffffffffffffffffffff168152602001806020018981526020018873ffffffffffffffffffffffffffffffffffffffff1673ffffffffffffffffffffffffffffffffffffffff168152602001878152602001868152602001858152602001841515151581526020018315151515815260200182810382528a818151815260200191508051906020019080838360005b83811015610562578082015181840152602081019050610547565b50505050905090810190601f16801561058f5780820380516001836020036101000a031916815260200191505b509a505050505050505050505060405180910390f35b3480156105b157600080fd5b506105ba6113d9565b604051808215151515815260200191505060405180910390f35b3480156105e057600080fd5b50610615600480360381019080803573ffffffffffffffffffffffffffffffffffffffff169060200190929190505050611430565b6040518082815260200191505060405180910390f35b34801561063757600080fd5b5061066260048036038101908080359060200190929190803515159060200190929190505050611448565b005b34801561067057600080fd5b5061068f60048036038101908080359060200190929190505050611d1a565b604051808273ffffffffffffffffffffffffffffffffffffffff1673ffffffffffffffffffffffffffffffffffffffff16815260200191505060405180910390f35b3480156106dd57600080fd5b506106fc60048036038101908080359060200190929190505050611d4d565b604051808273ffffffffffffffffffffffffffffffffffffffff1673ffffffffffffffffffffffffffffffffffffffff16815260200191505060405180910390f35b34801561074a57600080fd5b50610753611d8b565b6040518082815260200191505060405180910390f35b34801561077557600080fd5b506107aa600480360381019080803573ffffffffffffffffffffffffffffffffffffffff169060200190929190505050611d98565b604051808373ffffffffffffffffffffffffffffffffffffffff1673ffffffffffffffffffffffffffffffffffffffff16815260200180602001828103825283818151815260200191508051906020019080838360005b8381101561081c578082015181840152602081019050610801565b50505050905090810190601f1680156108495780820380516001836020036101000a031916815260200191505b50935050505060405180910390f35b34801561086457600080fd5b5061088360048036038101908080359060200190929190505050611e74565b604051808273ffffffffffffffffffffffffffffffffffffffff1673ffffffffffffffffffffffffffffffffffffffff16815260200191505060405180910390f35b3480156108d157600080fd5b506108da611ea7565b005b3480156108e857600080fd5b50610915600480360381019080803590602001908201803590602001919091929391929390505050611f5c565b005b34801561092357600080fd5b50610958600480360381019080803573ffffffffffffffffffffffffffffffffffffffff16906020019092919050505061254c565b005b6109b2600480360381019080803590602001908201803590602001919091929391929390803590602001908201803590602001919091929391929390803590602001909291908035906020019092919050505061256b565b6040518082815260200191505060405180910390f35b600060149054906101000a900460ff1681565b600060149054906101000a900460ff16151515610a60576040517f08c379a00000000000000000000000000000000000000000000000000000000081526004018080602001828103825260178152602001807f47616d652073686f756c64206265206e6f74206f76657200000000000000000081525060200191505060405180910390fd5b610a68611261565b73ffffffffffffffffffffffffffffffffffffffff166108fc349081150290604051600060405180830381858888f19350505050158015610aad573d6000803e3d6000fd5b507f6e8b6487a41d35751143d1be3637919d34ee7fcc13ecce0a6c848d885f821fdf84848484344260405180806020018060200185815260200184815260200183810383528989828181526020019250808284378201915050838103825287878281815260200192508082843782019150509850505050505050505060405180910390a150505050565b6000600960008373ffffffffffffffffffffffffffffffffffffffff1673ffffffffffffffffffffffffffffffffffffffff168152602001908152602001600020549050919050565b6060806000806000600360008773ffffffffffffffffffffffffffffffffffffffff1673ffffffffffffffffffffffffffffffffffffffff16815260200190815260200160002054111515610c3d576040517f08c379a00000000000000000000000000000000000000000000000000000000081526004018080602001828103825260138152602001807f486173207a65726f206368616c6c656e6765730000000000000000000000000081525060200191505060405180910390fd5b600360008673ffffffffffffffffffffffffffffffffffffffff1673ffffffffffffffffffffffffffffffffffffffff16815260200190815260200160002054604051908082528060200260200182016040528015610cab5781602001602082028038833980820191505090505b50925060009150600090505b600180549050811015610d5e578473ffffffffffffffffffffffffffffffffffffffff166002600083815260200190815260200160002060009054906101000a900473ffffffffffffffffffffffffffffffffffffffff1673ffffffffffffffffffffffffffffffffffffffff161415610d5157808383815181101515610d3a57fe5b906020019060200201818152505081806001019250505b8080600101915050610cb7565b829350505050919050565b60008060149054906101000a900460ff161515610dee576040517f08c379a00000000000000000000000000000000000000000000000000000000081526004018080602001828103825260138152602001807f47616d652073686f756c64206265206f7665720000000000000000000000000081525060200191505060405180910390fd5b6000600960003373ffffffffffffffffffffffffffffffffffffffff1673ffffffffffffffffffffffffffffffffffffffff16815260200190815260200160002054111515610ea5576040517f08c379a00000000000000000000000000000000000000000000000000000000081526004018080602001828103825260198152602001807f596f7520646f206e6f74206861766520616e792066756e64730000000000000081525060200191505060405180910390fd5b600960003373ffffffffffffffffffffffffffffffffffffffff1673ffffffffffffffffffffffffffffffffffffffff1681526020019081526020016000205490506000600960003373ffffffffffffffffffffffffffffffffffffffff1673ffffffffffffffffffffffffffffffffffffffff168152602001908152602001600020819055503373ffffffffffffffffffffffffffffffffffffffff166108fc829081150290604051600060405180830381858888f19350505050158015610f72573d6000803e3d6000fd5b5050565b60096020528060005260406000206000915090505481565b6060806000806000600560008773ffffffffffffffffffffffffffffffffffffffff1673ffffffffffffffffffffffffffffffffffffffff1681526020019081526020016000205411151561104b576040517f08c379a00000000000000000000000000000000000000000000000000000000081526004018080602001828103825260138152602001807f486173207a65726f206368616c6c656e6765730000000000000000000000000081525060200191505060405180910390fd5b600560008673ffffffffffffffffffffffffffffffffffffffff1673ffffffffffffffffffffffffffffffffffffffff168152602001908152602001600020546040519080825280602002602001820160405280156110b95781602001602082028038833980820191505090505b50925060009150600090505b60018054905081101561116c578473ffffffffffffffffffffffffffffffffffffffff166004600083815260200190815260200160002060009054906101000a900473ffffffffffffffffffffffffffffffffffffffff1673ffffffffffffffffffffffffffffffffffffffff16141561115f5780838381518110151561114857fe5b906020019060200201818152505081806001019250505b80806001019150506110c5565b829350505050919050565b61117f6113d9565b151561118a57600080fd5b600073ffffffffffffffffffffffffffffffffffffffff166000809054906101000a900473ffffffffffffffffffffffffffffffffffffffff1673ffffffffffffffffffffffffffffffffffffffff167f8be0079c531659141344cd1fd0a4f28419497f9722a3daafe3b4186f6b6457e060405160405180910390a360008060006101000a81548173ffffffffffffffffffffffffffffffffffffffff021916908373ffffffffffffffffffffffffffffffffffffffff160217905550565b60036020528060005260406000206000915090505481565b60008060009054906101000a900473ffffffffffffffffffffffffffffffffffffffff16905090565b60018181548110151561129957fe5b90600052602060002090600802016000915090508060000160009054906101000a900473ffffffffffffffffffffffffffffffffffffffff1690806001018054600181600116156101000203166002900480601f01602080910402602001604051908101604052809291908181526020018280546001816001161561010002031660029004801561136b5780601f106113405761010080835404028352916020019161136b565b820191906000526020600020905b81548152906001019060200180831161134e57829003601f168201915b5050505050908060020154908060030160009054906101000a900473ffffffffffffffffffffffffffffffffffffffff16908060040154908060050154908060060154908060070160009054906101000a900460ff16908060070160019054906101000a900460ff16905089565b60008060009054906101000a900473ffffffffffffffffffffffffffffffffffffffff1673ffffffffffffffffffffffffffffffffffffffff163373ffffffffffffffffffffffffffffffffffffffff1614905090565b60056020528060005260406000206000915090505481565b60008060008060008060008060008060149054906101000a900460ff161515156114da576040517f08c379a00000000000000000000000000000000000000000000000000000000081526004018080602001828103825260178152602001807f47616d652073686f756c64206265206e6f74206f76657200000000000000000081525060200191505060405180910390fd5b60018b8154811015156114e957fe5b90600052602060002090600802019850600015158960070160019054906101000a900460ff161515141515611586576040517f08c379a000000000000000000000000000000000000000000000000000000000815260040180806020018281038252601b8152602001807f4368616c6c656e676520616c7265616479207265736f6c7665642e000000000081525060200191505060405180910390fd5b62093a8089600501548a60040154010142101561168f573373ffffffffffffffffffffffffffffffffffffffff168960030160009054906101000a900473ffffffffffffffffffffffffffffffffffffffff1673ffffffffffffffffffffffffffffffffffffffff1614151561168a576040517f08c379a000000000000000000000000000000000000000000000000000000000815260040180806020018281038252602a8152602001807f596f7520617265206e6f7420746865206d656e746f7220666f7220746869732081526020017f6368616c6c656e67652e0000000000000000000000000000000000000000000081525060400191505060405180910390fd5b6117d7565b3373ffffffffffffffffffffffffffffffffffffffff168960000160009054906101000a900473ffffffffffffffffffffffffffffffffffffffff1673ffffffffffffffffffffffffffffffffffffffff16148061173c57503373ffffffffffffffffffffffffffffffffffffffff168960030160009054906101000a900473ffffffffffffffffffffffffffffffffffffffff1673ffffffffffffffffffffffffffffffffffffffff16145b15156117d6576040517f08c379a00000000000000000000000000000000000000000000000000000000081526004018080602001828103825260328152602001807f596f7520617265206e6f74207468652075736572206f72206d656e746f72206681526020017f6f722074686973206368616c6c656e67652e000000000000000000000000000081525060400191505060405180910390fd5b5b600260008c815260200190815260200160002060009054906101000a900473ffffffffffffffffffffffffffffffffffffffff169550600460008c815260200190815260200160002060009054906101000a900473ffffffffffffffffffffffffffffffffffffffff169450898960070160006101000a81548160ff02191690831515021790555060018960070160016101000a81548160ff021916908315150217905550886002015493506000896006015411156118ee576118bb600a6118ad60648c60060154612e3690919063ffffffff16565b612e6090919063ffffffff16565b96506118eb600a6064036118dd60648c60060154612e3690919063ffffffff16565b612e6090919063ffffffff16565b97505b6000896006015411156119195761191689600601548a60020154612e9e90919063ffffffff16565b93505b8915611ace57839250600960008773ffffffffffffffffffffffffffffffffffffffff1673ffffffffffffffffffffffffffffffffffffffff1681526020019081526020016000205491506000821115611ac9576119d360326119c56064600960008b73ffffffffffffffffffffffffffffffffffffffff1673ffffffffffffffffffffffffffffffffffffffff16815260200190815260200160002054612e3690919063ffffffff16565b612e6090919063ffffffff16565b905066038d7ea4c68000821115156119e9578190505b80600960008873ffffffffffffffffffffffffffffffffffffffff1673ffffffffffffffffffffffffffffffffffffffff168152602001908152602001600020600082825403925050819055508573ffffffffffffffffffffffffffffffffffffffff167f0bfe400dd6d1d0d9446725bc045151fad50d6e8c93d65a20134b05ce6081f43e600960008973ffffffffffffffffffffffffffffffffffffffff1673ffffffffffffffffffffffffffffffffffffffff168152602001908152602001600020546040518082815260200191505060405180910390a280830192505b611ba9565b83600960008873ffffffffffffffffffffffffffffffffffffffff1673ffffffffffffffffffffffffffffffffffffffff168152602001908152602001600020600082825401925050819055508573ffffffffffffffffffffffffffffffffffffffff167f0bfe400dd6d1d0d9446725bc045151fad50d6e8c93d65a20134b05ce6081f43e600960008973ffffffffffffffffffffffffffffffffffffffff1673ffffffffffffffffffffffffffffffffffffffff168152602001908152602001600020546040518082815260200191505060405180910390a25b6000831115611bfa578573ffffffffffffffffffffffffffffffffffffffff166108fc849081150290604051600060405180830381858888f19350505050158015611bf8573d6000803e3d6000fd5b505b6000881115611c4b578473ffffffffffffffffffffffffffffffffffffffff166108fc899081150290604051600060405180830381858888f19350505050158015611c49573d6000803e3d6000fd5b505b6000871115611ca357611c5c611261565b73ffffffffffffffffffffffffffffffffffffffff166108fc889081150290604051600060405180830381858888f19350505050158015611ca1573d6000803e3d6000fd5b505b8473ffffffffffffffffffffffffffffffffffffffff168673ffffffffffffffffffffffffffffffffffffffff168c7f7594a05a49b456a2fb34d3357cbaf2070ff1c0568ae96c6d9720e166d705fecb8d604051808215151515815260200191505060405180910390a45050505050505050505050565b60026020528060005260406000206000915054906101000a900473ffffffffffffffffffffffffffffffffffffffff1681565b600781815481101515611d5c57fe5b906000526020600020016000915054906101000a900473ffffffffffffffffffffffffffffffffffffffff1681565b6000600780549050905090565b60066020528060005260406000206000915090508060000160009054906101000a900473ffffffffffffffffffffffffffffffffffffffff1690806001018054600181600116156101000203166002900480601f016020809104026020016040519081016040528092919081815260200182805460018160011615610100020316600290048015611e6a5780601f10611e3f57610100808354040283529160200191611e6a565b820191906000526020600020905b815481529060010190602001808311611e4d57829003601f168201915b5050505050905082565b60046020528060005260406000206000915054906101000a900473ffffffffffffffffffffffffffffffffffffffff1681565b600060149054906101000a900460ff16151515611f2c576040517f08c379a00000000000000000000000000000000000000000000000000000000081526004018080602001828103825260178152602001807f47616d652073686f756c64206265206e6f74206f76657200000000000000000081525060200191505060405180910390fd5b611f346113d9565b1515611f3f57600080fd5b6001600060146101000a81548160ff021916908315150217905550565b600060149054906101000a900460ff16151515611fe1576040517f08c379a00000000000000000000000000000000000000000000000000000000081526004018080602001828103825260178152602001807f47616d652073686f756c64206265206e6f74206f76657200000000000000000081525060200191505060405180910390fd5b600282829050111515612082576040517f08c379a00000000000000000000000000000000000000000000000000000000081526004018080602001828103825260228152602001807f50726f766964652061206e616d65206c6f6e676572207468616e20322063686181526020017f727300000000000000000000000000000000000000000000000000000000000081525060400191505060405180910390fd5b60208282905011151515612124576040517f08c379a00000000000000000000000000000000000000000000000000000000081526004018080602001828103825260248152602001807f50726f766964652061206e616d652073686f72746572207468616e203333206381526020017f686172730000000000000000000000000000000000000000000000000000000081525060400191505060405180910390fd5b600073ffffffffffffffffffffffffffffffffffffffff16600660003373ffffffffffffffffffffffffffffffffffffffff1673ffffffffffffffffffffffffffffffffffffffff16815260200190815260200160002060000160009054906101000a900473ffffffffffffffffffffffffffffffffffffffff1673ffffffffffffffffffffffffffffffffffffffff1614151561222a576040517f08c379a00000000000000000000000000000000000000000000000000000000081526004018080602001828103825260178152602001807f596f7520616c726561647920686176652061206e616d6500000000000000000081525060200191505060405180910390fd5b600073ffffffffffffffffffffffffffffffffffffffff166008838360405180838380828437820191505092505050908152602001604051809103902060009054906101000a900473ffffffffffffffffffffffffffffffffffffffff1673ffffffffffffffffffffffffffffffffffffffff16141515612313576040517f08c379a00000000000000000000000000000000000000000000000000000000081526004018080602001828103825260128152602001807f4e616d6520616c72656164792074616b656e000000000000000000000000000081525060200191505060405180910390fd5b60408051908101604052803373ffffffffffffffffffffffffffffffffffffffff16815260200183838080601f016020809104026020016040519081016040528093929190818152602001838380828437820191505050505050815250600660003373ffffffffffffffffffffffffffffffffffffffff1673ffffffffffffffffffffffffffffffffffffffff16815260200190815260200160002060008201518160000160006101000a81548173ffffffffffffffffffffffffffffffffffffffff021916908373ffffffffffffffffffffffffffffffffffffffff1602179055506020820151816001019080519060200190612412929190612fb9565b50905050336008838360405180838380828437820191505092505050908152602001604051809103902060006101000a81548173ffffffffffffffffffffffffffffffffffffffff021916908373ffffffffffffffffffffffffffffffffffffffff16021790555060073390806001815401808255809150509060018203906000526020600020016000909192909190916101000a81548173ffffffffffffffffffffffffffffffffffffffff021916908373ffffffffffffffffffffffffffffffffffffffff160217905550503373ffffffffffffffffffffffffffffffffffffffff167f1baf823fe862656b4bf0b5b9ce919ed86d595c8429b1153e99a9f52d7386062e8383604051808060200182810382528484828181526020019250808284378201915050935050505060405180910390a25050565b6125546113d9565b151561255f57600080fd5b61256881612ebf565b50565b600080600080600060149054906101000a900460ff161515156125f6576040517f08c379a00000000000000000000000000000000000000000000000000000000081526004018080602001828103825260178152602001807f47616d652073686f756c64206265206e6f74206f76657200000000000000000081525060200191505060405180910390fd5b662386f26fc10000341015151561269b576040517f08c379a00000000000000000000000000000000000000000000000000000000081526004018080602001828103825260218152602001807f48617320746f207374616b65206d6f7265207468616e20302e3031206574686581526020017f720000000000000000000000000000000000000000000000000000000000000081525060400191505060405180910390fd5b60008510151515612714576040517f08c379a00000000000000000000000000000000000000000000000000000000081526004018080602001828103825260118152602001807f43616e2774206265206e6567617469766500000000000000000000000000000081525060200191505060405180910390fd5b34851115151561278c576040517f08c379a000000000000000000000000000000000000000000000000000000000815260040180806020018281038252601a8152602001807f43616e277420626520626967676572207468616e207374616b6500000000000081525060200191505060405180910390fd5b600088889050111515612807576040517f08c379a00000000000000000000000000000000000000000000000000000000081526004018080602001828103825260128152602001807f48617320746f2062652061206d656e746f72000000000000000000000000000081525060200191505060405180910390fd5b600073ffffffffffffffffffffffffffffffffffffffff166008898960405180838380828437820191505092505050908152602001604051809103902060009054906101000a900473ffffffffffffffffffffffffffffffffffffffff1673ffffffffffffffffffffffffffffffffffffffff16141515156128f1576040517f08c379a000000000000000000000000000000000000000000000000000000000815260040180806020018281038252601b8152602001807f4d656e746f722068617320746f2062652072656769737465726564000000000081525060200191505060405180910390fd5b600086111515612969576040517f08c379a00000000000000000000000000000000000000000000000000000000081526004018080602001828103825260208152602001807f54696d652068617320746f2062652067726561746572207468616e207a65726f81525060200191505060405180910390fd5b6008888860405180838380828437820191505092505050908152602001604051809103902060009054906101000a900473ffffffffffffffffffffffffffffffffffffffff1692508273ffffffffffffffffffffffffffffffffffffffff163373ffffffffffffffffffffffffffffffffffffffff1614151515612a55576040517f08c379a000000000000000000000000000000000000000000000000000000000815260040180806020018281038252601b8152602001807f43616e2774206265206d656e746f7220746f20796f757273656c66000000000081525060200191505060405180910390fd5b429150600180610120604051908101604052803373ffffffffffffffffffffffffffffffffffffffff1681526020018d8d8080601f01602080910402602001604051908101604052809392919081815260200183838082843782019150505050505081526020013481526020018673ffffffffffffffffffffffffffffffffffffffff168152602001858152602001898152602001888152602001600015158152602001600015158152509080600181540180825580915050906001820390600052602060002090600802016000909192909190915060008201518160000160006101000a81548173ffffffffffffffffffffffffffffffffffffffff021916908373ffffffffffffffffffffffffffffffffffffffff1602179055506020820151816001019080519060200190612b8e929190612fb9565b506040820151816002015560608201518160030160006101000a81548173ffffffffffffffffffffffffffffffffffffffff021916908373ffffffffffffffffffffffffffffffffffffffff1602179055506080820151816004015560a0820151816005015560c0820151816006015560e08201518160070160006101000a81548160ff0219169083151502179055506101008201518160070160016101000a81548160ff0219169083151502179055505050039050336002600083815260200190815260200160002060006101000a81548173ffffffffffffffffffffffffffffffffffffffff021916908373ffffffffffffffffffffffffffffffffffffffff160217905550600360003373ffffffffffffffffffffffffffffffffffffffff1673ffffffffffffffffffffffffffffffffffffffff16815260200190815260200160002060008154809291906001019190505550826004600083815260200190815260200160002060006101000a81548173ffffffffffffffffffffffffffffffffffffffff021916908373ffffffffffffffffffffffffffffffffffffffff160217905550600560008473ffffffffffffffffffffffffffffffffffffffff1673ffffffffffffffffffffffffffffffffffffffff168152602001908152602001600020600081548092919060010191905055508273ffffffffffffffffffffffffffffffffffffffff163373ffffffffffffffffffffffffffffffffffffffff16827fb64646c3c4303e7440b2f4ef2242a61a49d30eb012e3a05bb6169d799eeaf0a98d8d34888d8d60405180806020018681526020018581526020018481526020018381526020018281038252888882818152602001925080828437820191505097505050505050505060405180910390a48093505050509695505050505050565b600080600083111515612e4857600080fd5b8284811515612e5357fe5b0490508091505092915050565b6000806000841415612e755760009150612e97565b8284029050828482811515612e8657fe5b04141515612e9357600080fd5b8091505b5092915050565b600080838311151515612eb057600080fd5b82840390508091505092915050565b600073ffffffffffffffffffffffffffffffffffffffff168173ffffffffffffffffffffffffffffffffffffffff1614151515612efb57600080fd5b8073ffffffffffffffffffffffffffffffffffffffff166000809054906101000a900473ffffffffffffffffffffffffffffffffffffffff1673ffffffffffffffffffffffffffffffffffffffff167f8be0079c531659141344cd1fd0a4f28419497f9722a3daafe3b4186f6b6457e060405160405180910390a3806000806101000a81548173ffffffffffffffffffffffffffffffffffffffff021916908373ffffffffffffffffffffffffffffffffffffffff16021790555050565b828054600181600116156101000203166002900490600052602060002090601f016020900481019282601f10612ffa57805160ff1916838001178555613028565b82800160010185558215613028579182015b8281111561302757825182559160200191906001019061300c565b5b5090506130359190613039565b5090565b61305b91905b8082111561305757600081600090555060010161303f565b5090565b905600a165627a7a72305820d0467c97c0347b417d0274a8d45cd39d124e1f86f80238c0bace3e0b3fb605620029",
  "source": "/// @title CoinPledge\n/// @author Igor Yalovoy\n/// @notice Reach your goals and have fun with friends\n/// @dev All function calls are currently implement without side effects\n/// @web: ylv.io\n/// @email: to@ylv.io\n/// @gitHub: https://github.com/ylv-io/coinpledge/tree/master\n/// @twitter: https://twitter.com/ylv_io\n\n// Proofs:\n// Public commitment as a motivator for weight loss (https://onlinelibrary.wiley.com/doi/pdf/10.1002/mar.20316)\n\n\npragma solidity ^0.4.24;\n\nimport \"openzeppelin-solidity/contracts/math/SafeMath.sol\";\nimport \"openzeppelin-solidity/contracts/ownership/Ownable.sol\";\n\ncontract CoinPledge is Ownable {\n\n  using SafeMath for uint256;\n\n  uint constant daysToResolve = 7 days;\n  uint constant bonusPercentage = 50;\n  uint constant serviceFeePercentage = 10;\n  uint constant minBonus = 1 finney;\n\n  struct Challenge {\n    address user;\n    string name;\n    uint value;\n    address mentor;\n    uint startDate;\n    uint time;\n    uint mentorFee;\n\n    bool successed;\n    bool resolved;\n  }\n\n  struct User {\n    address addr;\n    string name;\n  }\n\n  // Events\n  event NewChallenge(\n    uint indexed challengeId,\n    address indexed user,\n    string name,\n    uint value,\n    address indexed mentor,\n    uint startDate,\n    uint time,\n    uint mentorFee\n  );\n\n  event ChallengeResolved(\n    uint indexed challengeId,\n    address indexed user,\n    address indexed mentor,\n    bool decision\n  );\n\n  event BonusFundChanged(\n    address indexed user,\n    uint value\n  );\n\n  event NewUsername(\n    address indexed addr,\n    string name\n  );\n\n\n  event Donation(\n    string name,\n    string url,\n    uint value,\n    uint timestamp\n  );\n\n  /// @notice indicated is game over or not\n  bool public isGameOver;\n\n  /// @notice All Challenges\n  Challenge[] public challenges;\n\n  mapping(uint => address) public challengeToUser;\n  mapping(address => uint) public userToChallengeCount;\n\n  mapping(uint => address) public challengeToMentor;\n  mapping(address => uint) public mentorToChallengeCount;\n\n  /// @notice All Users\n  mapping(address => User) public users;\n  address[] public allUsers;\n  mapping(string => address) private usernameToAddress;\n  \n  /// @notice User's bonuses\n  mapping(address => uint) public bonusFund;\n\n  /// @notice Can access only if game is not over\n  modifier gameIsNotOver() {\n    require(!isGameOver, \"Game should be not over\");\n    _;\n  }\n\n  /// @notice Can access only if game is over\n  modifier gameIsOver() {\n    require(isGameOver, \"Game should be over\");\n    _;\n  }\n\n  /// @notice Get Bonus Fund For User\n  function getBonusFund(address user)\n  external\n  view\n  returns(uint) {\n    return bonusFund[user];\n  }\n\n  /// @notice Get Users Lenght\n  function getUsersCount()\n  external\n  view\n  returns(uint) {\n    return allUsers.length;\n  }\n\n  /// @notice Get Challenges For User\n  function getChallengesForUser(address user)\n  external\n  view\n  returns(uint[]) {\n    require(userToChallengeCount[user] > 0, \"Has zero challenges\");\n\n    uint[] memory result = new uint[](userToChallengeCount[user]);\n    uint counter = 0;\n    for (uint i = 0; i < challenges.length; i++) {\n      if (challengeToUser[i] == user)\n      {\n        result[counter] = i;\n        counter++;\n      }\n    }\n    return result;\n  }\n\n  /// @notice Get Challenges For Mentor\n  function getChallengesForMentor(address mentor)\n  external\n  view\n  returns(uint[]) {\n    require(mentorToChallengeCount[mentor] > 0, \"Has zero challenges\");\n\n    uint[] memory result = new uint[](mentorToChallengeCount[mentor]);\n    uint counter = 0;\n    for (uint i = 0; i < challenges.length; i++) {\n      if (challengeToMentor[i] == mentor)\n      {\n        result[counter] = i;\n        counter++;\n      }\n    }\n    return result;\n  }\n  \n  /// @notice Ends game\n  function gameOver()\n  external\n  gameIsNotOver\n  onlyOwner {\n    isGameOver = true;\n  }\n\n  /// @notice Set Username\n  function setUsername(string name)\n  external\n  gameIsNotOver {\n    require(bytes(name).length > 2, \"Provide a name longer than 2 chars\");\n    require(bytes(name).length <= 32, \"Provide a name shorter than 33 chars\");\n    require(users[msg.sender].addr == address(0x0), \"You already have a name\");\n    require(usernameToAddress[name] == address(0x0), \"Name already taken\");\n\n    users[msg.sender] = User(msg.sender, name);\n    usernameToAddress[name] = msg.sender;\n    allUsers.push(msg.sender);\n\n    emit NewUsername(msg.sender, name);\n  }\n\n  /// @notice Creates Challenge\n  function createChallenge(string name, string mentor, uint time, uint mentorFee)\n  external\n  payable\n  gameIsNotOver\n  returns (uint retId) {\n    require(msg.value >= 0.01 ether, \"Has to stake more than 0.01 ether\");\n    require(mentorFee >= 0 ether, \"Can't be negative\");\n    require(mentorFee <= msg.value, \"Can't be bigger than stake\");\n    require(bytes(mentor).length > 0, \"Has to be a mentor\");\n    require(usernameToAddress[mentor] != address(0x0), \"Mentor has to be registered\");\n    require(time > 0, \"Time has to be greater than zero\");\n\n    address mentorAddr = usernameToAddress[mentor];\n\n    require(msg.sender != mentorAddr, \"Can't be mentor to yourself\");\n\n    uint startDate = block.timestamp;\n    uint id = challenges.push(Challenge(msg.sender, name, msg.value, mentorAddr, startDate, time, mentorFee, false, false)) - 1;\n\n    challengeToUser[id] = msg.sender;\n    userToChallengeCount[msg.sender]++;\n\n    challengeToMentor[id] = mentorAddr;\n    mentorToChallengeCount[mentorAddr]++;\n\n    emit NewChallenge(id, msg.sender, name, msg.value, mentorAddr, startDate, time, mentorFee);\n\n    return id;\n  }\n\n  /// @notice Resolves Challenge\n  function resolveChallenge(uint challengeId, bool decision)\n  external\n  gameIsNotOver {\n    Challenge storage challenge = challenges[challengeId];\n    \n    require(challenge.resolved == false, \"Challenge already resolved.\");\n\n    // if more time passed than endDate + daysToResolve, then user can resolve himself\n    if(block.timestamp < (challenge.startDate + challenge.time + daysToResolve))\n      require(challenge.mentor == msg.sender, \"You are not the mentor for this challenge.\");\n    else require((challenge.user == msg.sender) || (challenge.mentor == msg.sender), \"You are not the user or mentor for this challenge.\");\n\n    uint mentorFee;\n    uint serviceFee;\n    \n    address user = challengeToUser[challengeId];\n    address mentor = challengeToMentor[challengeId];\n\n    // write decision\n    challenge.successed = decision;\n    challenge.resolved = true;\n\n    uint remainingValue = challenge.value;\n\n    // mentor & service fee\n    if(challenge.mentorFee > 0) {\n      serviceFee = challenge.mentorFee.div(100).mul(serviceFeePercentage);\n      mentorFee = challenge.mentorFee.div(100).mul(100 - serviceFeePercentage);\n    }\n    \n    if(challenge.mentorFee > 0)\n      remainingValue = challenge.value.sub(challenge.mentorFee);\n\n    uint valueToPay;\n\n    if(decision) {\n      // value to pay back to user\n      valueToPay = remainingValue;\n      // credit bouns if any\n      uint currentBonus = bonusFund[user];\n      if(currentBonus > 0)\n      {\n        uint bonusValue = bonusFund[user].div(100).mul(bonusPercentage);\n        if(currentBonus <= minBonus)\n          bonusValue = currentBonus;\n        bonusFund[user] -= bonusValue;\n        emit BonusFundChanged(user, bonusFund[user]);\n\n        valueToPay += bonusValue;\n      }\n    }\n    else {\n      bonusFund[user] += remainingValue;\n      emit BonusFundChanged(user, bonusFund[user]);\n    }\n\n    // pay back to the challenger\n    if(valueToPay > 0)\n      user.transfer(valueToPay);\n\n    if(mentorFee > 0)\n      mentor.transfer(mentorFee);\n\n    if(serviceFee > 0)\n      owner().transfer(serviceFee);\n\n    emit ChallengeResolved(challengeId, user, mentor, decision);\n  }\n\n  function withdraw()\n  external\n  gameIsOver {\n    require(bonusFund[msg.sender] > 0, \"You do not have any funds\");\n\n    uint funds = bonusFund[msg.sender];\n    bonusFund[msg.sender] = 0;\n    msg.sender.transfer(funds);\n  }\n\n  function donate(string name, string url)\n  external\n  payable\n  gameIsNotOver {\n    owner().transfer(msg.value);\n    emit Donation(name, url, msg.value, block.timestamp);\n  }\n}",
  "sourcePath": "/Users/iYalovoy/Dropbox (Personal)/Development/coinpledge/contracts/CoinPledge.sol",
  "compiler": {
    "name": "solc",
    "version": "0.4.24+commit.e67f0147.Emscripten.clang"
  },
  "schemaVersion": "2.0.1",
  "updatedAt": "2018-11-16T10:08:38.521Z"
}