{
  "contractName": "CoinPledge",
  "abi": [
    {
      "constant": true,
      "inputs": [
        {
          "name": "",
          "type": "address"
        }
      ],
      "name": "bonusFund",
      "outputs": [
        {
          "name": "",
          "type": "uint256"
        }
      ],
      "payable": false,
      "stateMutability": "view",
      "type": "function"
    },
    {
      "constant": false,
      "inputs": [],
      "name": "renounceOwnership",
      "outputs": [],
      "payable": false,
      "stateMutability": "nonpayable",
      "type": "function"
    },
    {
      "constant": true,
      "inputs": [
        {
          "name": "",
          "type": "address"
        }
      ],
      "name": "userToChallengeCount",
      "outputs": [
        {
          "name": "",
          "type": "uint256"
        }
      ],
      "payable": false,
      "stateMutability": "view",
      "type": "function"
    },
    {
      "constant": true,
      "inputs": [],
      "name": "owner",
      "outputs": [
        {
          "name": "",
          "type": "address"
        }
      ],
      "payable": false,
      "stateMutability": "view",
      "type": "function"
    },
    {
      "constant": true,
      "inputs": [
        {
          "name": "",
          "type": "uint256"
        }
      ],
      "name": "challenges",
      "outputs": [
        {
          "name": "user",
          "type": "address"
        },
        {
          "name": "name",
          "type": "string"
        },
        {
          "name": "value",
          "type": "uint256"
        },
        {
          "name": "mentor",
          "type": "address"
        },
        {
          "name": "startDate",
          "type": "uint256"
        },
        {
          "name": "time",
          "type": "uint256"
        },
        {
          "name": "mentorFee",
          "type": "uint256"
        },
        {
          "name": "successed",
          "type": "bool"
        },
        {
          "name": "resolved",
          "type": "bool"
        }
      ],
      "payable": false,
      "stateMutability": "view",
      "type": "function"
    },
    {
      "constant": true,
      "inputs": [],
      "name": "isOwner",
      "outputs": [
        {
          "name": "",
          "type": "bool"
        }
      ],
      "payable": false,
      "stateMutability": "view",
      "type": "function"
    },
    {
      "constant": true,
      "inputs": [
        {
          "name": "",
          "type": "address"
        }
      ],
      "name": "mentorToChallengeCount",
      "outputs": [
        {
          "name": "",
          "type": "uint256"
        }
      ],
      "payable": false,
      "stateMutability": "view",
      "type": "function"
    },
    {
      "constant": true,
      "inputs": [
        {
          "name": "",
          "type": "uint256"
        }
      ],
      "name": "challengeToUser",
      "outputs": [
        {
          "name": "",
          "type": "address"
        }
      ],
      "payable": false,
      "stateMutability": "view",
      "type": "function"
    },
    {
      "constant": true,
      "inputs": [
        {
          "name": "",
          "type": "uint256"
        }
      ],
      "name": "allUsers",
      "outputs": [
        {
          "name": "",
          "type": "address"
        }
      ],
      "payable": false,
      "stateMutability": "view",
      "type": "function"
    },
    {
      "constant": true,
      "inputs": [
        {
          "name": "",
          "type": "address"
        }
      ],
      "name": "users",
      "outputs": [
        {
          "name": "addr",
          "type": "address"
        },
        {
          "name": "name",
          "type": "string"
        }
      ],
      "payable": false,
      "stateMutability": "view",
      "type": "function"
    },
    {
      "constant": true,
      "inputs": [
        {
          "name": "",
          "type": "uint256"
        }
      ],
      "name": "challengeToMentor",
      "outputs": [
        {
          "name": "",
          "type": "address"
        }
      ],
      "payable": false,
      "stateMutability": "view",
      "type": "function"
    },
    {
      "constant": false,
      "inputs": [
        {
          "name": "newOwner",
          "type": "address"
        }
      ],
      "name": "transferOwnership",
      "outputs": [],
      "payable": false,
      "stateMutability": "nonpayable",
      "type": "function"
    },
    {
      "anonymous": false,
      "inputs": [
        {
          "indexed": true,
          "name": "challengeId",
          "type": "uint256"
        },
        {
          "indexed": true,
          "name": "user",
          "type": "address"
        },
        {
          "indexed": false,
          "name": "name",
          "type": "string"
        },
        {
          "indexed": false,
          "name": "value",
          "type": "uint256"
        },
        {
          "indexed": true,
          "name": "mentor",
          "type": "address"
        },
        {
          "indexed": false,
          "name": "startDate",
          "type": "uint256"
        },
        {
          "indexed": false,
          "name": "time",
          "type": "uint256"
        },
        {
          "indexed": false,
          "name": "mentorFee",
          "type": "uint256"
        }
      ],
      "name": "NewChallenge",
      "type": "event"
    },
    {
      "anonymous": false,
      "inputs": [
        {
          "indexed": true,
          "name": "challengeId",
          "type": "uint256"
        },
        {
          "indexed": true,
          "name": "user",
          "type": "address"
        },
        {
          "indexed": true,
          "name": "mentor",
          "type": "address"
        },
        {
          "indexed": false,
          "name": "decision",
          "type": "bool"
        }
      ],
      "name": "ChallengeResolved",
      "type": "event"
    },
    {
      "anonymous": false,
      "inputs": [
        {
          "indexed": true,
          "name": "user",
          "type": "address"
        },
        {
          "indexed": false,
          "name": "value",
          "type": "uint256"
        }
      ],
      "name": "BonusFundChanged",
      "type": "event"
    },
    {
      "anonymous": false,
      "inputs": [
        {
          "indexed": true,
          "name": "addr",
          "type": "address"
        },
        {
          "indexed": false,
          "name": "name",
          "type": "string"
        }
      ],
      "name": "NewUsername",
      "type": "event"
    },
    {
      "anonymous": false,
      "inputs": [
        {
          "indexed": true,
          "name": "previousOwner",
          "type": "address"
        },
        {
          "indexed": true,
          "name": "newOwner",
          "type": "address"
        }
      ],
      "name": "OwnershipTransferred",
      "type": "event"
    },
    {
      "constant": true,
      "inputs": [
        {
          "name": "user",
          "type": "address"
        }
      ],
      "name": "getBonusFund",
      "outputs": [
        {
          "name": "",
          "type": "uint256"
        }
      ],
      "payable": false,
      "stateMutability": "view",
      "type": "function"
    },
    {
      "constant": true,
      "inputs": [],
      "name": "getUsersCount",
      "outputs": [
        {
          "name": "",
          "type": "uint256"
        }
      ],
      "payable": false,
      "stateMutability": "view",
      "type": "function"
    },
    {
      "constant": true,
      "inputs": [
        {
          "name": "user",
          "type": "address"
        }
      ],
      "name": "getChallengesForUser",
      "outputs": [
        {
          "name": "",
          "type": "uint256[]"
        }
      ],
      "payable": false,
      "stateMutability": "view",
      "type": "function"
    },
    {
      "constant": true,
      "inputs": [
        {
          "name": "mentor",
          "type": "address"
        }
      ],
      "name": "getChallengesForMentor",
      "outputs": [
        {
          "name": "",
          "type": "uint256[]"
        }
      ],
      "payable": false,
      "stateMutability": "view",
      "type": "function"
    },
    {
      "constant": false,
      "inputs": [
        {
          "name": "name",
          "type": "string"
        }
      ],
      "name": "setUsername",
      "outputs": [],
      "payable": false,
      "stateMutability": "nonpayable",
      "type": "function"
    },
    {
      "constant": false,
      "inputs": [
        {
          "name": "name",
          "type": "string"
        },
        {
          "name": "mentor",
          "type": "string"
        },
        {
          "name": "time",
          "type": "uint256"
        },
        {
          "name": "mentorFee",
          "type": "uint256"
        }
      ],
      "name": "createChallenge",
      "outputs": [
        {
          "name": "retId",
          "type": "uint256"
        }
      ],
      "payable": true,
      "stateMutability": "payable",
      "type": "function"
    },
    {
      "constant": false,
      "inputs": [
        {
          "name": "challengeId",
          "type": "uint256"
        },
        {
          "name": "decision",
          "type": "bool"
        }
      ],
      "name": "resolveChallenge",
      "outputs": [],
      "payable": false,
      "stateMutability": "nonpayable",
      "type": "function"
    }
  ],
  "bytecode": "0x6080604052336000806101000a81548173ffffffffffffffffffffffffffffffffffffffff021916908373ffffffffffffffffffffffffffffffffffffffff1602179055506000809054906101000a900473ffffffffffffffffffffffffffffffffffffffff1673ffffffffffffffffffffffffffffffffffffffff16600073ffffffffffffffffffffffffffffffffffffffff167f8be0079c531659141344cd1fd0a4f28419497f9722a3daafe3b4186f6b6457e060405160405180910390a36129fb806100cf6000396000f300608060405260043610610107576000357c0100000000000000000000000000000000000000000000000000000000900463ffffffff1680631906a3d61461010c57806329fc550f1461016357806341c9028c146101fb5780634af79ba214610252578063715018a6146102ea57806386ddf4dd146103015780638da5cb5b146103585780638f1d3776146103af5780638f32d59b146104ed5780639077c6761461051c57806394a754e0146105735780639c1bea8c146105ac578063a2bdedf414610619578063a4a1e26314610686578063a87430ba146106b1578063acc60606146107a0578063ed59313a1461080d578063f2fde38b14610848578063f352c45c1461088b575b600080fd5b34801561011857600080fd5b5061014d600480360381019080803573ffffffffffffffffffffffffffffffffffffffff1690602001909291905050506108f9565b6040518082815260200191505060405180910390f35b34801561016f57600080fd5b506101a4600480360381019080803573ffffffffffffffffffffffffffffffffffffffff169060200190929190505050610942565b6040518080602001828103825283818151815260200191508051906020019060200280838360005b838110156101e75780820151818401526020810190506101cc565b505050509050019250505060405180910390f35b34801561020757600080fd5b5061023c600480360381019080803573ffffffffffffffffffffffffffffffffffffffff169060200190929190505050610b2b565b6040518082815260200191505060405180910390f35b34801561025e57600080fd5b50610293600480360381019080803573ffffffffffffffffffffffffffffffffffffffff169060200190929190505050610b43565b6040518080602001828103825283818151815260200191508051906020019060200280838360005b838110156102d65780820151818401526020810190506102bb565b505050509050019250505060405180910390f35b3480156102f657600080fd5b506102ff610d2c565b005b34801561030d57600080fd5b50610342600480360381019080803573ffffffffffffffffffffffffffffffffffffffff169060200190929190505050610dfe565b6040518082815260200191505060405180910390f35b34801561036457600080fd5b5061036d610e16565b604051808273ffffffffffffffffffffffffffffffffffffffff1673ffffffffffffffffffffffffffffffffffffffff16815260200191505060405180910390f35b3480156103bb57600080fd5b506103da60048036038101908080359060200190929190505050610e3f565b604051808a73ffffffffffffffffffffffffffffffffffffffff1673ffffffffffffffffffffffffffffffffffffffff168152602001806020018981526020018873ffffffffffffffffffffffffffffffffffffffff1673ffffffffffffffffffffffffffffffffffffffff168152602001878152602001868152602001858152602001841515151581526020018315151515815260200182810382528a818151815260200191508051906020019080838360005b838110156104aa57808201518184015260208101905061048f565b50505050905090810190601f1680156104d75780820380516001836020036101000a031916815260200191505b509a505050505050505050505060405180910390f35b3480156104f957600080fd5b50610502610f8e565b604051808215151515815260200191505060405180910390f35b34801561052857600080fd5b5061055d600480360381019080803573ffffffffffffffffffffffffffffffffffffffff169060200190929190505050610fe5565b6040518082815260200191505060405180910390f35b34801561057f57600080fd5b506105aa60048036038101908080359060200190929190803515159060200190929190505050610ffd565b005b3480156105b857600080fd5b506105d76004803603810190808035906020019092919050505061184b565b604051808273ffffffffffffffffffffffffffffffffffffffff1673ffffffffffffffffffffffffffffffffffffffff16815260200191505060405180910390f35b34801561062557600080fd5b506106446004803603810190808035906020019092919050505061187e565b604051808273ffffffffffffffffffffffffffffffffffffffff1673ffffffffffffffffffffffffffffffffffffffff16815260200191505060405180910390f35b34801561069257600080fd5b5061069b6118bc565b6040518082815260200191505060405180910390f35b3480156106bd57600080fd5b506106f2600480360381019080803573ffffffffffffffffffffffffffffffffffffffff1690602001909291905050506118c9565b604051808373ffffffffffffffffffffffffffffffffffffffff1673ffffffffffffffffffffffffffffffffffffffff16815260200180602001828103825283818151815260200191508051906020019080838360005b83811015610764578082015181840152602081019050610749565b50505050905090810190601f1680156107915780820380516001836020036101000a031916815260200191505b50935050505060405180910390f35b3480156107ac57600080fd5b506107cb600480360381019080803590602001909291905050506119a5565b604051808273ffffffffffffffffffffffffffffffffffffffff1673ffffffffffffffffffffffffffffffffffffffff16815260200191505060405180910390f35b34801561081957600080fd5b506108466004803603810190808035906020019082018035906020019190919293919293905050506119d8565b005b34801561085457600080fd5b50610889600480360381019080803573ffffffffffffffffffffffffffffffffffffffff169060200190929190505050611f42565b005b6108e36004803603810190808035906020019082018035906020019190919293919293908035906020019082018035906020019190919293919293908035906020019092919080359060200190929190505050611f61565b6040518082815260200191505060405180910390f35b6000600960008373ffffffffffffffffffffffffffffffffffffffff1673ffffffffffffffffffffffffffffffffffffffff168152602001908152602001600020549050919050565b6060806000806000600360008773ffffffffffffffffffffffffffffffffffffffff1673ffffffffffffffffffffffffffffffffffffffff168152602001908152602001600020541115156109ff576040517f08c379a00000000000000000000000000000000000000000000000000000000081526004018080602001828103825260138152602001807f486173207a65726f206368616c6c656e6765730000000000000000000000000081525060200191505060405180910390fd5b600360008673ffffffffffffffffffffffffffffffffffffffff1673ffffffffffffffffffffffffffffffffffffffff16815260200190815260200160002054604051908082528060200260200182016040528015610a6d5781602001602082028038833980820191505090505b50925060009150600090505b600180549050811015610b20578473ffffffffffffffffffffffffffffffffffffffff166002600083815260200190815260200160002060009054906101000a900473ffffffffffffffffffffffffffffffffffffffff1673ffffffffffffffffffffffffffffffffffffffff161415610b1357808383815181101515610afc57fe5b906020019060200201818152505081806001019250505b8080600101915050610a79565b829350505050919050565b60096020528060005260406000206000915090505481565b6060806000806000600560008773ffffffffffffffffffffffffffffffffffffffff1673ffffffffffffffffffffffffffffffffffffffff16815260200190815260200160002054111515610c00576040517f08c379a00000000000000000000000000000000000000000000000000000000081526004018080602001828103825260138152602001807f486173207a65726f206368616c6c656e6765730000000000000000000000000081525060200191505060405180910390fd5b600560008673ffffffffffffffffffffffffffffffffffffffff1673ffffffffffffffffffffffffffffffffffffffff16815260200190815260200160002054604051908082528060200260200182016040528015610c6e5781602001602082028038833980820191505090505b50925060009150600090505b600180549050811015610d21578473ffffffffffffffffffffffffffffffffffffffff166004600083815260200190815260200160002060009054906101000a900473ffffffffffffffffffffffffffffffffffffffff1673ffffffffffffffffffffffffffffffffffffffff161415610d1457808383815181101515610cfd57fe5b906020019060200201818152505081806001019250505b8080600101915050610c7a565b829350505050919050565b610d34610f8e565b1515610d3f57600080fd5b600073ffffffffffffffffffffffffffffffffffffffff166000809054906101000a900473ffffffffffffffffffffffffffffffffffffffff1673ffffffffffffffffffffffffffffffffffffffff167f8be0079c531659141344cd1fd0a4f28419497f9722a3daafe3b4186f6b6457e060405160405180910390a360008060006101000a81548173ffffffffffffffffffffffffffffffffffffffff021916908373ffffffffffffffffffffffffffffffffffffffff160217905550565b60036020528060005260406000206000915090505481565b60008060009054906101000a900473ffffffffffffffffffffffffffffffffffffffff16905090565b600181815481101515610e4e57fe5b90600052602060002090600802016000915090508060000160009054906101000a900473ffffffffffffffffffffffffffffffffffffffff1690806001018054600181600116156101000203166002900480601f016020809104026020016040519081016040528092919081815260200182805460018160011615610100020316600290048015610f205780601f10610ef557610100808354040283529160200191610f20565b820191906000526020600020905b815481529060010190602001808311610f0357829003601f168201915b5050505050908060020154908060030160009054906101000a900473ffffffffffffffffffffffffffffffffffffffff16908060040154908060050154908060060154908060070160009054906101000a900460ff16908060070160019054906101000a900460ff16905089565b60008060009054906101000a900473ffffffffffffffffffffffffffffffffffffffff1673ffffffffffffffffffffffffffffffffffffffff163373ffffffffffffffffffffffffffffffffffffffff1614905090565b60056020528060005260406000206000915090505481565b600080600080600080600080600060018b81548110151561101a57fe5b90600052602060002090600802019850600015158960070160019054906101000a900460ff1615151415156110b7576040517f08c379a000000000000000000000000000000000000000000000000000000000815260040180806020018281038252601b8152602001807f4368616c6c656e676520616c7265616479207265736f6c7665642e000000000081525060200191505060405180910390fd5b62093a8089600501548a6004015401014210156111c0573373ffffffffffffffffffffffffffffffffffffffff168960030160009054906101000a900473ffffffffffffffffffffffffffffffffffffffff1673ffffffffffffffffffffffffffffffffffffffff161415156111bb576040517f08c379a000000000000000000000000000000000000000000000000000000000815260040180806020018281038252602a8152602001807f596f7520617265206e6f7420746865206d656e746f7220666f7220746869732081526020017f6368616c6c656e67652e0000000000000000000000000000000000000000000081525060400191505060405180910390fd5b611308565b3373ffffffffffffffffffffffffffffffffffffffff168960000160009054906101000a900473ffffffffffffffffffffffffffffffffffffffff1673ffffffffffffffffffffffffffffffffffffffff16148061126d57503373ffffffffffffffffffffffffffffffffffffffff168960030160009054906101000a900473ffffffffffffffffffffffffffffffffffffffff1673ffffffffffffffffffffffffffffffffffffffff16145b1515611307576040517f08c379a00000000000000000000000000000000000000000000000000000000081526004018080602001828103825260328152602001807f596f7520617265206e6f74207468652075736572206f72206d656e746f72206681526020017f6f722074686973206368616c6c656e67652e000000000000000000000000000081525060400191505060405180910390fd5b5b600260008c815260200190815260200160002060009054906101000a900473ffffffffffffffffffffffffffffffffffffffff169550600460008c815260200190815260200160002060009054906101000a900473ffffffffffffffffffffffffffffffffffffffff169450898960070160006101000a81548160ff02191690831515021790555060018960070160016101000a81548160ff0219169083151502179055508860020154935060008960060154111561141f576113ec600a6113de60648c600601546127a790919063ffffffff16565b6127d190919063ffffffff16565b965061141c600a60640361140e60648c600601546127a790919063ffffffff16565b6127d190919063ffffffff16565b97505b60008960060154111561144a5761144789600601548a6002015461280f90919063ffffffff16565b93505b89156115ff57839250600960008773ffffffffffffffffffffffffffffffffffffffff1673ffffffffffffffffffffffffffffffffffffffff16815260200190815260200160002054915060008211156115fa5761150460326114f66064600960008b73ffffffffffffffffffffffffffffffffffffffff1673ffffffffffffffffffffffffffffffffffffffff168152602001908152602001600020546127a790919063ffffffff16565b6127d190919063ffffffff16565b905066038d7ea4c680008211151561151a578190505b80600960008873ffffffffffffffffffffffffffffffffffffffff1673ffffffffffffffffffffffffffffffffffffffff168152602001908152602001600020600082825403925050819055508573ffffffffffffffffffffffffffffffffffffffff167f0bfe400dd6d1d0d9446725bc045151fad50d6e8c93d65a20134b05ce6081f43e600960008973ffffffffffffffffffffffffffffffffffffffff1673ffffffffffffffffffffffffffffffffffffffff168152602001908152602001600020546040518082815260200191505060405180910390a280830192505b6116da565b83600960008873ffffffffffffffffffffffffffffffffffffffff1673ffffffffffffffffffffffffffffffffffffffff168152602001908152602001600020600082825401925050819055508573ffffffffffffffffffffffffffffffffffffffff167f0bfe400dd6d1d0d9446725bc045151fad50d6e8c93d65a20134b05ce6081f43e600960008973ffffffffffffffffffffffffffffffffffffffff1673ffffffffffffffffffffffffffffffffffffffff168152602001908152602001600020546040518082815260200191505060405180910390a25b600083111561172b578573ffffffffffffffffffffffffffffffffffffffff166108fc849081150290604051600060405180830381858888f19350505050158015611729573d6000803e3d6000fd5b505b600088111561177c578473ffffffffffffffffffffffffffffffffffffffff166108fc899081150290604051600060405180830381858888f1935050505015801561177a573d6000803e3d6000fd5b505b60008711156117d45761178d610e16565b73ffffffffffffffffffffffffffffffffffffffff166108fc889081150290604051600060405180830381858888f193505050501580156117d2573d6000803e3d6000fd5b505b8473ffffffffffffffffffffffffffffffffffffffff168673ffffffffffffffffffffffffffffffffffffffff168c7f7594a05a49b456a2fb34d3357cbaf2070ff1c0568ae96c6d9720e166d705fecb8d604051808215151515815260200191505060405180910390a45050505050505050505050565b60026020528060005260406000206000915054906101000a900473ffffffffffffffffffffffffffffffffffffffff1681565b60078181548110151561188d57fe5b906000526020600020016000915054906101000a900473ffffffffffffffffffffffffffffffffffffffff1681565b6000600780549050905090565b60066020528060005260406000206000915090508060000160009054906101000a900473ffffffffffffffffffffffffffffffffffffffff1690806001018054600181600116156101000203166002900480601f01602080910402602001604051908101604052809291908181526020018280546001816001161561010002031660029004801561199b5780601f106119705761010080835404028352916020019161199b565b820191906000526020600020905b81548152906001019060200180831161197e57829003601f168201915b5050505050905082565b60046020528060005260406000206000915054906101000a900473ffffffffffffffffffffffffffffffffffffffff1681565b600282829050111515611a79576040517f08c379a00000000000000000000000000000000000000000000000000000000081526004018080602001828103825260228152602001807f50726f766964652061206e616d65206c6f6e676572207468616e20322063686181526020017f727300000000000000000000000000000000000000000000000000000000000081525060400191505060405180910390fd5b602082829050101515611b1a576040517f08c379a00000000000000000000000000000000000000000000000000000000081526004018080602001828103825260248152602001807f50726f766964652061206e616d652073686f72746572207468616e203332206381526020017f686172730000000000000000000000000000000000000000000000000000000081525060400191505060405180910390fd5b600073ffffffffffffffffffffffffffffffffffffffff16600660003373ffffffffffffffffffffffffffffffffffffffff1673ffffffffffffffffffffffffffffffffffffffff16815260200190815260200160002060000160009054906101000a900473ffffffffffffffffffffffffffffffffffffffff1673ffffffffffffffffffffffffffffffffffffffff16141515611c20576040517f08c379a00000000000000000000000000000000000000000000000000000000081526004018080602001828103825260178152602001807f596f7520616c726561647920686176652061206e616d6500000000000000000081525060200191505060405180910390fd5b600073ffffffffffffffffffffffffffffffffffffffff166008838360405180838380828437820191505092505050908152602001604051809103902060009054906101000a900473ffffffffffffffffffffffffffffffffffffffff1673ffffffffffffffffffffffffffffffffffffffff16141515611d09576040517f08c379a00000000000000000000000000000000000000000000000000000000081526004018080602001828103825260128152602001807f4e616d6520616c72656164792074616b656e000000000000000000000000000081525060200191505060405180910390fd5b60408051908101604052803373ffffffffffffffffffffffffffffffffffffffff16815260200183838080601f016020809104026020016040519081016040528093929190818152602001838380828437820191505050505050815250600660003373ffffffffffffffffffffffffffffffffffffffff1673ffffffffffffffffffffffffffffffffffffffff16815260200190815260200160002060008201518160000160006101000a81548173ffffffffffffffffffffffffffffffffffffffff021916908373ffffffffffffffffffffffffffffffffffffffff1602179055506020820151816001019080519060200190611e0892919061292a565b50905050336008838360405180838380828437820191505092505050908152602001604051809103902060006101000a81548173ffffffffffffffffffffffffffffffffffffffff021916908373ffffffffffffffffffffffffffffffffffffffff16021790555060073390806001815401808255809150509060018203906000526020600020016000909192909190916101000a81548173ffffffffffffffffffffffffffffffffffffffff021916908373ffffffffffffffffffffffffffffffffffffffff160217905550503373ffffffffffffffffffffffffffffffffffffffff167f1baf823fe862656b4bf0b5b9ce919ed86d595c8429b1153e99a9f52d7386062e8383604051808060200182810382528484828181526020019250808284378201915050935050505060405180910390a25050565b611f4a610f8e565b1515611f5557600080fd5b611f5e81612830565b50565b600080600080662386f26fc10000341015151561200c576040517f08c379a00000000000000000000000000000000000000000000000000000000081526004018080602001828103825260218152602001807f48617320746f207374616b65206d6f7265207468616e20302e3031206574686581526020017f720000000000000000000000000000000000000000000000000000000000000081525060400191505060405180910390fd5b60008510151515612085576040517f08c379a00000000000000000000000000000000000000000000000000000000081526004018080602001828103825260118152602001807f43616e2774206265206e6567617469766500000000000000000000000000000081525060200191505060405180910390fd5b3485111515156120fd576040517f08c379a000000000000000000000000000000000000000000000000000000000815260040180806020018281038252601a8152602001807f43616e277420626520626967676572207468616e207374616b6500000000000081525060200191505060405180910390fd5b600088889050111515612178576040517f08c379a00000000000000000000000000000000000000000000000000000000081526004018080602001828103825260128152602001807f48617320746f2062652061206d656e746f72000000000000000000000000000081525060200191505060405180910390fd5b600073ffffffffffffffffffffffffffffffffffffffff166008898960405180838380828437820191505092505050908152602001604051809103902060009054906101000a900473ffffffffffffffffffffffffffffffffffffffff1673ffffffffffffffffffffffffffffffffffffffff1614151515612262576040517f08c379a000000000000000000000000000000000000000000000000000000000815260040180806020018281038252601b8152602001807f4d656e746f722068617320746f2062652072656769737465726564000000000081525060200191505060405180910390fd5b6000861115156122da576040517f08c379a00000000000000000000000000000000000000000000000000000000081526004018080602001828103825260208152602001807f54696d652068617320746f2062652067726561746572207468616e207a65726f81525060200191505060405180910390fd5b6008888860405180838380828437820191505092505050908152602001604051809103902060009054906101000a900473ffffffffffffffffffffffffffffffffffffffff1692508273ffffffffffffffffffffffffffffffffffffffff163373ffffffffffffffffffffffffffffffffffffffff16141515156123c6576040517f08c379a000000000000000000000000000000000000000000000000000000000815260040180806020018281038252601b8152602001807f43616e2774206265206d656e746f7220746f20796f757273656c66000000000081525060200191505060405180910390fd5b429150600180610120604051908101604052803373ffffffffffffffffffffffffffffffffffffffff1681526020018d8d8080601f01602080910402602001604051908101604052809392919081815260200183838082843782019150505050505081526020013481526020018673ffffffffffffffffffffffffffffffffffffffff168152602001858152602001898152602001888152602001600015158152602001600015158152509080600181540180825580915050906001820390600052602060002090600802016000909192909190915060008201518160000160006101000a81548173ffffffffffffffffffffffffffffffffffffffff021916908373ffffffffffffffffffffffffffffffffffffffff16021790555060208201518160010190805190602001906124ff92919061292a565b506040820151816002015560608201518160030160006101000a81548173ffffffffffffffffffffffffffffffffffffffff021916908373ffffffffffffffffffffffffffffffffffffffff1602179055506080820151816004015560a0820151816005015560c0820151816006015560e08201518160070160006101000a81548160ff0219169083151502179055506101008201518160070160016101000a81548160ff0219169083151502179055505050039050336002600083815260200190815260200160002060006101000a81548173ffffffffffffffffffffffffffffffffffffffff021916908373ffffffffffffffffffffffffffffffffffffffff160217905550600360003373ffffffffffffffffffffffffffffffffffffffff1673ffffffffffffffffffffffffffffffffffffffff16815260200190815260200160002060008154809291906001019190505550826004600083815260200190815260200160002060006101000a81548173ffffffffffffffffffffffffffffffffffffffff021916908373ffffffffffffffffffffffffffffffffffffffff160217905550600560008473ffffffffffffffffffffffffffffffffffffffff1673ffffffffffffffffffffffffffffffffffffffff168152602001908152602001600020600081548092919060010191905055508273ffffffffffffffffffffffffffffffffffffffff163373ffffffffffffffffffffffffffffffffffffffff16827fb64646c3c4303e7440b2f4ef2242a61a49d30eb012e3a05bb6169d799eeaf0a98d8d34888d8d60405180806020018681526020018581526020018481526020018381526020018281038252888882818152602001925080828437820191505097505050505050505060405180910390a48093505050509695505050505050565b6000806000831115156127b957600080fd5b82848115156127c457fe5b0490508091505092915050565b60008060008414156127e65760009150612808565b82840290508284828115156127f757fe5b0414151561280457600080fd5b8091505b5092915050565b60008083831115151561282157600080fd5b82840390508091505092915050565b600073ffffffffffffffffffffffffffffffffffffffff168173ffffffffffffffffffffffffffffffffffffffff161415151561286c57600080fd5b8073ffffffffffffffffffffffffffffffffffffffff166000809054906101000a900473ffffffffffffffffffffffffffffffffffffffff1673ffffffffffffffffffffffffffffffffffffffff167f8be0079c531659141344cd1fd0a4f28419497f9722a3daafe3b4186f6b6457e060405160405180910390a3806000806101000a81548173ffffffffffffffffffffffffffffffffffffffff021916908373ffffffffffffffffffffffffffffffffffffffff16021790555050565b828054600181600116156101000203166002900490600052602060002090601f016020900481019282601f1061296b57805160ff1916838001178555612999565b82800160010185558215612999579182015b8281111561299857825182559160200191906001019061297d565b5b5090506129a691906129aa565b5090565b6129cc91905b808211156129c85760008160009055506001016129b0565b5090565b905600a165627a7a72305820c49e856700733964b5dafbd734a7a6c3e291815ba7d4c6621fd971b1830240780029",
  "source": "/// @title CoinPledge\n/// @author Igor Yalovoy\n/// @notice Reach your goals and have fun with friends\n/// @dev All function calls are currently implement without side effects\n/// @web: ylv.io\n/// @email: to@ylv.io\n/// @gitHub: https://github.com/ylv-io/coinpledge/tree/master\n/// @twitter: https://twitter.com/ylv_io\n\n// Proofs:\n// Public commitment as a motivator for weight loss (https://onlinelibrary.wiley.com/doi/pdf/10.1002/mar.20316)\n\n\npragma solidity ^0.4.17;\n\nimport \"openzeppelin-solidity/contracts/math/SafeMath.sol\";\nimport \"openzeppelin-solidity/contracts/ownership/Ownable.sol\";\nimport \"openzeppelin-solidity/contracts/payment/PullPayment.sol\";\n\ncontract CoinPledge is Ownable {\n\n  using SafeMath for uint256;\n\n  uint constant daysToResolve = 7 days;\n  uint constant bonusPercentage = 50;\n  uint constant serviceFeePercentage = 10;\n  uint constant minBonus = 1 finney;\n\n  struct Challenge {\n    address user;\n    string name;\n    uint value;\n    address mentor;\n    uint startDate;\n    uint time;\n    uint mentorFee;\n\n    bool successed;\n    bool resolved;\n  }\n\n  struct User {\n    address addr;\n    string name;\n  }\n\n  // Events\n  event NewChallenge(\n    uint indexed challengeId,\n    address indexed user,\n    string name,\n    uint value,\n    address indexed mentor,\n    uint startDate,\n    uint time,\n    uint mentorFee\n  );\n\n  event ChallengeResolved(\n    uint indexed challengeId,\n    address indexed user,\n    address indexed mentor,\n    bool decision\n  );\n\n  event BonusFundChanged(\n    address indexed user,\n    uint value\n  );\n\n  event NewUsername(\n    address indexed addr,\n    string name\n  );\n\n  /// @notice All Challenges\n  Challenge[] public challenges;\n\n  mapping(uint => address) public challengeToUser;\n  mapping(address => uint) public userToChallengeCount;\n\n  mapping(uint => address) public challengeToMentor;\n  mapping(address => uint) public mentorToChallengeCount;\n\n  /// @notice All Users\n  mapping(address => User) public users;\n  address[] public allUsers;\n  mapping(string => address) private usernameToAddress;\n  \n  /// @notice User's bonuses\n  mapping(address => uint) public bonusFund;\n\n  /// @notice Get Bonus Fund For User\n  function getBonusFund(address user)\n  external\n  view\n  returns(uint) {\n    return bonusFund[user];\n  }\n\n\n  /// @notice Get Users Lenght\n  function getUsersCount()\n  external\n  view\n  returns(uint) {\n    return allUsers.length;\n  }\n\n\n  /// @notice Get Challenges For User\n  function getChallengesForUser(address user)\n  external\n  view\n  returns(uint[]) {\n    require(userToChallengeCount[user] > 0, \"Has zero challenges\");\n\n    uint[] memory result = new uint[](userToChallengeCount[user]);\n    uint counter = 0;\n    for (uint i = 0; i < challenges.length; i++) {\n      if (challengeToUser[i] == user)\n      {\n        result[counter] = i;\n        counter++;\n      }\n    }\n    return result;\n  }\n\n  /// @notice Get Challenges For Mentor\n  function getChallengesForMentor(address mentor)\n  external\n  view\n  returns(uint[]) {\n    require(mentorToChallengeCount[mentor] > 0, \"Has zero challenges\");\n\n    uint[] memory result = new uint[](mentorToChallengeCount[mentor]);\n    uint counter = 0;\n    for (uint i = 0; i < challenges.length; i++) {\n      if (challengeToMentor[i] == mentor)\n      {\n        result[counter] = i;\n        counter++;\n      }\n    }\n    return result;\n  }\n\n  /// @notice Set Username\n\n  function setUsername(string name)\n  external {\n    require(bytes(name).length > 2, \"Provide a name longer than 2 chars\");\n    require(bytes(name).length < 32, \"Provide a name shorter than 32 chars\");\n    require(users[msg.sender].addr == address(0x0), \"You already have a name\");\n    require(usernameToAddress[name] == address(0x0), \"Name already taken\");\n\n    users[msg.sender] = User(msg.sender, name);\n    usernameToAddress[name] = msg.sender;\n    allUsers.push(msg.sender);\n\n    emit NewUsername(msg.sender, name);\n  }\n\n  /// @notice Creates Challenge\n  function createChallenge(string name, string mentor, uint time, uint mentorFee)\n  external\n  payable\n  returns (uint retId) {\n    require(msg.value >= 0.01 ether, \"Has to stake more than 0.01 ether\");\n    require(mentorFee >= 0 ether, \"Can't be negative\");\n    require(mentorFee <= msg.value, \"Can't be bigger than stake\");\n    require(bytes(mentor).length > 0, \"Has to be a mentor\");\n    require(usernameToAddress[mentor] != address(0x0), \"Mentor has to be registered\");\n    require(time > 0, \"Time has to be greater than zero\");\n\n    address mentorAddr = usernameToAddress[mentor];\n\n    require(msg.sender != mentorAddr, \"Can't be mentor to yourself\");\n\n    uint startDate = block.timestamp;\n    uint id = challenges.push(Challenge(msg.sender, name, msg.value, mentorAddr, startDate, time, mentorFee, false, false)) - 1;\n\n    challengeToUser[id] = msg.sender;\n    userToChallengeCount[msg.sender]++;\n\n    challengeToMentor[id] = mentorAddr;\n    mentorToChallengeCount[mentorAddr]++;\n\n    emit NewChallenge(id, msg.sender, name, msg.value, mentorAddr, startDate, time, mentorFee);\n\n    return id;\n  }\n\n  /// @notice Resolves Challenge\n  function resolveChallenge(uint challengeId, bool decision)\n  external {\n    Challenge storage challenge = challenges[challengeId];\n    \n    require(challenge.resolved == false, \"Challenge already resolved.\");\n\n    // if more time passed than endDate + daysToResolve, then user can resolve himself\n    if(block.timestamp < (challenge.startDate + challenge.time + daysToResolve))\n      require(challenge.mentor == msg.sender, \"You are not the mentor for this challenge.\");\n    else require((challenge.user == msg.sender) || (challenge.mentor == msg.sender), \"You are not the user or mentor for this challenge.\");\n\n    uint mentorFee;\n    uint serviceFee;\n    \n    address user = challengeToUser[challengeId];\n    address mentor = challengeToMentor[challengeId];\n\n    // write decision\n    challenge.successed = decision;\n    challenge.resolved = true;\n\n    uint remainingValue = challenge.value;\n\n    // mentor & service fee\n    if(challenge.mentorFee > 0) {\n      serviceFee = challenge.mentorFee.div(100).mul(serviceFeePercentage);\n      mentorFee = challenge.mentorFee.div(100).mul(100 - serviceFeePercentage);\n    }\n    \n    if(challenge.mentorFee > 0)\n      remainingValue = challenge.value.sub(challenge.mentorFee);\n\n    uint valueToPay;\n\n    if(decision) {\n      // value to pay back to user\n      valueToPay = remainingValue;\n      // credit bouns if any\n      uint currentBonus = bonusFund[user];\n      if(currentBonus > 0)\n      {\n        uint bonusValue = bonusFund[user].div(100).mul(bonusPercentage);\n        if(currentBonus <= minBonus)\n          bonusValue = currentBonus;\n        bonusFund[user] -= bonusValue;\n        emit BonusFundChanged(user, bonusFund[user]);\n\n        valueToPay += bonusValue;\n      }\n    }\n    else {\n      bonusFund[user] += remainingValue;\n      emit BonusFundChanged(user, bonusFund[user]);\n    }\n\n    // pay back to the challenger\n    if(valueToPay > 0)\n      user.transfer(valueToPay);\n\n    if(mentorFee > 0)\n      mentor.transfer(mentorFee);\n\n    if(serviceFee > 0)\n      owner().transfer(serviceFee);\n\n    emit ChallengeResolved(challengeId, user, mentor, decision);\n  }\n\n}",
  "sourcePath": "/Users/iYalovoy/Dropbox (Personal)/Development/coinpledge/contracts/CoinPledge.sol",
  "compiler": {
    "name": "solc",
    "version": "0.4.24+commit.e67f0147.Emscripten.clang"
  },
  "schemaVersion": "2.0.1",
  "updatedAt": "2018-11-06T15:50:56.988Z"
}