{
  "contractName": "CoinPledge",
  "abi": [
    {
      "constant": false,
      "inputs": [
        {
          "name": "token",
          "type": "address"
        }
      ],
      "name": "reclaimToken",
      "outputs": [],
      "payable": false,
      "stateMutability": "nonpayable",
      "type": "function"
    },
    {
      "constant": true,
      "inputs": [
        {
          "name": "",
          "type": "address"
        }
      ],
      "name": "bonusFund",
      "outputs": [
        {
          "name": "",
          "type": "uint256"
        }
      ],
      "payable": false,
      "stateMutability": "view",
      "type": "function"
    },
    {
      "constant": false,
      "inputs": [],
      "name": "withdrawPayments",
      "outputs": [],
      "payable": false,
      "stateMutability": "nonpayable",
      "type": "function"
    },
    {
      "constant": false,
      "inputs": [],
      "name": "renounceOwnership",
      "outputs": [],
      "payable": false,
      "stateMutability": "nonpayable",
      "type": "function"
    },
    {
      "constant": true,
      "inputs": [
        {
          "name": "",
          "type": "address"
        }
      ],
      "name": "userToChallengeCount",
      "outputs": [
        {
          "name": "",
          "type": "uint256"
        }
      ],
      "payable": false,
      "stateMutability": "view",
      "type": "function"
    },
    {
      "constant": true,
      "inputs": [],
      "name": "owner",
      "outputs": [
        {
          "name": "",
          "type": "address"
        }
      ],
      "payable": false,
      "stateMutability": "view",
      "type": "function"
    },
    {
      "constant": true,
      "inputs": [
        {
          "name": "",
          "type": "uint256"
        }
      ],
      "name": "challenges",
      "outputs": [
        {
          "name": "user",
          "type": "address"
        },
        {
          "name": "name",
          "type": "string"
        },
        {
          "name": "value",
          "type": "uint256"
        },
        {
          "name": "mentor",
          "type": "address"
        },
        {
          "name": "startDate",
          "type": "uint256"
        },
        {
          "name": "time",
          "type": "uint256"
        },
        {
          "name": "successed",
          "type": "bool"
        },
        {
          "name": "resolved",
          "type": "bool"
        }
      ],
      "payable": false,
      "stateMutability": "view",
      "type": "function"
    },
    {
      "constant": true,
      "inputs": [
        {
          "name": "",
          "type": "address"
        }
      ],
      "name": "mentorToChallengeCount",
      "outputs": [
        {
          "name": "",
          "type": "uint256"
        }
      ],
      "payable": false,
      "stateMutability": "view",
      "type": "function"
    },
    {
      "constant": true,
      "inputs": [
        {
          "name": "",
          "type": "uint256"
        }
      ],
      "name": "challengeToUser",
      "outputs": [
        {
          "name": "",
          "type": "address"
        }
      ],
      "payable": false,
      "stateMutability": "view",
      "type": "function"
    },
    {
      "constant": true,
      "inputs": [
        {
          "name": "",
          "type": "uint256"
        }
      ],
      "name": "allUsers",
      "outputs": [
        {
          "name": "",
          "type": "address"
        }
      ],
      "payable": false,
      "stateMutability": "view",
      "type": "function"
    },
    {
      "constant": true,
      "inputs": [
        {
          "name": "",
          "type": "address"
        }
      ],
      "name": "users",
      "outputs": [
        {
          "name": "addr",
          "type": "address"
        },
        {
          "name": "name",
          "type": "string"
        }
      ],
      "payable": false,
      "stateMutability": "view",
      "type": "function"
    },
    {
      "constant": true,
      "inputs": [
        {
          "name": "",
          "type": "uint256"
        }
      ],
      "name": "challengeToMentor",
      "outputs": [
        {
          "name": "",
          "type": "address"
        }
      ],
      "payable": false,
      "stateMutability": "view",
      "type": "function"
    },
    {
      "constant": true,
      "inputs": [
        {
          "name": "_dest",
          "type": "address"
        }
      ],
      "name": "payments",
      "outputs": [
        {
          "name": "",
          "type": "uint256"
        }
      ],
      "payable": false,
      "stateMutability": "view",
      "type": "function"
    },
    {
      "constant": false,
      "inputs": [
        {
          "name": "_newOwner",
          "type": "address"
        }
      ],
      "name": "transferOwnership",
      "outputs": [],
      "payable": false,
      "stateMutability": "nonpayable",
      "type": "function"
    },
    {
      "anonymous": false,
      "inputs": [
        {
          "indexed": true,
          "name": "challengeId",
          "type": "uint256"
        },
        {
          "indexed": true,
          "name": "user",
          "type": "address"
        },
        {
          "indexed": false,
          "name": "name",
          "type": "string"
        },
        {
          "indexed": false,
          "name": "value",
          "type": "uint256"
        },
        {
          "indexed": true,
          "name": "mentor",
          "type": "address"
        },
        {
          "indexed": false,
          "name": "startDate",
          "type": "uint256"
        },
        {
          "indexed": false,
          "name": "time",
          "type": "uint256"
        }
      ],
      "name": "NewChallenge",
      "type": "event"
    },
    {
      "anonymous": false,
      "inputs": [
        {
          "indexed": true,
          "name": "challengeId",
          "type": "uint256"
        },
        {
          "indexed": true,
          "name": "user",
          "type": "address"
        },
        {
          "indexed": true,
          "name": "mentor",
          "type": "address"
        },
        {
          "indexed": false,
          "name": "decision",
          "type": "bool"
        }
      ],
      "name": "ChallengeResolved",
      "type": "event"
    },
    {
      "anonymous": false,
      "inputs": [
        {
          "indexed": true,
          "name": "user",
          "type": "address"
        },
        {
          "indexed": false,
          "name": "value",
          "type": "uint256"
        }
      ],
      "name": "BonusFundChanged",
      "type": "event"
    },
    {
      "anonymous": false,
      "inputs": [
        {
          "indexed": true,
          "name": "addr",
          "type": "address"
        },
        {
          "indexed": true,
          "name": "name",
          "type": "string"
        }
      ],
      "name": "NewUsername",
      "type": "event"
    },
    {
      "anonymous": false,
      "inputs": [
        {
          "indexed": true,
          "name": "previousOwner",
          "type": "address"
        }
      ],
      "name": "OwnershipRenounced",
      "type": "event"
    },
    {
      "anonymous": false,
      "inputs": [
        {
          "indexed": true,
          "name": "previousOwner",
          "type": "address"
        },
        {
          "indexed": true,
          "name": "newOwner",
          "type": "address"
        }
      ],
      "name": "OwnershipTransferred",
      "type": "event"
    },
    {
      "constant": true,
      "inputs": [
        {
          "name": "user",
          "type": "address"
        }
      ],
      "name": "getBonusFund",
      "outputs": [
        {
          "name": "",
          "type": "uint256"
        }
      ],
      "payable": false,
      "stateMutability": "view",
      "type": "function"
    },
    {
      "constant": true,
      "inputs": [],
      "name": "getUsersCount",
      "outputs": [
        {
          "name": "",
          "type": "uint256"
        }
      ],
      "payable": false,
      "stateMutability": "view",
      "type": "function"
    },
    {
      "constant": true,
      "inputs": [
        {
          "name": "user",
          "type": "address"
        }
      ],
      "name": "getChallengesForUser",
      "outputs": [
        {
          "name": "",
          "type": "uint256[]"
        }
      ],
      "payable": false,
      "stateMutability": "view",
      "type": "function"
    },
    {
      "constant": true,
      "inputs": [
        {
          "name": "mentor",
          "type": "address"
        }
      ],
      "name": "getChallengesForMentor",
      "outputs": [
        {
          "name": "",
          "type": "uint256[]"
        }
      ],
      "payable": false,
      "stateMutability": "view",
      "type": "function"
    },
    {
      "constant": false,
      "inputs": [
        {
          "name": "name",
          "type": "string"
        }
      ],
      "name": "setUsername",
      "outputs": [],
      "payable": false,
      "stateMutability": "nonpayable",
      "type": "function"
    },
    {
      "constant": false,
      "inputs": [
        {
          "name": "name",
          "type": "string"
        },
        {
          "name": "mentor",
          "type": "string"
        },
        {
          "name": "time",
          "type": "uint256"
        }
      ],
      "name": "createChallenge",
      "outputs": [
        {
          "name": "retId",
          "type": "uint256"
        }
      ],
      "payable": true,
      "stateMutability": "payable",
      "type": "function"
    },
    {
      "constant": false,
      "inputs": [
        {
          "name": "challengeId",
          "type": "uint256"
        },
        {
          "name": "decision",
          "type": "bool"
        }
      ],
      "name": "resolveChallenge",
      "outputs": [],
      "payable": false,
      "stateMutability": "nonpayable",
      "type": "function"
    }
  ],
  "bytecode": "0x6080604052336000806101000a81548173ffffffffffffffffffffffffffffffffffffffff021916908373ffffffffffffffffffffffffffffffffffffffff1602179055506200004e620000b2565b604051809103906000f0801580156200006b573d6000803e3d6000fd5b50600160006101000a81548173ffffffffffffffffffffffffffffffffffffffff021916908373ffffffffffffffffffffffffffffffffffffffff160217905550620000c3565b6040516108518062002d4683390190565b612c7380620000d36000396000f30060806040526004361061011d576000357c0100000000000000000000000000000000000000000000000000000000900463ffffffff168063092888651461012257806317ffc320146101865780631906a3d6146101c957806329fc550f1461022057806341c9028c146102b85780634af79ba21461030f5780636103d70b146103a7578063715018a6146103be57806386ddf4dd146103d55780638da5cb5b1461042c5780638f1d3776146104835780639077c676146105ba57806394a754e0146106115780639c1bea8c1461064a578063a2bdedf4146106b7578063a4a1e26314610724578063a87430ba1461074f578063acc606061461083e578063e2982c21146108ab578063ed59313a14610902578063f2fde38b1461093d575b600080fd5b61017060048036038101908080359060200190820180359060200191909192939192939080359060200190820180359060200191909192939192939080359060200190929190505050610980565b6040518082815260200191505060405180910390f35b34801561019257600080fd5b506101c7600480360381019080803573ffffffffffffffffffffffffffffffffffffffff169060200190929190505050611018565b005b3480156101d557600080fd5b5061020a600480360381019080803573ffffffffffffffffffffffffffffffffffffffff16906020019092919050505061119d565b6040518082815260200191505060405180910390f35b34801561022c57600080fd5b50610261600480360381019080803573ffffffffffffffffffffffffffffffffffffffff1690602001909291905050506111e6565b6040518080602001828103825283818151815260200191508051906020019060200280838360005b838110156102a4578082015181840152602081019050610289565b505050509050019250505060405180910390f35b3480156102c457600080fd5b506102f9600480360381019080803573ffffffffffffffffffffffffffffffffffffffff1690602001909291905050506113cf565b6040518082815260200191505060405180910390f35b34801561031b57600080fd5b50610350600480360381019080803573ffffffffffffffffffffffffffffffffffffffff1690602001909291905050506113e7565b6040518080602001828103825283818151815260200191508051906020019060200280838360005b83811015610393578082015181840152602081019050610378565b505050509050019250505060405180910390f35b3480156103b357600080fd5b506103bc6115d0565b005b3480156103ca57600080fd5b506103d36116ad565b005b3480156103e157600080fd5b50610416600480360381019080803573ffffffffffffffffffffffffffffffffffffffff1690602001909291905050506117af565b6040518082815260200191505060405180910390f35b34801561043857600080fd5b506104416117c7565b604051808273ffffffffffffffffffffffffffffffffffffffff1673ffffffffffffffffffffffffffffffffffffffff16815260200191505060405180910390f35b34801561048f57600080fd5b506104ae600480360381019080803590602001909291905050506117ec565b604051808973ffffffffffffffffffffffffffffffffffffffff1673ffffffffffffffffffffffffffffffffffffffff168152602001806020018881526020018773ffffffffffffffffffffffffffffffffffffffff1673ffffffffffffffffffffffffffffffffffffffff1681526020018681526020018581526020018415151515815260200183151515158152602001828103825289818151815260200191508051906020019080838360005b8381101561057857808201518184015260208101905061055d565b50505050905090810190601f1680156105a55780820380516001836020036101000a031916815260200191505b50995050505050505050505060405180910390f35b3480156105c657600080fd5b506105fb600480360381019080803573ffffffffffffffffffffffffffffffffffffffff169060200190929190505050611935565b6040518082815260200191505060405180910390f35b34801561061d57600080fd5b506106486004803603810190808035906020019092919080351515906020019092919050505061194d565b005b34801561065657600080fd5b50610675600480360381019080803590602001909291905050506120fc565b604051808273ffffffffffffffffffffffffffffffffffffffff1673ffffffffffffffffffffffffffffffffffffffff16815260200191505060405180910390f35b3480156106c357600080fd5b506106e26004803603810190808035906020019092919050505061212f565b604051808273ffffffffffffffffffffffffffffffffffffffff1673ffffffffffffffffffffffffffffffffffffffff16815260200191505060405180910390f35b34801561073057600080fd5b5061073961216d565b6040518082815260200191505060405180910390f35b34801561075b57600080fd5b50610790600480360381019080803573ffffffffffffffffffffffffffffffffffffffff16906020019092919050505061217a565b604051808373ffffffffffffffffffffffffffffffffffffffff1673ffffffffffffffffffffffffffffffffffffffff16815260200180602001828103825283818151815260200191508051906020019080838360005b838110156108025780820151818401526020810190506107e7565b50505050905090810190601f16801561082f5780820380516001836020036101000a031916815260200191505b50935050505060405180910390f35b34801561084a57600080fd5b5061086960048036038101908080359060200190929190505050612256565b604051808273ffffffffffffffffffffffffffffffffffffffff1673ffffffffffffffffffffffffffffffffffffffff16815260200191505060405180910390f35b3480156108b757600080fd5b506108ec600480360381019080803573ffffffffffffffffffffffffffffffffffffffff169060200190929190505050612289565b6040518082815260200191505060405180910390f35b34801561090e57600080fd5b5061093b60048036038101908080359060200190820180359060200191909192939192939050505061238a565b005b34801561094957600080fd5b5061097e600480360381019080803573ffffffffffffffffffffffffffffffffffffffff1690602001909291905050506128ec565b005b600080600080662386f26fc100003410151515610a2b576040517f08c379a00000000000000000000000000000000000000000000000000000000081526004018080602001828103825260218152602001807f48617320746f207374616b65206d6f7265207468616e20302e3031206574686581526020017f720000000000000000000000000000000000000000000000000000000000000081525060400191505060405180910390fd5b600087879050111515610aa6576040517f08c379a00000000000000000000000000000000000000000000000000000000081526004018080602001828103825260128152602001807f48617320746f2062652061206d656e746f72000000000000000000000000000081525060200191505060405180910390fd5b600073ffffffffffffffffffffffffffffffffffffffff166009888860405180838380828437820191505092505050908152602001604051809103902060009054906101000a900473ffffffffffffffffffffffffffffffffffffffff1673ffffffffffffffffffffffffffffffffffffffff1614151515610b90576040517f08c379a000000000000000000000000000000000000000000000000000000000815260040180806020018281038252601b8152602001807f4d656e746f722068617320746f2062652072656769737465726564000000000081525060200191505060405180910390fd5b600085111515610c08576040517f08c379a00000000000000000000000000000000000000000000000000000000081526004018080602001828103825260208152602001807f54696d652068617320746f2062652067726561746572207468616e207a65726f81525060200191505060405180910390fd5b6009878760405180838380828437820191505092505050908152602001604051809103902060009054906101000a900473ffffffffffffffffffffffffffffffffffffffff16925042915060016002610100604051908101604052803373ffffffffffffffffffffffffffffffffffffffff1681526020018c8c8080601f01602080910402602001604051908101604052809392919081815260200183838082843782019150505050505081526020013481526020018673ffffffffffffffffffffffffffffffffffffffff168152602001858152602001888152602001600015158152602001600015158152509080600181540180825580915050906001820390600052602060002090600702016000909192909190915060008201518160000160006101000a81548173ffffffffffffffffffffffffffffffffffffffff021916908373ffffffffffffffffffffffffffffffffffffffff1602179055506020820151816001019080519060200190610d84929190612ba2565b506040820151816002015560608201518160030160006101000a81548173ffffffffffffffffffffffffffffffffffffffff021916908373ffffffffffffffffffffffffffffffffffffffff1602179055506080820151816004015560a0820151816005015560c08201518160060160006101000a81548160ff02191690831515021790555060e08201518160060160016101000a81548160ff0219169083151502179055505050039050336003600083815260200190815260200160002060006101000a81548173ffffffffffffffffffffffffffffffffffffffff021916908373ffffffffffffffffffffffffffffffffffffffff160217905550600460003373ffffffffffffffffffffffffffffffffffffffff1673ffffffffffffffffffffffffffffffffffffffff16815260200190815260200160002060008154809291906001019190505550826005600083815260200190815260200160002060006101000a81548173ffffffffffffffffffffffffffffffffffffffff021916908373ffffffffffffffffffffffffffffffffffffffff160217905550600660008473ffffffffffffffffffffffffffffffffffffffff1673ffffffffffffffffffffffffffffffffffffffff168152602001908152602001600020600081548092919060010191905055508273ffffffffffffffffffffffffffffffffffffffff163373ffffffffffffffffffffffffffffffffffffffff16827f6addd12ef367db762e49b848def7ac42cd6db3bb17e4c40e4f6fa3c653d71e888c8c34888c604051808060200185815260200184815260200183815260200182810382528787828181526020019250808284378201915050965050505050505060405180910390a480935050505095945050505050565b60008060009054906101000a900473ffffffffffffffffffffffffffffffffffffffff1673ffffffffffffffffffffffffffffffffffffffff163373ffffffffffffffffffffffffffffffffffffffff1614151561107557600080fd5b8173ffffffffffffffffffffffffffffffffffffffff166370a08231306040518263ffffffff167c0100000000000000000000000000000000000000000000000000000000028152600401808273ffffffffffffffffffffffffffffffffffffffff1673ffffffffffffffffffffffffffffffffffffffff168152602001915050602060405180830381600087803b15801561111057600080fd5b505af1158015611124573d6000803e3d6000fd5b505050506040513d602081101561113a57600080fd5b810190808051906020019092919050505090506111996000809054906101000a900473ffffffffffffffffffffffffffffffffffffffff16828473ffffffffffffffffffffffffffffffffffffffff166129539092919063ffffffff16565b5050565b6000600a60008373ffffffffffffffffffffffffffffffffffffffff1673ffffffffffffffffffffffffffffffffffffffff168152602001908152602001600020549050919050565b6060806000806000600460008773ffffffffffffffffffffffffffffffffffffffff1673ffffffffffffffffffffffffffffffffffffffff168152602001908152602001600020541115156112a3576040517f08c379a00000000000000000000000000000000000000000000000000000000081526004018080602001828103825260138152602001807f486173207a65726f206368616c6c656e6765730000000000000000000000000081525060200191505060405180910390fd5b600460008673ffffffffffffffffffffffffffffffffffffffff1673ffffffffffffffffffffffffffffffffffffffff168152602001908152602001600020546040519080825280602002602001820160405280156113115781602001602082028038833980820191505090505b50925060009150600090505b6002805490508110156113c4578473ffffffffffffffffffffffffffffffffffffffff166003600083815260200190815260200160002060009054906101000a900473ffffffffffffffffffffffffffffffffffffffff1673ffffffffffffffffffffffffffffffffffffffff1614156113b7578083838151811015156113a057fe5b906020019060200201818152505081806001019250505b808060010191505061131d565b829350505050919050565b600a6020528060005260406000206000915090505481565b6060806000806000600660008773ffffffffffffffffffffffffffffffffffffffff1673ffffffffffffffffffffffffffffffffffffffff168152602001908152602001600020541115156114a4576040517f08c379a00000000000000000000000000000000000000000000000000000000081526004018080602001828103825260138152602001807f486173207a65726f206368616c6c656e6765730000000000000000000000000081525060200191505060405180910390fd5b600660008673ffffffffffffffffffffffffffffffffffffffff1673ffffffffffffffffffffffffffffffffffffffff168152602001908152602001600020546040519080825280602002602001820160405280156115125781602001602082028038833980820191505090505b50925060009150600090505b6002805490508110156115c5578473ffffffffffffffffffffffffffffffffffffffff166005600083815260200190815260200160002060009054906101000a900473ffffffffffffffffffffffffffffffffffffffff1673ffffffffffffffffffffffffffffffffffffffff1614156115b8578083838151811015156115a157fe5b906020019060200201818152505081806001019250505b808060010191505061151e565b829350505050919050565b6000339050600160009054906101000a900473ffffffffffffffffffffffffffffffffffffffff1673ffffffffffffffffffffffffffffffffffffffff166351cff8d9826040518263ffffffff167c0100000000000000000000000000000000000000000000000000000000028152600401808273ffffffffffffffffffffffffffffffffffffffff1673ffffffffffffffffffffffffffffffffffffffff168152602001915050600060405180830381600087803b15801561169257600080fd5b505af11580156116a6573d6000803e3d6000fd5b5050505050565b6000809054906101000a900473ffffffffffffffffffffffffffffffffffffffff1673ffffffffffffffffffffffffffffffffffffffff163373ffffffffffffffffffffffffffffffffffffffff1614151561170857600080fd5b6000809054906101000a900473ffffffffffffffffffffffffffffffffffffffff1673ffffffffffffffffffffffffffffffffffffffff167ff8df31144d9c2f0f6b59d69b8b98abd5459d07f2742c4df920b25aae33c6482060405160405180910390a260008060006101000a81548173ffffffffffffffffffffffffffffffffffffffff021916908373ffffffffffffffffffffffffffffffffffffffff160217905550565b60046020528060005260406000206000915090505481565b6000809054906101000a900473ffffffffffffffffffffffffffffffffffffffff1681565b6002818154811015156117fb57fe5b90600052602060002090600702016000915090508060000160009054906101000a900473ffffffffffffffffffffffffffffffffffffffff1690806001018054600181600116156101000203166002900480601f0160208091040260200160405190810160405280929190818152602001828054600181600116156101000203166002900480156118cd5780601f106118a2576101008083540402835291602001916118cd565b820191906000526020600020905b8154815290600101906020018083116118b057829003601f168201915b5050505050908060020154908060030160009054906101000a900473ffffffffffffffffffffffffffffffffffffffff16908060040154908060050154908060060160009054906101000a900460ff16908060060160019054906101000a900460ff16905088565b60066020528060005260406000206000915090505481565b600080600080600080600080600060028b81548110151561196a57fe5b90600052602060002090600702019850600360008c815260200190815260200160002060009054906101000a900473ffffffffffffffffffffffffffffffffffffffff169750600560008c815260200190815260200160002060009054906101000a900473ffffffffffffffffffffffffffffffffffffffff169650600015158960060160019054906101000a900460ff161515141515611a73576040517f08c379a000000000000000000000000000000000000000000000000000000000815260040180806020018281038252601b8152602001807f4368616c6c656e676520616c7265616479207265736f6c7665642e000000000081525060200191505060405180910390fd5b62093a8089600501548a600401540101421015611b7c573373ffffffffffffffffffffffffffffffffffffffff168960030160009054906101000a900473ffffffffffffffffffffffffffffffffffffffff1673ffffffffffffffffffffffffffffffffffffffff16141515611b77576040517f08c379a000000000000000000000000000000000000000000000000000000000815260040180806020018281038252602a8152602001807f596f7520617265206e6f7420746865206d656e746f7220666f7220746869732081526020017f6368616c6c656e67652e0000000000000000000000000000000000000000000081525060400191505060405180910390fd5b611cc4565b3373ffffffffffffffffffffffffffffffffffffffff168960000160009054906101000a900473ffffffffffffffffffffffffffffffffffffffff1673ffffffffffffffffffffffffffffffffffffffff161480611c2957503373ffffffffffffffffffffffffffffffffffffffff168960030160009054906101000a900473ffffffffffffffffffffffffffffffffffffffff1673ffffffffffffffffffffffffffffffffffffffff16145b1515611cc3576040517f08c379a00000000000000000000000000000000000000000000000000000000081526004018080602001828103825260328152602001807f596f7520617265206e6f74207468652075736572206f72206d656e746f72206681526020017f6f722074686973206368616c6c656e67652e000000000000000000000000000081525060400191505060405180910390fd5b5b898960060160006101000a81548160ff02191690831515021790555060018960060160016101000a81548160ff021916908315150217905550611d286001611d1a60648c60020154612a4190919063ffffffff16565b612a5790919063ffffffff16565b95506000809054906101000a900473ffffffffffffffffffffffffffffffffffffffff1673ffffffffffffffffffffffffffffffffffffffff166108fc879081150290604051600060405180830381858888f19350505050158015611d91573d6000803e3d6000fd5b50611dbd6004611daf60648c60020154612a4190919063ffffffff16565b612a5790919063ffffffff16565b94508673ffffffffffffffffffffffffffffffffffffffff166108fc869081150290604051600060405180830381858888f19350505050158015611e05573d6000803e3d6000fd5b50611e2f85611e21888c60020154612a8f90919063ffffffff16565b612a8f90919063ffffffff16565b93508915611fe657839250600a60008973ffffffffffffffffffffffffffffffffffffffff1673ffffffffffffffffffffffffffffffffffffffff1681526020019081526020016000205491506000821115611fe157611eeb6032611edd6064600a60008d73ffffffffffffffffffffffffffffffffffffffff1673ffffffffffffffffffffffffffffffffffffffff16815260200190815260200160002054612a4190919063ffffffff16565b612a5790919063ffffffff16565b905066038d7ea4c6800082111515611f01578190505b80600a60008a73ffffffffffffffffffffffffffffffffffffffff1673ffffffffffffffffffffffffffffffffffffffff168152602001908152602001600020600082825403925050819055508773ffffffffffffffffffffffffffffffffffffffff167f0bfe400dd6d1d0d9446725bc045151fad50d6e8c93d65a20134b05ce6081f43e600a60008b73ffffffffffffffffffffffffffffffffffffffff1673ffffffffffffffffffffffffffffffffffffffff168152602001908152602001600020546040518082815260200191505060405180910390a280830192505b612034565b83600a60008a73ffffffffffffffffffffffffffffffffffffffff1673ffffffffffffffffffffffffffffffffffffffff168152602001908152602001600020600082825401925050819055505b6000831115612085578773ffffffffffffffffffffffffffffffffffffffff166108fc849081150290604051600060405180830381858888f19350505050158015612083573d6000803e3d6000fd5b505b8673ffffffffffffffffffffffffffffffffffffffff168873ffffffffffffffffffffffffffffffffffffffff168c7f7594a05a49b456a2fb34d3357cbaf2070ff1c0568ae96c6d9720e166d705fecb8d604051808215151515815260200191505060405180910390a45050505050505050505050565b60036020528060005260406000206000915054906101000a900473ffffffffffffffffffffffffffffffffffffffff1681565b60088181548110151561213e57fe5b906000526020600020016000915054906101000a900473ffffffffffffffffffffffffffffffffffffffff1681565b6000600880549050905090565b60076020528060005260406000206000915090508060000160009054906101000a900473ffffffffffffffffffffffffffffffffffffffff1690806001018054600181600116156101000203166002900480601f01602080910402602001604051908101604052809291908181526020018280546001816001161561010002031660029004801561224c5780601f106122215761010080835404028352916020019161224c565b820191906000526020600020905b81548152906001019060200180831161222f57829003601f168201915b5050505050905082565b60056020528060005260406000206000915054906101000a900473ffffffffffffffffffffffffffffffffffffffff1681565b6000600160009054906101000a900473ffffffffffffffffffffffffffffffffffffffff1673ffffffffffffffffffffffffffffffffffffffff1663e3a9db1a836040518263ffffffff167c0100000000000000000000000000000000000000000000000000000000028152600401808273ffffffffffffffffffffffffffffffffffffffff1673ffffffffffffffffffffffffffffffffffffffff168152602001915050602060405180830381600087803b15801561234857600080fd5b505af115801561235c573d6000803e3d6000fd5b505050506040513d602081101561237257600080fd5b81019080805190602001909291905050509050919050565b60028282905011151561242b576040517f08c379a00000000000000000000000000000000000000000000000000000000081526004018080602001828103825260228152602001807f50726f766964652061206e616d65206c6f6e676572207468616e20322063686181526020017f727300000000000000000000000000000000000000000000000000000000000081525060400191505060405180910390fd5b6020828290501015156124cc576040517f08c379a00000000000000000000000000000000000000000000000000000000081526004018080602001828103825260248152602001807f50726f766964652061206e616d652073686f72746572207468616e203332206381526020017f686172730000000000000000000000000000000000000000000000000000000081525060400191505060405180910390fd5b600073ffffffffffffffffffffffffffffffffffffffff16600760003373ffffffffffffffffffffffffffffffffffffffff1673ffffffffffffffffffffffffffffffffffffffff16815260200190815260200160002060000160009054906101000a900473ffffffffffffffffffffffffffffffffffffffff1673ffffffffffffffffffffffffffffffffffffffff161415156125d2576040517f08c379a00000000000000000000000000000000000000000000000000000000081526004018080602001828103825260178152602001807f596f7520616c726561647920686176652061206e616d6500000000000000000081525060200191505060405180910390fd5b600073ffffffffffffffffffffffffffffffffffffffff166009838360405180838380828437820191505092505050908152602001604051809103902060009054906101000a900473ffffffffffffffffffffffffffffffffffffffff1673ffffffffffffffffffffffffffffffffffffffff161415156126bb576040517f08c379a00000000000000000000000000000000000000000000000000000000081526004018080602001828103825260128152602001807f4e616d6520616c72656164792074616b656e000000000000000000000000000081525060200191505060405180910390fd5b60408051908101604052803373ffffffffffffffffffffffffffffffffffffffff16815260200183838080601f016020809104026020016040519081016040528093929190818152602001838380828437820191505050505050815250600760003373ffffffffffffffffffffffffffffffffffffffff1673ffffffffffffffffffffffffffffffffffffffff16815260200190815260200160002060008201518160000160006101000a81548173ffffffffffffffffffffffffffffffffffffffff021916908373ffffffffffffffffffffffffffffffffffffffff16021790555060208201518160010190805190602001906127ba929190612ba2565b50905050336009838360405180838380828437820191505092505050908152602001604051809103902060006101000a81548173ffffffffffffffffffffffffffffffffffffffff021916908373ffffffffffffffffffffffffffffffffffffffff16021790555060083390806001815401808255809150509060018203906000526020600020016000909192909190916101000a81548173ffffffffffffffffffffffffffffffffffffffff021916908373ffffffffffffffffffffffffffffffffffffffff1602179055505081816040518083838082843782019150509250505060405180910390203373ffffffffffffffffffffffffffffffffffffffff167f1baf823fe862656b4bf0b5b9ce919ed86d595c8429b1153e99a9f52d7386062e60405160405180910390a35050565b6000809054906101000a900473ffffffffffffffffffffffffffffffffffffffff1673ffffffffffffffffffffffffffffffffffffffff163373ffffffffffffffffffffffffffffffffffffffff1614151561294757600080fd5b61295081612aa8565b50565b8273ffffffffffffffffffffffffffffffffffffffff1663a9059cbb83836040518363ffffffff167c0100000000000000000000000000000000000000000000000000000000028152600401808373ffffffffffffffffffffffffffffffffffffffff1673ffffffffffffffffffffffffffffffffffffffff16815260200182815260200192505050602060405180830381600087803b1580156129f657600080fd5b505af1158015612a0a573d6000803e3d6000fd5b505050506040513d6020811015612a2057600080fd5b81019080805190602001909291905050501515612a3c57600080fd5b505050565b60008183811515612a4e57fe5b04905092915050565b600080831415612a6a5760009050612a89565b8183029050818382811515612a7b57fe5b04141515612a8557fe5b8090505b92915050565b6000828211151515612a9d57fe5b818303905092915050565b600073ffffffffffffffffffffffffffffffffffffffff168173ffffffffffffffffffffffffffffffffffffffff1614151515612ae457600080fd5b8073ffffffffffffffffffffffffffffffffffffffff166000809054906101000a900473ffffffffffffffffffffffffffffffffffffffff1673ffffffffffffffffffffffffffffffffffffffff167f8be0079c531659141344cd1fd0a4f28419497f9722a3daafe3b4186f6b6457e060405160405180910390a3806000806101000a81548173ffffffffffffffffffffffffffffffffffffffff021916908373ffffffffffffffffffffffffffffffffffffffff16021790555050565b828054600181600116156101000203166002900490600052602060002090601f016020900481019282601f10612be357805160ff1916838001178555612c11565b82800160010185558215612c11579182015b82811115612c10578251825591602001919060010190612bf5565b5b509050612c1e9190612c22565b5090565b612c4491905b80821115612c40576000816000905550600101612c28565b5090565b905600a165627a7a723058207611d9969c61f2e011ebe6360ec0eb7bd4a1514df7fe6e62239fdaedda0ebea300296080604052336000806101000a81548173ffffffffffffffffffffffffffffffffffffffff021916908373ffffffffffffffffffffffffffffffffffffffff1602179055506107fe806100536000396000f300608060405260043610610078576000357c0100000000000000000000000000000000000000000000000000000000900463ffffffff16806351cff8d91461007d578063715018a6146100c05780638da5cb5b146100d7578063e3a9db1a1461012e578063f2fde38b14610185578063f340fa01146101c8575b600080fd5b34801561008957600080fd5b506100be600480360381019080803573ffffffffffffffffffffffffffffffffffffffff1690602001909291905050506101fe565b005b3480156100cc57600080fd5b506100d561039e565b005b3480156100e357600080fd5b506100ec6104a0565b604051808273ffffffffffffffffffffffffffffffffffffffff1673ffffffffffffffffffffffffffffffffffffffff16815260200191505060405180910390f35b34801561013a57600080fd5b5061016f600480360381019080803573ffffffffffffffffffffffffffffffffffffffff1690602001909291905050506104c5565b6040518082815260200191505060405180910390f35b34801561019157600080fd5b506101c6600480360381019080803573ffffffffffffffffffffffffffffffffffffffff16906020019092919050505061050e565b005b6101fc600480360381019080803573ffffffffffffffffffffffffffffffffffffffff169060200190929190505050610575565b005b60008060009054906101000a900473ffffffffffffffffffffffffffffffffffffffff1673ffffffffffffffffffffffffffffffffffffffff163373ffffffffffffffffffffffffffffffffffffffff1614151561025b57600080fd5b600160008373ffffffffffffffffffffffffffffffffffffffff1673ffffffffffffffffffffffffffffffffffffffff168152602001908152602001600020549050803073ffffffffffffffffffffffffffffffffffffffff1631101515156102c057fe5b6000600160008473ffffffffffffffffffffffffffffffffffffffff1673ffffffffffffffffffffffffffffffffffffffff168152602001908152602001600020819055508173ffffffffffffffffffffffffffffffffffffffff166108fc829081150290604051600060405180830381858888f1935050505015801561034b573d6000803e3d6000fd5b508173ffffffffffffffffffffffffffffffffffffffff167f7084f5476618d8e60b11ef0d7d3f06914655adb8793e28ff7f018d4c76d505d5826040518082815260200191505060405180910390a25050565b6000809054906101000a900473ffffffffffffffffffffffffffffffffffffffff1673ffffffffffffffffffffffffffffffffffffffff163373ffffffffffffffffffffffffffffffffffffffff161415156103f957600080fd5b6000809054906101000a900473ffffffffffffffffffffffffffffffffffffffff1673ffffffffffffffffffffffffffffffffffffffff167ff8df31144d9c2f0f6b59d69b8b98abd5459d07f2742c4df920b25aae33c6482060405160405180910390a260008060006101000a81548173ffffffffffffffffffffffffffffffffffffffff021916908373ffffffffffffffffffffffffffffffffffffffff160217905550565b6000809054906101000a900473ffffffffffffffffffffffffffffffffffffffff1681565b6000600160008373ffffffffffffffffffffffffffffffffffffffff1673ffffffffffffffffffffffffffffffffffffffff168152602001908152602001600020549050919050565b6000809054906101000a900473ffffffffffffffffffffffffffffffffffffffff1673ffffffffffffffffffffffffffffffffffffffff163373ffffffffffffffffffffffffffffffffffffffff1614151561056957600080fd5b610572816106bc565b50565b60008060009054906101000a900473ffffffffffffffffffffffffffffffffffffffff1673ffffffffffffffffffffffffffffffffffffffff163373ffffffffffffffffffffffffffffffffffffffff161415156105d257600080fd5b34905061062781600160008573ffffffffffffffffffffffffffffffffffffffff1673ffffffffffffffffffffffffffffffffffffffff168152602001908152602001600020546107b690919063ffffffff16565b600160008473ffffffffffffffffffffffffffffffffffffffff1673ffffffffffffffffffffffffffffffffffffffff168152602001908152602001600020819055508173ffffffffffffffffffffffffffffffffffffffff167f2da466a7b24304f47e87fa2e1e5a81b9831ce54fec19055ce277ca2f39ba42c4826040518082815260200191505060405180910390a25050565b600073ffffffffffffffffffffffffffffffffffffffff168173ffffffffffffffffffffffffffffffffffffffff16141515156106f857600080fd5b8073ffffffffffffffffffffffffffffffffffffffff166000809054906101000a900473ffffffffffffffffffffffffffffffffffffffff1673ffffffffffffffffffffffffffffffffffffffff167f8be0079c531659141344cd1fd0a4f28419497f9722a3daafe3b4186f6b6457e060405160405180910390a3806000806101000a81548173ffffffffffffffffffffffffffffffffffffffff021916908373ffffffffffffffffffffffffffffffffffffffff16021790555050565b600081830190508281101515156107c957fe5b809050929150505600a165627a7a723058208a99ed6403a6f0d3d3c993e80e3902332535cfdbef58d01a85e177fa308464750029",
  "source": "/// @title CoinPledge\n/// @author Igor Yalovoy\n/// @notice Reach your goals and have fun with friends\n/// @dev All function calls are currently implement without side effects\n/// @web: ylv.io\n/// @email: to@ylv.io\n/// @gitHub: https://github.com/ylv-io/coinpledge/tree/master\n/// @twitter: https://twitter.com/ylv_io\n\n// Proofs:\n// Public commitment as a motivator for weight loss (https://onlinelibrary.wiley.com/doi/pdf/10.1002/mar.20316)\n\n\npragma solidity ^0.4.17;\n\nimport \"openzeppelin-solidity/contracts/math/SafeMath.sol\";\nimport \"openzeppelin-solidity/contracts/ownership/Ownable.sol\";\nimport \"openzeppelin-solidity/contracts/payment/PullPayment.sol\";\nimport \"openzeppelin-solidity/contracts/ownership/CanReclaimToken.sol\";\n\ncontract CoinPledge is Ownable, CanReclaimToken, PullPayment {\n\n  using SafeMath for uint256;\n\n  uint constant daysToResolve = 7 days;\n  uint constant bonusPercentage = 50;\n  uint constant feePercentage = 1;\n  uint constant mentorPercentage = 4;\n  uint constant minBonus = 1 finney;\n\n  struct Challenge {\n    address user;\n    string name;\n    uint value;\n    address mentor;\n    uint startDate;\n    uint time;\n\n    bool successed;\n    bool resolved;\n  }\n\n  struct User {\n    address addr;\n    string name;\n  }\n\n  // Events\n  event NewChallenge(uint indexed challengeId, address indexed user, string name, uint value, address indexed mentor, uint startDate, uint time);\n  event ChallengeResolved(uint indexed challengeId, address indexed user, address indexed mentor, bool decision);\n  event BonusFundChanged(address indexed user, uint value);\n  event NewUsername(address indexed addr, string indexed name);\n\n  /// @notice All Challenges\n  Challenge[] public challenges;\n\n  mapping(uint => address) public challengeToUser;\n  mapping(address => uint) public userToChallengeCount;\n\n  mapping(uint => address) public challengeToMentor;\n  mapping(address => uint) public mentorToChallengeCount;\n\n  /// @notice All Users\n  mapping(address => User) public users;\n  address[] public allUsers;\n  mapping(string => address) private usernameToAddress;\n  \n  /// @notice User's bonuses\n  mapping(address => uint) public bonusFund;\n\n  /// @notice Get Bonus Fund For User\n  function getBonusFund(address user)\n  external\n  view\n  returns(uint) {\n    return bonusFund[user];\n  }\n\n\n  /// @notice Get Users Lenght\n  function getUsersCount()\n  external\n  view\n  returns(uint) {\n    return allUsers.length;\n  }\n\n\n  /// @notice Get Challenges For User\n  function getChallengesForUser(address user)\n  external\n  view\n  returns(uint[]) {\n    require(userToChallengeCount[user] > 0, \"Has zero challenges\");\n\n    uint[] memory result = new uint[](userToChallengeCount[user]);\n    uint counter = 0;\n    for (uint i = 0; i < challenges.length; i++) {\n      if (challengeToUser[i] == user)\n      {\n        result[counter] = i;\n        counter++;\n      }\n    }\n    return result;\n  }\n\n  /// @notice Get Challenges For Mentor\n  function getChallengesForMentor(address mentor)\n  external\n  view\n  returns(uint[]) {\n    require(mentorToChallengeCount[mentor] > 0, \"Has zero challenges\");\n\n    uint[] memory result = new uint[](mentorToChallengeCount[mentor]);\n    uint counter = 0;\n    for (uint i = 0; i < challenges.length; i++) {\n      if (challengeToMentor[i] == mentor)\n      {\n        result[counter] = i;\n        counter++;\n      }\n    }\n    return result;\n  }\n\n  /// @notice Set Username\n\n  function setUsername(string name)\n  external {\n    require(bytes(name).length > 2, \"Provide a name longer than 2 chars\");\n    require(bytes(name).length < 32, \"Provide a name shorter than 32 chars\");\n    require(users[msg.sender].addr == address(0x0), \"You already have a name\");\n    require(usernameToAddress[name] == address(0x0), \"Name already taken\");\n\n    users[msg.sender] = User(msg.sender, name);\n    usernameToAddress[name] = msg.sender;\n    allUsers.push(msg.sender);\n\n    emit NewUsername(msg.sender, name);\n  }\n\n  /// @notice Creates Challenge\n  function createChallenge(string name, string mentor, uint time)\n  external\n  payable\n  returns (uint retId) {\n    require(msg.value >= 0.01 ether, \"Has to stake more than 0.01 ether\");\n    require(bytes(mentor).length > 0, \"Has to be a mentor\");\n    require(usernameToAddress[mentor] != address(0x0), \"Mentor has to be registered\");\n    require(time > 0, \"Time has to be greater than zero\");\n\n    address mentorAddr = usernameToAddress[mentor];\n    uint startDate = block.timestamp;\n    uint id = challenges.push(Challenge(msg.sender, name, msg.value, mentorAddr, startDate, time, false, false)) - 1;\n\n    challengeToUser[id] = msg.sender;\n    userToChallengeCount[msg.sender]++;\n\n    challengeToMentor[id] = mentorAddr;\n    mentorToChallengeCount[mentorAddr]++;\n\n    emit NewChallenge(id, msg.sender, name, msg.value, mentorAddr, startDate, time);\n\n    return id;\n  }\n\n  /// @notice Resolves Challenge\n  function resolveChallenge(uint challengeId, bool decision)\n  external {\n    Challenge storage challenge = challenges[challengeId];\n    address user = challengeToUser[challengeId];\n    address mentor = challengeToMentor[challengeId];\n\n    require(challenge.resolved == false, \"Challenge already resolved.\");\n\n    // if more time passed than endDate + daysToResolve, then user can resolve himself\n    if(block.timestamp < (challenge.startDate + challenge.time + daysToResolve))\n      require(challenge.mentor == msg.sender, \"You are not the mentor for this challenge.\");\n    else require((challenge.user == msg.sender) || (challenge.mentor == msg.sender), \"You are not the user or mentor for this challenge.\");\n\n    // write decision\n    challenge.successed = decision;\n    challenge.resolved = true;\n\n    // pay service fee\n    uint serviceFee = challenge.value.div(100).mul(feePercentage);\n    owner.transfer(serviceFee);\n\n    // pay mentor fee\n    uint mentorFee = challenge.value.div(100).mul(mentorPercentage);\n    mentor.transfer(mentorFee);\n\n    uint remainingValue = challenge.value.sub(serviceFee).sub(mentorFee);\n\n    uint valueToPay;\n\n    if(decision) {\n      // value to pay back to user\n      valueToPay = remainingValue;\n      // credit bouns if any\n      uint currentBonus = bonusFund[user];\n      if(currentBonus > 0)\n      {\n        uint bonusValue = bonusFund[user].div(100).mul(bonusPercentage);\n        if(currentBonus <= minBonus)\n          bonusValue = currentBonus;\n        bonusFund[user] -= bonusValue;\n        emit BonusFundChanged(user, bonusFund[user]);\n\n        valueToPay += bonusValue;\n      }\n    }\n    else \n        // if failed to achieve goal, put money to bonus fund\n        bonusFund[user] += remainingValue;\n\n    // pay back to the challenger\n    if(valueToPay > 0)\n        user.transfer(valueToPay);\n\n    emit ChallengeResolved(challengeId, user, mentor, decision);\n  }\n\n}",
  "sourcePath": "/Users/iYalovoy/Dropbox (Personal)/Development/coinpledge/contracts/CoinPledge.sol",
  "compiler": {
    "name": "solc",
    "version": "0.4.24+commit.e67f0147.Emscripten.clang"
  },
  "schemaVersion": "2.0.1",
  "updatedAt": "2018-10-25T15:15:13.304Z"
}